:100000000C94E3030C942A040C942A040C942A0400
:100010000C942A040C942A040C942A040C942A04A8
:100020000C942A040C942A040C94572B0C94292C1D
:100030000C947C220C942A040C942A040C942A0418
:100040000C942A040C942A040C942A040C942A0478
:100050000C942A040C94E4220C942A040C942A0490
:100060000C942A040C942A040C942A040C942A0458
:100070000C942A040C942A040C942A040C942A0448
:100080000C94620B0C942A040C942A040C942A04F9
:100090000C942A040C942A040C942A040C942A0428
:1000A0000C942A040C942A040C942A04EA05EC0506
:1000B000EE05F005F205F405F605F805020604065E
:1000C000060608060A060C060E06100612061E068E
:1000D0004E116511801178128D13C412FD12431355
:1000E000D418D4180619061944196419D41AD41A44
:1000F000A619D41A531A531AC41AD41AD41ACD1AD8
:10010000601A601A601A601A601A601A601A601A1F
:10011000601A601A601A601A601A601A601A601A0F
:10012000711A7F1A861A8D1A971A631B631B751B27
:10013000751B6C1B751B751B751B631B631B711B70
:10014000751B751B711B962CBD2CAF2DBD2CAF2DB7
:10015000092D2C2DAF2D822D912D07634236B79B93
:10016000D8A71A39685618AEBAAB558C1D3CB7CC17
:100170005763BD6DEDFD753EF6177231BF0000008F
:10018000803F08000000BE922449123EABAAAA2A72
:10019000BECDCCCC4C3E00000080BEABAAAAAA3E8D
:1001A00000000000BF000000803F000000000008C9
:1001B0004178D3BB4387D1133D190E3CC3BD428266
:1001C000AD2B3E68EC8276BED98FE1A93E4C80EF24
:1001D000FFBE01C4FF7F3F000000000029001400A3
:1001E0001A000800150017001C0018000C0012006F
:1001F00013000451055104001600070009000A000D
:100200000B000D000E000F0033002D00E1001D005B
:100210001B00060019000500110010003600370011
:1002200038002800E000E300E200035101512C00F7
:100230002C0002515000510052004F0001001E00DE
:100240001F0020002100220023002400250026009A
:1002500027002A002B002E008900320087000000B2
:1002600000004A004D00280029004B00010000005A
:100270002D003400000000004C002A0049002B0033
:1002800052004E00010001000100000001000100C9
:1002900001008A008800500051004F0001003A0020
:1002A0003B003C003D003E003F004000410042005A
:1002B00043002A002B00440045000000000000001D
:1002C000000046004700480039002B0001000000F4
:1002D000000000000000000000005000510052002B
:1002E0004F00E50001000100010000008B0001004B
:1002F000010001000000E600E700E400010000004A
:100300000000005C00000000000000000000F90098
:100310000000FD00000000000000000000000000E0
:10032000000000000000FA000000FE0001000000D4
:10033000000000000000000000000000F400F000D9
:10034000F500FF00010001000100010000000100B4
:1003500001000000F200F100F300000001000000C5
:10036000000000000000000000000000000000008D
:10037000000001002B0033002D0034002E00870008
:10038000000000000000000000000000010030003C
:10039000320089002F000000000000000000000073
:1003A0000000010001000100010000000000010048
:1003B00001000000000000000000000001003A0001
:1003C0003B003C003D003E003F0040004100420039
:1003D00043002A00010044004500000035000000F1
:1003E00000004A004D0028002A0000000100000023
:1003F00000000000000000004C002A000000000087
:1004000000000100010001000100000000000100E7
:1004100001000000E600E7006500E4000100005C68
:10042000015CC05CC15CC35CC45CC55CC65CC75C91
:10043000C85C4C0001000100275C1D5C1E5C135C65
:100440000A5CDB5C01000100010001000100295C85
:10045000285C245C255C2A5C2B5C00000000010009
:100460000100010001000100010001000100010084
:100470000100010001000100010001004445425556
:10048000473A20656E61626C65642E0A000A002599
:1004900030313662003A200025303258000A722F7F
:1004A00063203031323334353637383941424344B2
:1004B00045460A00617564696F20706C6179206E31
:1004C0006F746520667265713D256420766F6C3DA2
:1004D000256400617564696F2073746F70206E6F9E
:1004E000746520667265713D256400617564696F8D
:1004F0002073746F7020616C6C206E6F7465730074
:100500000A002530325820006B6579626F61726491
:100510005F7265706F72743A20000A00253032589D
:10052000006B6579626F6172645F7365745F6C659F
:10053000643A200064656C5F6B65795F6269743A48
:100540002063616E27742064656C3A202530325830
:100550000A006164645F6B65795F6269743A206365
:10056000616E2774206164643A20253032580A0095
:10057000290A002575002F002575005D28002564D7
:100580000020002564002000256400200025640070
:100590007C0025303258006D6F7573656B6579206E
:1005A0005B62746E7C782079207620685D287265A5
:1005B000702F61636C293A205B005B735D004B65B3
:1005C00079626F6172642073746172742E0A005BC9
:1005D000575D005B535D005B525D005B445D005BFB
:1005E000435D000403300000000E0350006C006106
:1005F000006E0063006B0000000A034F004C004BCC
:1006000000420000000403090409028D00050100F6
:10061000A0FA0904000001030101000921110100F1
:10062000012240000705810308000A0904010001B6
:1006300003010200092111010001224D000705827A
:100640000308000A09040200010300000009211147
:100650000100012236000705830308000A0904038C
:1006600000020300000009211101000122220007FD
:100670000584032000010705040320000109040488
:1006800000010300000009211101000122390007C7
:100690000585032000011201100100000008EDFE95
:1006A000606005000102030105010906A1010507BB
:1006B00019E029E715002501950875018102050853
:1006C000190129059505750191029501750391019F
:1006D0000507190029F71500250195F87501810214
:1006E000C00631FF0974A1010975150026FF0095A8
:1006F00020750881020976150026FF0095207508EF
:100700009102C005010980A101850216010026039E
:10071000001A81002A8300751095018100C0050C24
:100720000901A1018503160100269C021A01002A75
:100730009C02751095018100C005010902A1010903
:1007400001A1000509190129051500250195057567
:1007500001810295017503810105010930093115F7
:1007600081257F95027508810609381581257F95B9
:100770000175088106050C0A38021581257F95014F
:1007800075088106C0C005010906A101050719E029
:1007900029E7150025019508750181029501750865
:1007A0008101050819012905950575019102950139
:1007B000750391010507190029FF150026FF009513
:1007C0000675088100C011241FBECFEFDAE0DEBF3E
:1007D000CDBF04B603FE27C080916D0590916E05D4
:1007E000A0916F05B09170058730904BA740B04B3A
:1007F000D1F410926D0510926E0510926F05109253
:10080000700514BE84B7877F84BF0FB6F894A8958F
:1008100080916000886180936000109260000FBE3C
:10082000E0E0F8E3099514E0A0E0B1E0E4E5F6E6E5
:1008300002C005900D92A031B107D9F725E0A0E1E3
:10084000B4E001C01D92AD36B207E1F70E947228F4
:100850000C9428330C940000FF93EF93E091100464
:10086000F0911104309709F00995EF91FF910895E7
:10087000FC018591803011F0EFDFFBCF0895FF2759
:10088000E0E230E247FF0CC0419597FF09C0EDE27E
:100890006095709580959095611D711D811D911DCC
:1008A00027FF02C0219530E350E2AA27660F771F89
:1008B000881F991FAA1FA41710F0A41B63955A95AF
:1008C000A9F7AA3008F0A95FA05DAF93F395611571
:1008D00071058105910541F7ED3211F4EF93F39520
:1008E000F21718F43F93F395FBCF8F91B5DFFA958C
:1008F000E1F70895E991F9918591803021F08532F1
:1009000019F0AADFF9CF089520E0E8945591553207
:10091000C1F3503311F4689455915A3348F450534D
:1009200090F3220F022E220F220F200D250FF4CF5D
:100930000EF4219589919991533619F3533729F182
:10094000533559F1BC0188279927E8945C3621F486
:100950008991999168945591543639F446EF7EF017
:1009600077FF0DC08FEF9FEF0AC055374AE039F08F
:10097000583540E121F0523642E009F00895FF93E6
:10098000EF937DDFEF91FF91B7CFFF93EF93FC01E2
:1009900081918030B9F360DFFBCFFF93EF9368DF85
:1009A000F1CFDF93CF93CDB7DEB72596A3DFCF91FD
:1009B000DF9108956E9A769A0C948609FC01623054
:1009C000E1F028F4662349F0613071F033C06430FF
:1009D00011F1D0F0653031F12DC08281882311F002
:1009E00080E006C080E024C08281882321F081E07D
:1009F0000E94881F1FC081E01BC08281882311F0E4
:100A000082E0F6CF82E014C08281882311F083E077
:100A1000EFCF83E00DC08281882311F084E0E8CF1E
:100A200084E006C08281882311F085E0E1CF85E073
:100A30000E94A91F80E090E0089581E0089581E080
:100A400008950C941F050E94200F0C94DA040E9454
:100A5000D5130C94880908950C942B050C942C053F
:100A60000895CF93DF930E94511B0E949A130E9416
:100A7000AE22EC0140E063E070E084E391E00E948C
:100A8000A30E0E943005CE010E94BA228A3F910532
:100A900038F48FE99FE00197F1F700C00000F3CF31
:100AA0000E94630FDF91CF910C940A230F931F9341
:100AB000CF93DF938C01FC01C081D181CE010E94D4
:100AC0002620BE010E94D906EC01B8010E94210532
:100AD000882309F467C1B801CE010E94170B88234F
:100AE00009F460C1B801CE010E943814882309F4CA
:100AF00059C1B801CE010E943709882309F452C1B7
:100B0000C531FCE5DF0739F50E94D820282FF80110
:100B100082814091600350916103882379F02A7AA1
:100B200091E009F490E090931204911102C069E2FF
:100B300001C065E3CA010E940B220AC08091120421
:100B4000811102C069E201C065E3CA010E94162258
:100B50000E94A52027C1C6318CE5D80708F095C0B2
:100B6000C130ECE5DE0779F4F8018281882309F4CD
:100B700019C180911F05816080931F058CE794E067
:100B80000E9438040FC1C230FCE5DF0708F466C0DC
:100B9000F8018281882309F469C00E9468218111CB
:100BA00002C00E9449210E947B2190E090935F0542
:100BB00080935E05FE01E350FC45E231F10530F41F
:100BC000EA5AFF4F80915E050C942D3280915E05AC
:100BD00081603BC0826039C0846037C0886035C0A6
:100BE000806133C0806231C080642FC080682DC0B6
:100BF0008460886080935E0540E064E070E084E09B
:100C000091E019C08E7F21C08D7F1FC08B7F1DC0DA
:100C1000877F1BC08F7E19C08F7D17C08F7B15C04B
:100C20008F7713C08B7F877F80935E0540E062E003
:100C300070E084E291E00E94A30E09C087FB2227A6
:100C400020F991E0922790FB87F980935E058091CF
:100C50005E050E947F210E94511BA4C0C115DC4586
:100C600061F081E08093170480931804C801DF913C
:100C7000CF911F910F910C941D05F801828188235B
:100C800009F490C00E9431058DC0C63DECE5DE0739
:100C900059F5F8018281882361F0109218040E94AE
:100CA000AE22909316048093150480E20E9490185F
:100CB00079C080911804882321F080E20E9497185F
:100CC00071C080911504909116040E94BA22883C4C
:100CD000910598F780E20E94971888E20E943A17DF
:100CE00088E20E9431185EC0C73DFCE5DF0708F0CE
:100CF00044C0C43D8CE5D80719F5F80182818823EA
:100D000051F0109217040E94AE2290931404809325
:100D1000130482E0CBCF8091170481110FC0809122
:100D20001304909114040E94BA22883C910530F477
:100D300086E20E943A1786E20E94311882E0BECF16
:100D4000C53DDC4509F08DCFF80182818111A5CF29
:100D5000809118048111B1CF8091150490911604EF
:100D60000E94BA22883C910508F0A7CF87E20E9432
:100D70003A1787E20E943118A0CFC93DFCE5DF0792
:100D800031F4F8018281882369F080E009C0CA3D0E
:100D9000DC4509F066CFF8018281882319F082E0F2
:100DA0000E941A2980E0DF91CF911F910F91089541
:100DB00008959CE0799FF001112490E3899FE00D54
:100DC000F11D1124E60FF11DEE0FFF1FE452FE4F3F
:100DD000859194910895880F991FFC01E452FE4F6C
:100DE000859194910895CF93DF930E94D9060E9434
:100DF0009608EC01811520E59207F0F5811530E4A5
:100E0000930708F018C1883E910500F5803E9105D2
:100E100008F088C1883A910570F4853A910508F088
:100E20009AC08130910509F47DC108F434C104975A
:100E300008F078C130C18D3B910508F497C0803C23
:100E4000910508F428C1805C9109E7C081159042A2
:100E500058F4C11581E0D80708F064C1C03FD1053E
:100E600008F419C1D0655EC1C11590E3D90708F037
:100E7000D8C0CE019F70D1C0811525E5920708F03A
:100E800043C0811534E5930708F0ECC0811542E5B5
:100E9000940708F5C11581E5D80708F0CFC02C2FBD
:100EA000237081E090E002C0880F991F2A95E2F735
:100EB0009C689E0174E0369527957A95E1F723703A
:100EC000922BCF70C695C69530E2C39FE0011124E6
:100ED000C82BD92B27C1869586959E012370332771
:100EE000C115D34508F0AFC040E2849FC001112472
:100EF000C1E0D0E002C0CC0FDD1F2A95E2F78C2BB9
:100F00009D2BEC01DC680EC1811529E5920778F470
:100F1000811538E5930708F0AAC08115964508F0B9
:100F2000BAC0CF71DD27DC2FCC27D062FBC0C11542
:100F30008AE5D80708F4A0C0CE01905681159042EA
:100F400008F0A9C08D2F8F710E941309DD27D06290
:100F50008F71D82BE7C0853A910509F49FC0863A76
:100F6000910509F09EC0C2E8D0E4DCC0883A910542
:100F700009F49AC0893A910509F499C08A3A910511
:100F800009F498C08B3A910509F497C08C3A910501
:100F900009F496C08B3B910509F495C08C3B9105F3
:100FA00009F494C08D3A910509F493C0803B9105F2
:100FB00009F492C08E3A910509F491C08F3A9105D7
:100FC00009F490C0813B910509F48FC0823B9105E3
:100FD00009F48EC0833B910509F48DC0843B9105D3
:100FE00009F48CC0853B910509F48BC0863B9105C3
:100FF00009F48AC0873B910509F489C0883B9105B3
:1010000009F488C0893B910509F487C08A3B9105A2
:1010100009F486C0C0E0D4E485C00E94EB06EC0170
:1010200081C0CE019927D3FF03C0EC01D86C7AC0F0
:10103000EC01D06C77C0DF70D06A74C0DC2FCC2795
:10104000C16FD06A6FC040E2849FC0011124C1E02B
:10105000D0E002C0CC0FDD1F2A95E2F7C82BD92BB8
:10106000DA6860C0D82FCC27C46FD06A5BC0D82F95
:10107000CC27C06FD06A56C08C2F8F70806E90E0E6
:10108000906A24E0D695C7952A95E1F7CF709C0128
:101090003C2BE90147C0C0E0D0E044C0C1E8D0E447
:1010A00041C0C3E8D0E43EC0C2EED4E43BC0C9EEC8
:1010B000D4E438C0CAEED4E435C0C5EBD4E432C0C1
:1010C000C6EBD4E42FC0C3EBD4E42CC0C4EBD4E40F
:1010D00029C0C7EBD4E426C0CCECD4E423C0CDECCB
:1010E000D4E420C0C3E8D5E41DC0CAE8D5E41AC0E2
:1010F000C2E9D5E417C0C4E9D5E414C0C1E2D6E41E
:1011000011C0C3E2D6E40EC0C4E2D6E40BC0C5E20F
:10111000D6E408C0C6E2D6E405C0C7E2D6E402C001
:10112000CAE2D6E4CE01DF91CF91089582389105CD
:1011300049F1B0F48133910509F458C048F489327B
:10114000910509F44EC08A32910509F454C00895FE
:101150008533910509F440C08933910599F00895CC
:10116000833E910529F138F4803E910591F0823E4D
:101170009105A1F00895863E9105F9F0873E91050D
:1011800031F1089520915E0520FD3AC021FD38C05F
:10119000089580915E0580FD35C032C080915E0566
:1011A00082FF32C080915E0584FD30C083EE39C07D
:1011B00080915E0582FD28C0F5CF80915E0583FF9A
:1011C00027C080915E0584FD21C087EE2AC08091F2
:1011D0005E0583FD1DC0F5CF80915E0585FD1AC0BB
:1011E0001BC080915E0585FD17C014C080915E050F
:1011F00086FD14C015C080915E0586FD11C00EC02D
:1012000080EE0FC089E30DC082EE0BC080E009C004
:1012100086EE07C089E205C085E303C08AE201C00B
:1012200081E390E0089590915E0592FF0DC0282F14
:101230002871283019F4877F846006C0282F247114
:10124000243011F48B7F886093FF0DC0282F287104
:10125000283119F4877E846106C0282F2471243137
:1012600011F48B7E886194FD877E089508950F9315
:101270001F93CF93FB012281211102C0C1E041C025
:101280008C01C0912604C11125C086319C45B1F75F
:101290000E94360981E0809326040E94AE2290933A
:1012A0002504809324041092190410921B041092B8
:1012B0001A0410921D0410921C0410921F04109224
:1012C0001E04109221041092200410922304109204
:1012D000220417C080912404909125040E94BA2210
:1012E0008C32914058F690911904E92FF0E0EE0FFE
:1012F000FF1FE65EFB4F118300839F5F90931904ED
:10130000C0E08C2FCF911F910F91089508950895FB
:101310000C948709A2EAB3E041E050E024E02A0FF0
:101320008D91E82FE295EF70F0E031A18F70BA0156
:1013300002C0660F771F8A95E2F7CB01962F909532
:10134000932391A392A1892B82A32A13E9CFA6E923
:10135000B3E041E050E02CE02A0F8D91E82FE295B8
:10136000EF70F0E031A18F70BA0102C0660F771FF5
:101370008A95E2F7CB01962F9095932391A392A1A2
:10138000892B82A32A13E9CF1092300410922F04E4
:101390001092280410922704109232041092310403
:1013A00010922A04109229041092340410923304EB
:1013B00010922C0410922B041092360410923504D3
:1013C00010922E0410922D040C9423054F925F92DC
:1013D0007F928F929F92AF92BF92CF92DF92EF92C5
:1013E000FF920F931F93CF93DF9322EAE22E23E025
:1013F000F22EC7E2D4E001E010E0992493946E014C
:10140000A880B98019821882D7018D917D01E82FBB
:10141000E295EF70F0E021A18F70A80102C0440FA7
:10142000551F8A95E2F7CA01242B21A322A1842EFD
:101430008094282122A350EA5A95F1F796E9492E83
:1014400093E0592E20E030E0D2017D912D01472F0D
:1014500042954F7050E0DA0190967C904881598116
:101460007F70D80102C0AA0FBB1F7A95E2F7BD01B9
:10147000672141F4B801022E02C0660F771F0A945B
:10148000E2F702C060E070E0462B572B5983488397
:101490002F5F3F4F2C303105B9F691A1892281A2EF
:1014A00092A1892B82A32296F60180819181A816B0
:1014B000B90641F0909237040E94AE22909339040D
:1014C00080933804F4E0CF32DF0709F098CF8091A1
:1014D0003704882351F180913804909139040E9497
:1014E000BA22069710F180912704909128049093D6
:1014F000300480932F048091290490912A049093C2
:1015000032048093310480912B0490912C049093A9
:1015100034048093330480912D0490912E04909391
:10152000360480933504109237040E94270581E029
:10153000DF91CF911F910F91FF90EF90DF90CF90AF
:10154000BF90AF909F908F907F905F904F90089545
:10155000E82FF0E0EE0FFF1FE15DFB4F80819181EE
:101560000895CF92DF92EF92FF920F931F93CF9344
:10157000DF938DE994E00E9438048FE2E82E84E046
:10158000F82EC0E0D0E098E9C92E94E0D92E0FE8FB
:1015900014E0DF93CF93DF92CF920E94D10485E9CC
:1015A00094E00E943804F701819191917F010E949B
:1015B0002F219F938F931F930F930E94D1048DE847
:1015C00094E00E94380421968DB79EB708960FB616
:1015D000F8949EBF0FBE8DBFC430D105D1F6DF9108
:1015E000CF911F910F91FF90EF90DF90CF900895D2
:1015F000682F70E065547109072E000C880B990B59
:101600000E94FE2E20E030E040E451E40E94542E7F
:101610009B01AC0160E070E080E090E40E948230C9
:1016200020E030E04CED53E40E9415300895FB01BA
:101630008D312CE5920731F482818823A1F10E943B
:10164000DD102FC08E312CE5920731F48281882382
:1016500051F10E94ED1025C08F312CE5920741F425
:101660008281882301F10E94D9108111F2CFE7CF46
:1016700088322CE5920731F482818823A1F00E9400
:10168000061108C089329C4571F48281882359F083
:101690000E940F1140E064E070E08CE491E00E9451
:1016A000A30E80E0089581E008950E94F80A4FE0BB
:1016B00050E00C9460100E94F80A0C94AA0F0C944D
:1016C000630F08951F920F920FB60F9211244F923D
:1016D0005F926F927F928F929F92AF92BF92CF92C2
:1016E000DF92EF92FF922F933F934F935F936F930D
:1016F0007F938F939F93AF93BF93CF93DF93EF939A
:10170000FF9380914D04882309F4ABC1C0918F04ED
:10171000D09190041C161D060CF0A3C140903D040E
:1017200050903E0460903F047090400420E030E010
:10173000A901C301B2010E94103018160CF065C057
:10174000C130D10509F452C080918D0490918E046E
:10175000BE010E9419327C0190938E0480938D0407
:1017600080904F0490905004A0905104B090520487
:1017700020E030E040E85FE3C501B4010E94E32DC2
:1017800060934F04709350048093510490935204DB
:10179000F701EE0FFF1FEE0FFF1FED59FB4FA301E7
:1017A000920160817181828193810E94542E20E098
:1017B00030E040E05EE30E9415309B01AC01C501C2
:1017C000B4010E94103018168CF4C7010196BE01B6
:1017D0000E94193290938E0480938D0410924F04CE
:1017E000109250041092510410925204E0918D0412
:1017F000F0918E04EE0FFF1FEE0FFF1FED59FB4F10
:101800006081718182819381E0C08091B4012197D0
:10181000882309F4BFC0C0908904D0908A04E09066
:101820008B04F0908C0420E030E0A901C701B601E0
:101830000E944F2E882309F4A2C0FE01EE0FFF1F65
:10184000EE0FFF1FED59FB4F80809180A280B38087
:10185000A5019401C701B6010E944F2E87FF31C038
:10186000A501940160E070E08CED93EC0E94542E91
:1018700020E030E040E451E40E94542E20E030E0CB
:1018800040E05FE30E9415309B01AC0160E070E036
:1018900080E090E40E9482309B01AC01C501B4015C
:1018A0000E9415309B01AC01C701B6010E944F2E6A
:1018B00087FF07C0A701960160E070E08CED93E41C
:1018C00039C0A5019401C701B6010E941030181655
:1018D0000CF055C0A501940160E070E08CED93E43C
:1018E0000E94542E20E030E040E451E40E94542E47
:1018F00020E030E040E05FE30E9415309B01AC0146
:1019000060E070E080E090E40E9482309B01AC01D6
:10191000C501B4010E9415309B01AC01C701B6019D
:101920000E94103018165CF5A701960160E070E087
:101930008CED93EC0E94542E20E030E040E451E422
:101940000E94542E20E030E040E05FE30E9415301A
:101950009B01AC0160E070E080E090E40E94823086
:101960009B01AC01C701B6010E9415306093890448
:1019700070938A0480938B0490938C041EC0CC0FC8
:10198000DD1FCC0FDD1FCD59DB4F88819981AA81E6
:10199000BB810BC0FE01EE0FFF1FEE0FFF1FED59C5
:1019A000FB4F80819181A281B381809389049093C0
:1019B0008A04A0938B04B0938C0460918904709185
:1019C0008A0480918B0490918C0420913A04309188
:1019D0003B042F3F4FEF340731F02F5F3F4F3093E1
:1019E0003B0420933A040E9418116B017C0120E013
:1019F00034E244EF51E40E944F2E87FF08C086EF87
:101A0000C82E88E2D82E84EFE82E81E4F82E20E05C
:101A100030E040E051E4C701B6010E9415309B015F
:101A2000AC0160E074E284E79BE40E94542E6B01F9
:101A30007C010E94CD2E70939700609396002091B8
:101A4000B5013091B6014091B7015091B801C7017D
:101A5000B6010E9415300E94CD2E709399006093BC
:101A6000980080914E04882309F446C1C09049042F
:101A7000D0904A04E0904B04F0904C0420E030E019
:101A8000A901C701B6010E9410301816D4F5809143
:101A90003A0490913B048F3F2FEF920729F0019673
:101AA00090933B0480933A04C701B6010E94181139
:101AB00020E030E040E051E40E9415309B01AC0191
:101AC00060E074E284E79BE40E94542E6B017C0189
:101AD0000E94CD2E70939700609396002091B501DF
:101AE0003091B6014091B7015091B801C701B601DC
:101AF0000E9415300E94CD2E70939900609398003B
:101B000008C01092970010929600109299001092BF
:101B1000980060914304709144046F5F7F4F70930D
:101B2000440460934304209196003091970080E034
:101B300090E0232B71F12091420421112AC0C09121
:101B40009600D09197000E94FC2E6B017C01BE0193
:101B500080E090E00E94FC2E9B01AC016091450466
:101B60007091460480914704909148040E94542E3D
:101B700020E03FEF4FE757E40E94153020E030E0CF
:101B800040E85FE30E94E22D9B01AC01C701B60172
:101B90000AC00E94FC2E20914504309146044091D9
:101BA0004704509148040E94103087FDA5C08091E1
:101BB00041048F5F8093410490E020915005309163
:101BC000510582179307A0F080915705882319F0DB
:101BD000109241040DC0809171008D7F809371003F
:101BE000809190008F738093900010924E048CC06F
:101BF0009091420480914104E0915205F091530587
:101C0000911137C091E09093420481508093410438
:101C100048E0849FE00DF11D1124C080D180E28056
:101C2000F3802085318542855385C701B6010E9426
:101C30004F2E811109C01092490410924A0410924B
:101C40004B0410924C0408C0C0924904D0924A043C
:101C5000E0924B04F0924C0480E090E0A0E8BFE3F7
:101C60008093450490934604A0934704B09348049E
:101C70003FC01092420410923B0410923A0498E044
:101C8000899FE00DF11D112480819181A281B38192
:101C90008093490490934A04A0934B04B0934C045E
:101CA00020E030E040E85EE36481758186819781C1
:101CB0000E9415306B017C018091B901682F70E0A2
:101CC00080E090E00E94FC2E20E030E048EC52E4FE
:101CD0000E94542E9B01AC01C701B6010E94153031
:101CE000609345047093460480934704909348049E
:101CF00010924404109243048091540580FD04C066
:101D000010924E0410924D04FF91EF91DF91CF910C
:101D1000BF91AF919F918F917F916F915F914F9103
:101D20003F912F91FF90EF90DF90CF90BF90AF90B9
:101D30009F908F907F906F905F904F900F900FBE0D
:101D40000F901F901895CF92DF92EF92FF92CF9352
:101D5000DF93EC016B01F42E80913C04811102C0F1
:101D60000E94200F8091540580FF63C08091710014
:101D70008D7F8093710080914D0481110E94630FCB
:101D800081E080934E04D0935305C0935205D092C6
:101D90005105C0925005F092570510924F041092D1
:101DA0005004109251041092520410924104888100
:101DB0009981AA81BB818093490490934A04A0939E
:101DC0004B04B0934C0420E030E040E85EE36C81CB
:101DD0007D818E819F810E9415306B017C018091F5
:101DE000B901682F70E080E090E00E94FC2E20E0B6
:101DF00030E048EC52E40E94542E9B01AC01C70134
:101E0000B6010E9415306093450470934604809398
:101E10004704909348041092440410924304809124
:101E2000710082608093710080919000806880933F
:101E30009000DF91CF91FF90EF90DF90CF900895C9
:101E40000E946821811102C00E9449210E948421C0
:101E50008093540580913C04811129C03E9A809161
:101E600071008D7F8093710082E0809390008AE101
:101E70008093910081EC91E190939700809396007C
:101E800023EA3BE04EE855E46091B5017091B6015C
:101E90008091B7019091B8010E9415300E94CD2E1B
:101EA000709399006093980081E080933C04809146
:101EB000540580FF07C040E065E070E08CE891E0E9
:101EC0000C94A30E089580911F0580FF08C08BEE2F
:101ED00094E09F938F930E94D1040F900F90809174
:101EE0003C04811102C00E94200F109290041092B5
:101EF0008F04809171008D7F80937100809190009C
:101F00008F738093900010924E0410924D041092A3
:101F1000890410928A0410928B0410928C041092FF
:101F200085041092860410928704109288041092FF
:101F3000840410928304E3E6F4E0A3E5B4E0119294
:101F40001192119211921D921D9284E0E338F807CC
:101F5000B1F70895CF92DF92EF92FF920F931F9304
:101F6000CF93DF936B017C0180911F0580FF10C030
:101F7000C701B6010E94C62E7F936F9383ED94E054
:101F80009F938F930E94D1040F900F900F900F900A
:101F900080914D04882309F48AC080913C0481110A
:101FA00002C00E94200F03E814E0C7E0D0E0A701C0
:101FB0009601F80192918291729162918F010E9433
:101FC0004F2E811131C0FE01EE0FFF1FEE0FFF1FDC
:101FD000ED59FB4F1082118212821382DE01AA0F8B
:101FE000BB1FAD5ABB4F11961C921E92C730D10534
:101FF000E9F0219644815581668177814083518340
:1020000062837383148215821682178212968D91D1
:102010009C91139711969C938E9313961C921E92EB
:10202000129734961296E2CF219708F680918F048A
:1020300090919004019797FD05C090939004809330
:102040008F0404C01092900410928F0480918F042A
:102050009091900420918D0430918E0428173907B7
:1020600024F010928E0410928D04892B01F580913A
:1020700071008D7F80937100809190008F738093A9
:1020800090001092890410928A0410928B0410928E
:102090008C0410928504109286041092870410928A
:1020A0008804109284041092830410924D04DF91EE
:1020B000CF911F910F91FF90EF90DF90CF900895F7
:1020C000CF92DF92EF92FF92CF93DF936B017C016F
:1020D000D42FC52F80911F0580FF14C05F934F93AD
:1020E000C701B6010E94C62E7F936F9384EB94E0E4
:1020F0009F938F930E94D1040F900F900F900F9099
:102100000F900F9080913C04811102C00E94200F1B
:102110008091540580FF46C080918F049091900477
:1021200008970CF03FC0809171008D7F8093710003
:1021300080914E0481110E94630F81E080934D04D1
:1021400010923B0410923A0420E030E0A901C7014C
:10215000B6010E9410301816DCF480918F04909123
:102160009004FC01EE0FFF1FEE0FFF1FED59FB4F18
:10217000C082D182E282F382FC01EE0FFF1FED5A92
:10218000FB4FD083C18301969093900480938F047A
:1021900080917100826080937100809190008068CE
:1021A00080939000DF91CF91FF90EF90DF90CF90E0
:1021B000089580915405817008958091540581603F
:1021C000809354050E9488210E94610B40E062E0E8
:1021D00070E08CE791E00C94A30E40E062E070E0C8
:1021E0008CE691E00E94A30E2FEF81EE94E0215047
:1021F00080409040E1F700C000000E94630F809192
:1022000054058E7F809354050C948821809191040D
:1022100090E00196877099278093910408958091AA
:10222000910490E007968770992780939104089510
:102230008F929F92AF92BF92CF92DF92EF92FF92D6
:10224000CF93DF936B017C01C0913A04D0913B04A2
:10225000BE0180E090E00E94FC2E4B015C01A701D2
:10226000960160E070E08CE594E40E94542E9B019E
:10227000AC01C501B4010E9415300E94CD2E9B0116
:10228000E09191048E2E912C48E08416910408F080
:1022900044C2F401E859FF4F0C942D321092B4015E
:1022A00080E090E0A0E0BFE38093B5019093B60199
:1022B000A093B701B093B80110923D0410923E0470
:1022C00010923F041092400428C21092B401109260
:1022D0003D0410923E0410923F0410924004643179
:1022E000710528F46A30710508F449C104C0693CDD
:1022F000710508F044C180E090E0A0E8BEE373C03F
:102300001092B40110923D0410923E0410923F04CA
:102310001092400420E030E040EA52E4C701B601E8
:102320000E944F2E87FDF9C120E030E040E253E4E7
:10233000C701B6010E944F2E87FF2FC00E947F3237
:1023400068E270E00E941932BC01645C7F4F072E86
:10235000000C880B990B0E94FE2E6B017C01809172
:102360003A0490913B048B309105C8F18531910579
:1023700008F080C165E170E0681B790B80E090E0B7
:102380000E94FC2E20E030E040E05FE30E94153028
:1023900020E030E040E251E4A8C020E030E040EA34
:1023A00053E4C701B6010E944F2E87FF2CC00E9444
:1023B0007F3268EE73E00E941932BC0168517C4F95
:1023C000072E000C880B990B0E94FE2E6B017C01DE
:1023D00080913A0490913B048630910568F480E046
:1023E00090E0A0E0BFE38093B5019093B601A09385
:1023F000B701B093B80191C18531910508F03AC198
:1024000065E170E062C020E030E040E254E4C701E2
:10241000B6010E944F2E87FF2FC00E947F3260EDD1
:1024200077E00E941932BC016854744F072E000CEB
:10243000880B990B0E94FE2E6B017C0180913A045F
:1024400090913B048031910550F28531910508F05F
:1024500011C165E170E0681B790B80E090E00E949B
:10246000FC2E20E030E040E05FE30E94153020E0E9
:1024700030E040EA50E439C020E030E040EA54E483
:10248000C701B6010E944F2E87FF47C10E947F32CD
:1024900060ED77E00E941932BC016854744F072E3A
:1024A000000C880B990B0E94FE2E6B017C01809121
:1024B0003A0490913B048432910508F490CF833321
:1024C000910508F0D7C063E370E0681B790B80E0EA
:1024D00090E00E94FC2E20E030E040E05FE30E94AC
:1024E000153020E030E040E751E40E94542E7CC0DB
:1024F00041E04093B40110923D0410923E041092CA
:102500003F04109240046431710540F46A30710553
:1025100060F520E030E040E85EE32BC0693C7105E7
:1025200008F0A8C080E090E00E94FC2E20E030E09F
:1025300040EA51E40E94E22D20E030E044E353E41D
:102540000E94542E9B01AC010E94153020E030E027
:1025500040E05EE30E9415309B01AC0160E070E05A
:1025600080E09EE30E94E22D3FC020E030E040E0AA
:102570005FE3C701B6010E9415306B017C0180E06A
:1025800090E0A0E0BEE32FCF21E02093B4011092B1
:102590003D0410923E0410923F04109240044AE021
:1025A000469F9001479F300D1124C90168EB7BE0E5
:1025B0000E940532BC016C5D754077FF03C07195C8
:1025C00061957109072E000C880B990B0E94FE2E55
:1025D0002EE333EC4EE259E30E94153020E030E068
:1025E00040EC5EE30E94E32D6093B5017093B60169
:1025F0008093B7019093B80190C081E08093B401BB
:1026000010923D0410923E0410923F041092400438
:10261000CE0183709927892BE1F0BE016170772785
:1026200080E090E00E94FC2E20E030E040E05EE39D
:102630000E94153020E030E040E45FE30E94E32D8B
:102640006093B5017093B6018093B7019093B80180
:102650000CC080E090E0A0E0BFE38093B5019093D0
:10266000B601A093B701B093B801C770DD27CD2B99
:1026700009F053C01092B5011092B6011092B70143
:102680001092B8014AC041E04093B40110923D0459
:1026900010923E0410923F0410924004812C912C21
:1026A000A12C9FE3B92E8092B5019092B601A09221
:1026B000B701B092B8012739310578F180E090E098
:1026C0000E94FC2E20E030E047E153E40E94E22D1E
:1026D00020E030E04AE754E40E94542E20E030E04D
:1026E00048E452E40E94153020E030E040EA51E432
:1026F0000E94442F0E94C62E660F771F660F771F19
:10270000FB01EA55FC4F2081318142815381C70191
:10271000B6010E9415306B017C01C701B601DF9143
:10272000CF91FF90EF90DF90CF90BF90AF909F90B0
:102730008F9008958091AA0481110C945F0B0895E5
:1027400021E08F3F910508F020E0822F08950C943E
:10275000A0130E949A131092AA0440E068E070E06F
:102760008AE392E00C94A30E1092A90440E068E082
:1027700070E08AEB91E00C94A30E0E949A132091D2
:102780005C0330E02F5F3F4F2370332720935C03BF
:1027900048E2429FC001439F900D112440E065E054
:1027A00070E086549D4F0C94A30ECF938091A604A5
:1027B000882309F441C0809192049091930400977A
:1027C00081F40E94AE22909393048093920420910E
:1027D000940430E02115310571F48091950490E066
:1027E0000BC00E94BA2220915A0330915B03281734
:1027F000390738F321C0C9010197FC01EA56FB4FA4
:102800008081F901EA56FB4FC0819091AA04911191
:102810000E945B0B8091AA04882319F08C2F0E94E0
:10282000550B8091940490E001966091950470E0BE
:102830000E94193280939404CF910895089581E005
:102840008093AA0440E068E070E08AE792E00E948A
:10285000A30E0C941E14089581E08093A90440E017
:1028600068E070E08AEF91E00E94A30E0C942B14B4
:10287000EF92FF921F93CF93DF93CDB7DEB7A3976D
:102880000FB6F894DEBF0FBECDBF7C0184322CE5BD
:10289000920741F4FB018281882309F448C00E9419
:1028A0001F14A2C08532FCE59F0739F4FB01828129
:1028B0008823E9F10E94A91397C08632FCE59F079F
:1028C00049F4FB018281882391F18091AA0481114E
:1028D000F1CFE5CF8A32FCE59F0739F4FB01828115
:1028E000882329F10E942C147FC08B32FCE59F07BE
:1028F00039F4FB0182818823D1F00E94B41374C0A3
:102900008C32FCE59F0749F4FB018281882379F032
:102910008091A9048111F1CFE5CF87329C4539F42C
:10292000FB018281882319F00E94BD135DC0409194
:10293000AA04411105C08091A904882309F4D1C0DB
:10294000FB015281552309F451C0F0EEEF16F1045A
:1029500061F40E949A1381E08093A8041092A70466
:102960001092A604109295043FC022EEE216F104E4
:1029700071F40E949A138091A804882319F081E0D1
:102980008093A7041092A8041092A6042DC033EEE1
:10299000E316F10491F48091A704882339F10E9491
:1029A0009A131092A80481E08093A60410929404D4
:1029B000109293041092920417C082E5E816F10475
:1029C00031F480915A0390915B030A9709C0E1E5C5
:1029D000EE16F10459F480915A0390915B030A9624
:1029E00090935B0380935A0380E07CC080915C03EA
:1029F00010915F03811108C0FB012081120F135059
:102A000080915D03180F43C0813091F4FB01208158
:102A1000120F105E20915D03120F818124E030E0DF
:102A2000281B3109822F880F880F280F120F38C0FA
:102A3000823071F4FB012081120F105E90915D03D2
:102A4000190F218184E090E0821B9109F7E025C0F5
:102A5000833031F583E2E3E7F3E0DE011196019084
:102A60000D928A95E1F71350FB01808121E030E05F
:102A70002C0F3D1F280F311DC90120915D0330919E
:102A80005E03FC01E20FF31F2081120FFB01218185
:102A900084E090E0821B9109FCE08F9F100D1124CF
:102AA0005523A1F0442319F0812F0E94550B8091EA
:102AB000A804882381F080919504E82FF0E0EA567D
:102AC000FB4F10838F5F8093950405C0442319F05A
:102AD000812F0E945B0BC7010E94A71391E08927F9
:102AE00001C081E0A3960FB6F894DEBF0FBECDBF44
:102AF000DF91CF911F91FF90EF9008959093B004D4
:102B00008093AF040895E091AF04F091B004309742
:102B100021F00190F081E02D099480E00895EF927A
:102B2000FF920F931F93CF93DF93E091AF04F09147
:102B3000B0043097B1F18C010280F381E02D09954A
:102B400080911F0582FF2DC080FF04C088E095E0C2
:102B50000E943804E80110E282E0E82E85E0F82EB9
:102B600080911F0580FF0BC088811F928F93FF9279
:102B7000EF920E94D1040F900F900F900F90115080
:102B800021961111EDCF80911F0580FF0AC080E0D2
:102B900095E0DF91CF911F910F91FF90EF900C94F2
:102BA0003804DF91CF911F910F91FF90EF9008951E
:102BB000E091AF04F091B004309721F00480F581EA
:102BC000E02D099408952091AD043091AE04821750
:102BD000930771F09093AE048093AD04E091AF043D
:102BE000F091B004309721F00680F781E02D099430
:102BF00008952091AB043091AC048217930771F0D3
:102C00009093AC048093AB04E091AF04F091B004D6
:102C1000309721F00084F185E02D099408950895FE
:102C20000C940F1681E008950E94A52285B7806854
:102C300085BF85B7806885BF0E948A090C942E23C2
:102C4000CF93C82F80911F0582FF1EC080FF04C054
:102C500081E295E00E94380480911F0580FF0CC03E
:102C60001F92CF938CE195E09F938F930E94D104A4
:102C70000F900F900F900F9080911F0580FF04C060
:102C80008AE195E00E9438048C2FCF910C942E0598
:102C90004F925F927F928F929F92AF92BF92CF920C
:102CA000DF92EF92FF920F931F93CF93DF93CDB7F5
:102CB000DEB72A970FB6F894DEBF0FBECDBF0E94D5
:102CC000E6090E941216811111C08FEF89838A8351
:102CD0001B820E94AE228160782F9D838C83498164
:102CE0005A816B818D810E94061757C092EBC92EC5
:102CF00094E0D92E00E010E0AA24A394B12C702E09
:102D0000802F0E94A80A4C01F601419051906F015A
:102D1000482659264114510431F40F5F1F4F0430E7
:102D2000110569F7D2CF80911F0581FD0E94B10A7C
:102D300020E030E07501022E02C0EE0CFF1C0A9468
:102D4000E2F7C70184219521892B09F12E837F8227
:102D50008E209F2091E0892809F490E098870E94B6
:102D6000AE228160782F9A8789874E815F8168853E
:102D70008A850E940617000F111FF801EE54FB4FC1
:102D800080819181E826F926F182E08206C02F5FDA
:102D90003F4F2C30310571F6C0CF0E944325109172
:102DA000B1040E9483151817D9F00E9483158093EF
:102DB000B1042A960FB6F894DEBF0FBECDBFDF91E7
:102DC000CF911F910F91FF90EF90DF90CF90BF9028
:102DD000AF909F908F907F905F904F900C942016B3
:102DE0002A960FB6F894DEBF0FBECDBFDF91CF910C
:102DF0001F910F91FF90EF90DF90CF90BF90AF9019
:102E00009F908F907F905F904F900895CF93DF9326
:102E1000CDB7DEB72B970FB6F894DEBF0FBECDBF90
:102E20004F83588769877A878B87DE01119686E002
:102E3000FD0111928A95E9F785E0FE013796019030
:102E40000D928A95E1F749815A816B817C818D8150
:102E50009E810E94F81D2B960FB6F894DEBF0FBE20
:102E6000CDBFDF91CF910895FC01808191810E94B7
:102E700065200895882309F4F3C0682F8238C1F4CF
:102E80000E94831581FDECC069E3809160039091FD
:102E900061030E940B220E94A5202FEF81EE94E097
:102EA000215080409040E1F700C0000069E319C064
:102EB0008338F9F40E94831580FDD2C063E58091C8
:102EC0006003909161030E940B220E94A5202FEFC6
:102ED00081EE94E0215080409040E1F700C0000076
:102EE00063E580916003909161030E9416220C9427
:102EF000A5208438C1F40E94831582FDB1C067E427
:102F000080916003909161030E940B220E94A52092
:102F10002FEF81EE94E0215080409040E1F700C017
:102F2000000067E4DECF8CEF860F813A38F48091A1
:102F30006003909161030E940B22D9CF80E2860F3B
:102F4000883048F4677081E001C0880F6A95EAF71D
:102F50000E94DB20CCCF8BE5860F833070F4653A7E
:102F600029F0663A31F083E890E005C081E890E00E
:102F700002C082E890E00C94E31588E5860F853165
:102F800008F06EC0683A61F1693A69F16A3A71F124
:102F90006B3A79F16C3A81F16B3B89F16C3B91F1C1
:102FA0006D3A99F1603BA1F16E3AA9F16F3AB1F136
:102FB000613BB9F1623BC1F1633BC9F1643BD1F1C3
:102FC000653BD9F1663BE1F1673BE9F1683BF1F123
:102FD000693BF9F16A3B09F43FC080E090E03EC0F4
:102FE00082EE90E03BC089EE90E038C08AEE90E03F
:102FF00035C085EB90E032C086EB90E02FC083EBCC
:1030000090E02CC084EB90E029C087EB90E026C0D4
:103010008CEC90E023C08DEC90E020C083E891E040
:103020001DC08AE891E01AC082E991E017C084E9E6
:1030300091E014C081E292E011C083E292E00EC000
:1030400084E292E00BC085E292E008C086E292E062
:1030500005C087E292E002C08AE292E00C94F91582
:103060000895882309F45BC0682F823879F40E94A0
:10307000831581FF54C069E38091600390916103DF
:103080000E940B220E94A52069E310C08338B1F48E
:103090000E94831580FF43C063E580916003909197
:1030A00061030E940B220E94A52063E580916003CA
:1030B000909161030E9416220C94A520843879F423
:1030C0000E94831582FF2BC067E48091600390917A
:1030D00061030E940B220E94A52067E4E7CF8CEFDA
:1030E000860F813A18F380E2860F883048F46770C3
:1030F00081E001C0880F6A95EAF70E94E120DCCFE9
:103100008BE5860F833020F480E090E00C94E3158B
:10311000685A653120F480E090E00C94F915089528
:10312000882321F00E94DB200C94A5200895882399
:1031300021F00E94E1200C94A52008954F925F9207
:103140006F927F92BF92CF92DF92EF92FF920F9396
:103150001F93CF93DF937C01D62FC72FFC010581EE
:1031600002950F70128111110E94F8200E949E207A
:10317000882379F0112369F080E28D0F883048F0C0
:1031800082E00E9487200E949E2091E0B82EB926FE
:1031900001C0B12CCC2EC2948FE0C822D12CF601F4
:1031A000E059FF4F0C942D328C2F807FCF708823F5
:1031B00011F0C295C07F112399F0CC2309F4CFC13F
:1031C00080E28D0F883010F0D11104C08C2F0E9446
:1031D000DB2003C08C2F0E94EB200E94A520BFC1E2
:1031E0008D2F0E943118CC2309F4DEC180E28D0FAF
:1031F000883010F0D11104C08C2F0E94E12003C050
:103200008C2F0E94F1200E94A520CEC18C2F807FA0
:10321000CF70803211F0C295C07FDD2319F0D1301C
:10322000C9F022C0112371F0002341F0013031F4C4
:103230000E9411218C2B0E940B21B6C10E941121EA
:103240008C2B46C1002319F0013009F4ADC10E9456
:103250000E2118C0112321F0063008F0A5C10EC0C0
:10326000053008F0A1C10EC0112351F0002331F048
:10327000F701858180FF73C18F7085838C2F28C1F2
:1032800001117EC18C2F2AC18C2F86958695837063
:1032900090E0009719F0019761F086C1112321F0A9
:1032A0008D2F9C2F937002C080E090E00E94E31568
:1032B0008BC1112321F08D2F9C2F937002C080E0D1
:1032C00090E00E94F91580C11123F9F0D53F51F02B
:1032D000D63F71F0D43FA9F48091580590915905DB
:1032E00081600BC08091580590915905826005C09E
:1032F0008091580590915905846090935905809369
:1033000058058D2F0E94C9231EC0D53F51F0D63FCE
:1033100071F0D43FA9F480915805909159058E7FA2
:103320000BC080915805909159058D7F05C0809103
:103330005805909159058B7F9093590580935805B6
:103340008D2F0E9431240E94B6243EC18C2F8370A1
:1033500009F050C0111134C18D2F82958695877068
:10336000880F880F9D2F9F70492E512C612C712C36
:10337000082E04C0440C551C661C771C0A94D2F716
:10338000D4FF14C00FE010E020E030E0B901A80144
:1033900004C0440F551F661F771F8A95D2F7CB01D3
:1033A000BA01609570958095909503C060E070E0DB
:1033B000CB01C695C695C370D0E0C230D10561F08F
:1033C000C330D10581F06429752986299729219771
:1033D00071F00E943B1FF4C0642975298629972942
:1033E0000E944D1FEDC00E943B1FC301B2010E940D
:1033F000291FE6C0112319F08C2F817001C086951A
:10340000882309F4DDC08D2F829586958770880FFB
:10341000880F9D2F9F70492E512C612C712C082EE6
:1034200004C0440C551C661C771C0A94D2F7D4FFC8
:1034300014C00FE010E020E030E0B901A80104C0A2
:10344000440F551F661F771F8A95D2F7CB01BA012B
:10345000609570958095909503C060E070E0CB0119
:10346000C695C695C3704C2F50E04230510569F0A7
:103470004330510589F064297529862997294130FF
:10348000510571F00E9401209BC06429752986298D
:1034900097290E94132094C00E940120C301B20109
:1034A0000E94EF1F8DC08D2F90E0FC01E05EF109BE
:1034B000E531F10508F04FC0E058FF4F0C942D3274
:1034C000DF708C2F8F71112331F00E94881F8D2F98
:1034D0000E94901869C00E94A91F8D2F0E94971802
:1034E00063C0112341F0053008F05EC08C2F8F714E
:1034F0000E94CE1F59C0063008F056C0F7CF1123E6
:1035000039F08C2F8F710E94881F4EC01123C9F390
:103510008C2F8F710E94A91F47C0112329F08C2F77
:103520008F710E94731F40C00E946E1F3DC0112307
:1035300049F0CF718C2F0E94881F63E08C2F0E946E
:103540007E2032C081E00E948720023068F182E054
:103550000E94872029C0112331F0002391F28D2F82
:103560000E943A1721C0002399F2D93349F45FEF42
:1035700067EE73E0515060407040E1F700C000001A
:103580008D2F0E94311810C04C2F4F706D2FC70126
:103590000E94DE040E949C1E17C04C2F4F706D2F9E
:1035A000C7010E94D80610C088E0C816D10441F0B7
:1035B0005CF0EAE0CE1AD108F2E0CF16D10420F494
:1035C0000E9483150E942E05BB20F1F00E947A20F4
:1035D00080FD1AC0F70112820E9474200E94881F89
:1035E000C7010E94121B0E947420DF91CF911F918E
:1035F0000F91FF90EF90DF90CF90BF907F906F90F2
:103600005F904F900C94A91FDF91CF911F910F9164
:10361000FF90EF90DF90CF90BF907F906F905F9082
:103620004F9008950F931F93CF93DF93EC01888100
:1036300099812B813C81232BB9F09F3F11F48F3F5F
:1036400099F0CE010E945605882371F06881798136
:103650008A810E9470208C010E9425200E94261FD2
:10366000B801CE010E949E18DF91CF911F910F915A
:1036700008950E94F8200E94082180916003909193
:1036800061030E9421220E94A5200E94DE250E9443
:10369000B62480E090E00E94E31580E090E00C9476
:1036A000F9150E94E8200C94391B0E946520E92F2F
:1036B000E295EF70F0E03297EE30F105B0F4EB56A2
:1036C000FF4F0C942D32803F91F018F4803E68F447
:1036D0000EC0843F51F40BC0803E48F0813F29F476
:1036E00006C093FB882780F9089580E0089581E063
:1036F0000895CF93DF9300D000D01F92CDB7DEB7EF
:103700000F900F900F900F900F90DF91CF91089531
:10371000CF93DF9300D000D000D0CDB7DEB7269690
:103720000FB6F894DEBF0FBECDBFDF91CF910895E5
:103730001F93CF93DF93C091BA0416E08091BB042E
:10374000C81799F0D0E01C9FF0011D9FF00D1124C7
:10375000E454FB4F40815181628173818481958162
:103760000E94881B2196C770E9CFDF91CF911F91EE
:1037700008954091EC045091ED046091EE04709135
:10378000EF048091F0049091F1040C94881B8091D7
:10379000F10482958F7009F054C08091EE04882363
:1037A00009F44FC08091BA04A091BB046091EC046D
:1037B0007091ED044091EF045091F004B6E08A1747
:1037C00009F43FC090E041155105C1F17F3F11F46C
:1037D0006F3FA1F1B89FF001B99FF00D1124E4549F
:1037E000FB4F218172132AC02081621327C02281DE
:1037F000211124C0238134812417350710F421506E
:103800003109241B350B283C3105C0F42091F1040B
:103810002F7020612093F10426E0289FF001299F5A
:10382000F00D1124EF53FB4F80818F7080618083F6
:103830008CEE94E00E94121B0C94981B01968770EA
:10384000BECF0895CF92DF92EF92FF920F931F9316
:10385000CF93DF93CDB7DEB762970FB6F894DEBF94
:103860000FBECDBF8C0185E0F801DE011D960190F1
:103870000D928A95E1F7D8014C9111965C911197C0
:1038800012966C9112971396CD90DC90149730910C
:10389000EC047091ED048091EF049091F004009796
:1038A00009F46BC17F3F19F43F3F09F466C1E09012
:1038B000EE04EE2009F4C0C02091F104C816D90628
:1038C00028F0F601E81BF90BCF0104C08095909514
:1038D0008C0D9D1DFF24F394883C910578F0F12C0C
:1038E000207F09F0C6C07C2DD98AC88A89890E94A8
:1038F000791B8CEE94E00E94121BB1C0822F807F56
:1039000009F046C0751314C0341312C0611110C001
:103910002F7020612093F1040E94B91B8CEE94E07B
:103920000E94121B8091F104D80115968C932EC031
:10393000CD2819F15F3F11F44F3FF9F0F62E6111D8
:103940001CC08091BA042091BB0436E0821709F4B0
:103950005AC090E0389FF001399FF00D1124E454D3
:10396000FB4F7181571306C07081471303C07281EA
:10397000711103C001968770E9CFF62E662309F412
:1039800027C18091F10481608093F104F12C20C162
:10399000751308C0341306C0611104C08091F1048E
:1039A000D801C3C04D875E878D859E856A8B0E9436
:1039B000551B6A898823E1F16623D1F12091F10436
:1039C000822F82958F7090E0029774F08091EC04C2
:1039D0009091ED0498878F831986DB86CA862C87A1
:1039E000CE0107960E94121B86E0F801ACEEB4E00F
:1039F00001900D928A95E1F70E94C71B0E94B91BA6
:103A0000FF24F394E5C04D875E878D859E850E94D7
:103A10006520292F22952F7030E0223031050CF0DF
:103A2000CBC09F7009F0C5C0805E883008F4D0C05C
:103A3000C8010E94121BE4CFC816D90608F453C06F
:103A4000F601E81BF90BCF01883C910508F450C042
:103A5000F12C7C2DD98AC88A89890E94791BECEEC9
:103A6000F4E086E0DF011D928A95E9F70E94B91B18
:103A7000AFC0751314C0341312C0611110C080910F
:103A8000F104F8018583C8010E94121B86E0ECEE68
:103A9000F4E0DF011D928A95E9F7FE2C99C04D876D
:103AA0005E878D859E856A8B0E94551B6A89882357
:103AB00009F4BECF662309F4BBCF2091F104822F15
:103AC00082958F7090E002970CF48ECF8091EC0479
:103AD0009091ED049A8389831B82DD82CC822E83B0
:103AE000CE0101967FCF809590958C0D9D1DACCF1A
:103AF000F62E662309F49CCF75132EC034132CC008
:103B00002091F10420FD1FC0822F82958F70D9F083
:103B1000D80115962C9315978F3049F08F5F982F09
:103B20009295907F822F8F70892B15968C93C80168
:103B30000E94121B86E0F801ACEEB4E001900D92F9
:103B40008A95E1F793CF86E0F801ACEEB4E00190FE
:103B50000D928A95E1F73CC04D875E878D859E85E5
:103B60000E94551B811140CF8091F10481608093A8
:103B7000F104C8010E94121B2BC0662309F458CF20
:103B80004D875E878D859E850E94551BF82E882364
:103B900009F44ECF86E0F801ACEEB4E001900D924E
:103BA0008A95E1F78CEE94E00E9434170E94C71BBF
:103BB0005DCF811139CF0CC0243031050CF038CFE6
:103BC0009F7009F431CFF8019581907F09F02CCFD7
:103BD0008F2D62960FB6F894DEBF0FBECDBFDF917A
:103BE000CF911F910F91FF90EF90DF90CF900895AC
:103BF0001F93CF93DF93CDB7DEB72C970FB6F89412
:103C0000DEBF0FBECDBF4F83588769877A878B870A
:103C10009C87CE0107960E94221C882369F08F8121
:103C200098852A853B85232BF1F19F3F09F063C0DE
:103C30008F3F09F060C037C086E0FE013796DE0195
:103C4000119601900D928A95E1F76F817885EA854A
:103C5000FB85309741F17F3F11F46F3F21F12091B7
:103C6000BB0430E0C9010196877099274091BA04DE
:103C700050E08417950709F447C069837A83FD8370
:103C8000EC8396E0929FD001939FB00D1124A45431
:103C9000BB4FFE01319601900D929A95E1F780930A
:103CA000BB040E94981B16E08091BA049091BB045B
:103CB0008917C1F1189FC001112484549B4F0E94A1
:103CC000221C882379F1E091BA041E9FF00111248F
:103CD000E454FB4F408151816281738184819581DD
:103CE0000E94881B8091BA0490E001968770992702
:103CF0008093BA04D9CF4F81588569857A858B85A1
:103D00009C850E94881BCFCF0E94511B1092BB0440
:103D10001092BA04ECEEF4E086E0DF011D928A9581
:103D2000E9F7C1CF2C960FB6F894DEBF0FBECDBF1A
:103D3000DF91CF911F910895EF92FF920F931F9300
:103D4000CF93DF938C01892B09F46CC0F12CEE2406
:103D5000E394E8012196F8018491843740F484309B
:103D600008F051C0813081F0823019F15BC0853795
:103D700009F444C0A8F19CE7980F903708F052C0AE
:103D80008F770E94311841C00E5F1F4FFE01C49112
:103D900080E28C0F883048F4C7708E2D01C0880FE8
:103DA000CA95EAF70E94FB2014C08C2F0E943A1794
:103DB0002DC00E5F1F4FFE01C49180E28C0F883032
:103DC00058F4C7708E2D01C0880FCA95EAF70E947B
:103DD00001210E94A5201AC08C2F0E94311816C004
:103DE0000E5F1F4FFE01C491CC2381F08FE99FE04D
:103DF0000197F1F700C00000C150F6CF0E5F1F4FD2
:103E0000FE01F49003C00E943A178E018F2D882383
:103E100009F49FCFEFE9FFE03197F1F700C0000010
:103E20008150F5CFDF91CF911F910F91FF90EF90CF
:103E3000089508950E94191F6093F6047093F70483
:103E40008093F8049093F9040C94391B08950C9412
:103E50001A1F0F931F930091F6041091F7042091FD
:103E6000F8043091F904602B712B822B932B1F9156
:103E70000F910C941A1F0F931F930091F604109149
:103E8000F7042091F8043091F90460237123822310
:103E900093231F910F910C941A1F0F931F9300915E
:103EA000F6041091F7042091F8043091F90460278A
:103EB0007127822793271F910F910C941A1F089541
:103EC0000C945F1F0E94601F6093F2047093F304D0
:103ED0008093F4049093F5040C94391B60E070E037
:103EE000CB010C94621F0F931F9341E050E060E000
:103EF00070E08A019B0104C0000F111F221F331FB5
:103F00008A95D2F7C901B8011F910F910C94621FD5
:103F10000F931F9341E050E060E070E004C0440F55
:103F2000551F661F771F8A95D2F78091F2049091F2
:103F3000F304A091F404B091F5048A019B01082BCD
:103F4000192B2A2B3B2BC901B8011F910F910C94FF
:103F5000621F0F931F9341E050E060E070E004C0E7
:103F6000440F551F661F771F8A95D2F740955095CD
:103F7000609570958091F2049091F304A091F404FF
:103F8000B091F5048A019B01082319232A233B23BE
:103F9000C901B8011F910F910C94621F0F931F93D9
:103FA00041E050E060E070E004C0440F551F661F20
:103FB000771F8A95D2F78091F2049091F304A09133
:103FC000F404B091F5048A019B01082719272A27D8
:103FD0003B27C901B8011F910F910C94621F0F93E9
:103FE0001F930091F2041091F3042091F404309196
:103FF000F504602B712B822B932B1F910F910C9446
:10400000621F0F931F930091F2041091F30420910B
:10401000F4043091F50460237123822393231F91CC
:104020000F910C94621F0F931F930091F204109153
:10403000F3042091F4043091F5046027712782275E
:1040400093271F910F910C94621F0895CF92DF92D6
:10405000EF92FF920F931F93CF93DF938C01C09049
:10406000F604D090F704E090F804F090F904809101
:10407000F2049091F304A091F404B091F504C82ADD
:10408000D92AEA2AFB2ACFE1D0E0D701C6010C2EBB
:1040900004C0B695A795979587950A94D2F780FFA7
:1040A00006C0B8018C2F0E94F306019721F42197D6
:1040B00060F780E001C08C2FDF91CF911F910F91AD
:1040C000FF90EF90DF90CF900895CF93DF93EC01B6
:1040D0000E942620BE010E94F306DF91CF91089531
:1040E000CB010E94652008958091FA0485958595FD
:1040F000859508958091FA048770089598E0899FC6
:1041000090011124262B2093FA040C94881F2091EF
:10411000FA04809582238093FA04982F977069F4AB
:1041200030E0482F082E000C550B2417350729F0D6
:104130008595859585950C94A91F08959091FA040D
:10414000977081E009F480E00895E0916003F091B8
:10415000610380911E058083E0916003F09161030B
:10416000908180911D05892B8083E0916003F091FF
:104170006103908180911C05892B80838091FB04D1
:10418000882381F0E0916003F09161039081892B95
:10419000808380916003909161030E948D21811141
:1041A0001092FB0480916003909161030C948F1531
:1041B00080911E05089590911E05892B80931E0500
:1041C0000895809590911E05892380931E0508957A
:1041D00010921E05089590911D05892B80931D0551
:1041E0000895809590911D05892380931D0508955C
:1041F00010921D05089590911C05892B80931C0534
:104200000895809590911C05892380931C0508953D
:1042100010921C0508958093FB0408951092FB04EE
:1042200008958091FB0408959093110480931004E5
:1042300008958295982F9C7C392F36953695282F96
:10424000237344E0249FC0011124932F982B292F1E
:104250002A7A2695892F8575880F822B08951F93BA
:10426000CF93DF931F92CDB7DEB799830E941921B8
:10427000182F9981892F0E941921212F30E0322F88
:104280002227A901482BCA010F90DF91CF911F91DE
:1042900008956DEE7EEF80E090E00E94AF3260E026
:1042A00082E090E00E949D3260E083E090E00E9416
:1042B0009D3260E084E090E00E949D3260E085E005
:1042C00090E00E949D326FEF87E090E00C949D3269
:1042D00080E090E00E94973221E08D3E9E4F09F0F1
:1042E00020E0822F089582E090E00C948F3283E0EA
:1042F00090E00C948F3284E090E00C948F32682F21
:1043000084E090E00C949D3287E090E00C948F3232
:10431000682F87E090E00C949D32FC0131969C015F
:10432000205E3F4F80E0919191118F5FE217F3077C
:10433000D1F708959C01FC0132969FEF80E04191F6
:10434000461789F09F3F19F4411101C0982F8F5FE4
:104350008E31A9F79F3F39F0F901E90FF11D97FD63
:10436000FA95628308950895FC0132968096208123
:10437000261301C010823196E817F907C1F7089596
:10438000262F2695269526952F3170F4FC01E20FF5
:10439000F11D677021E030E001C0220F6A95EAF755
:1043A0008181282B2183089580911F0580FF0CC0F7
:1043B0001F926F9382E595E09F938F930E94D104A3
:1043C0000F900F900F900F900895262F2695269509
:1043D00026952F3178F4FC01E20FF11D677021E082
:1043E00030E001C0220F6A95EAF7209581812823E9
:1043F0002183089580911F0580FF0CC01F926F9349
:1044000084E395E09F938F930E94D1040F900F90C7
:104410000F900F90089520917203222329F020918C
:104420005E0527FD0C94C0210C949A212091720303
:10443000222329F020915E0527FD0C94E5210C94A0
:10444000B421FC01319680961192E817F907E1F743
:10445000089508950C94292280916405843049F1CF
:104460001092200520E488E190E00FB6F894A8951A
:10447000809360000FBE2093600080E00E942E05B4
:104480000E942A2283B7817F846083BF83B78160C3
:1044900083BF7894889583B78E7F83BF0FB6F894D7
:1044A000A895809160008861809360001092600000
:1044B0000FBE089508950895CF930E945A220E9436
:1044C000E6090E945B22C0E08C2F0E94A80A892B7B
:1044D00029F4CF5FC430C1F780E001C081E0CF9103
:1044E000089508950C9471220E94511B0E94831517
:1044F0000E942E050C9472221F920F920FB60F92FB
:1045000011248F939F93AF93BF93809120058111C6
:1045100013C080915A0590915B05A0915C05B09104
:104520005D054196A11DB11D80935A0590935B05D1
:10453000A0935C05B0935D05BF91AF919F918F9162
:104540000F900FBE0F901F90189582E084BD93E0EE
:1045500095BD9AEF97BD80936E0008952FB7F8949C
:1045600080915A0590915B05A0915C05B0915D0525
:104570002FBF0895CF92DF92EF92FF920F931F9378
:104580002FB7F89440915A0550915B0560915C05F6
:1045900070915D052FBF6A017B01EE24FF248C0121
:1045A00020E030E0C016D106E206F30610F44150D8
:1045B00051099A01281B390BC9011F910F91FF90D6
:1045C000EF90DF90CF90089578941F920F920FB6DE
:1045D0000F9211248F939F93AF93BF9380915A05AD
:1045E00090915B05A0915C05B0915D050196A11DC0
:1045F000B11D80935A0590935B05A0935C05B09321
:104600005D05BF91AF919F918F910F900FBE0F905D
:104610001F90189581E08093E00080E28093D8009D
:104620001092C9008FE19EE40197F1F700C00000ED
:1046300087E090EBDC0180936D0590936E05A0936D
:104640006F05B09370059CE088E10FB6F894A895CB
:10465000809360000FBE90936000FFCF0E9468219E
:10466000811102C00E9449210E94732180931F057D
:104670000E947B2190E090935F0580935E050E94ED
:104680007721682F70E080E090E00C94271F8091E4
:10469000230580FF0BC06091650385E0689FB00132
:1046A000112475956795759567952BC081FF09C095
:1046B0006091650385E0689FB00111247595679549
:1046C00020C082FF07C06091650385E0689FB0014C
:1046D000112417C0909124059923D1F060916403AF
:1046E000961788F72091650385E0289F9001112493
:1046F000929FA001939F500D112470E0CA010E9467
:1047000019326038710540F46115710539F002C045
:1047100065E070E0862F08958FE7089581E00895A1
:104720008091230580FF08C06091630370E0759558
:1047300067957595679521C081FF06C060916303F9
:1047400070E07595679519C082FF04C0609163039E
:1047500070E010C0909124059923C1F0609162032C
:104760009617A0F780916303899FC001112470E020
:104770000E9419326038710528F46115710521F025
:10478000862F08958FE7089581E0089561E070E035
:10479000F4CF803F21F40E944723819504C0813FDC
:1047A00029F40E944723809327050895823F21F42E
:1047B0000E944723819504C0833F29F40E94472328
:1047C000809326050895893F19F40E94902305C01F
:1047D0008A3F31F40E9490238195809328050895A3
:1047E0008B3F21F40E949023819504C08C3F29F4D3
:1047F0000E949023809329050895843F21F480919D
:104800002505816017C0853F21F4809125058260D0
:1048100011C0863F21F48091250584600BC0873F3D
:1048200021F480912505886005C0883F31F480918E
:10483000250580618093250508958D3F21F48091A1
:10484000230581600BC08E3F21F480912305826097
:1048500005C08F3F29F48091230584608093230550
:104860000895803F39F48091270587FF6CC010922E
:10487000270569C0813F29F4809127051816BCF3EC
:1048800062C090912605823F29F497FF5CC0109288
:10489000260559C0833F19F41916CCF354C0893F3B
:1048A00041F48091280518160CF04DC0109228058F
:1048B0004AC08A3F29F48091280587FF44C0F6CF7B
:1048C0008B3F39F48091290587FF3DC0109229055F
:1048D0003AC08C3F29F4809129051816BCF333C0E7
:1048E000843F21F4809125058E7F17C0853F21F4F8
:1048F000809125058D7F11C0863F21F4809125058B
:104900008B7F0BC0873F21F480912505877F05C0F1
:10491000883F31F4809125058F7E8093250513C053
:104920008D3F21F4809123058E7F0BC08E3F21F4B3
:10493000809123058D7F05C08F3F29F48091230549
:104940008B7F809323058091260581110EC0809175
:10495000270581110AC080912805811106C0809128
:104960002905811102C010922405089580911F0528
:1049700083FF7EC087E995E00E9438048091250579
:104980001F928F9382E995E09F938F930E94D104A9
:1049900080E995E00E94380480912605282F082E92
:1049A000000C330B3F938F938DE895E09F938F938B
:1049B0000E94D1048BE895E00E943804809127057D
:1049C000282F082E000C330B3F938F9388E895E037
:1049D0009F938F930E94D10486E895E00E9438044B
:1049E00080912805282F082E000C330B3F938F93BE
:1049F00083E895E09F938F930E94D10481E895E02E
:104A00000E94380480912905282F082E000C330BB2
:104A10003F938F938EE795E09F938F930E94D104ED
:104A20008BE795E00E943804809124051F928F93B4
:104A300088E795E09F938F930E94D10486E795E0E5
:104A40000E943804809123051F928F9383E795E09D
:104A50009F938F930E94D10480E795E00E943804D1
:104A60008DB79EB74C960FB6F8949EBF0FBE8DBF04
:104A700085E295E00E94D8150E94AE22909322050F
:104A80008093210508951F93CF93DF938091210593
:104A9000909122050E94BA22AC019091240599239D
:104AA00021F02091660330E006C0209167038AE080
:104AB000289F900111244217530708F47BC080916E
:104AC0002605C0912705D09128051091290581114F
:104AD00007C0C1116BC0D11169C0111167C06AC094
:104AE0009F3F19F09F5F90932405181624F40E94AD
:104AF0004723809326058091260587FF05C00E94E5
:104B000047238195809326051C1624F40E94472391
:104B1000809327058091270587FF05C00E944723C2
:104B2000819580932705309126053323E1F020916C
:104B300027052223C1F045EB3403C0011124892F3E
:104B4000990F990B009709F481E08093260535EBC6
:104B50002303C0011124892F990F990B009709F4A1
:104B600081E0809327051D1624F40E9490238093F2
:104B700028058091280587FF05C00E949023819514
:104B800080932805111624F40E9490238093290510
:104B90008091290587FF05C00E949023819580930D
:104BA0002905DF91CF911F910C94B6249F3F09F006
:104BB00099CFA1CFDF91CF911F910895E5E2F5E064
:104BC00085E0DF011D928A95E9F710922405109285
:104BD0002305089580914D0508959FB7F89410928C
:104BE0002C059FBF90916405943009F057C09091B7
:104BF000E9009F703091EC00232F217030FD20E8F8
:104C0000922B24E02093E9002091EB0020FF43C089
:104C10002091EE0027FF3FC020912A05222321F09A
:104C20002091E80025FF37C010922A0526E0309138
:104C3000E80035FD15C030916405343061F53091E0
:104C4000EB0035FD28C0215021F481E080932A0536
:104C500022C0EFE9FFE03197F1F700C00000E7CF95
:104C60008093F1008091E80085FD0AC08091E80002
:104C700080FFFCCF8091E8008E778093E80006C02B
:104C80008FB7F89421E020932C058FBF9F709093ED
:104C9000E90080E008959F709093E9008FEF0895F8
:104CA0000F931F93CF93DF9300D01F92CDB7DEB742
:104CB0008C010E942A29823011F0843019F593E08A
:104CC00099831B830A839093E9008FEF9091E8000A
:104CD000815095FD06C095ED9A95F1F70000811180
:104CE000F5CF8091E80085FF0DC040E050E063E023
:104CF00070E0CE0101960E9447298091E8008E77EE
:104D00008093E8000F900F900F90DF91CF911F914B
:104D10000F910895CF93DF9300D01F92CDB7DEB7E8
:104D200020916405243031F522E0298380589109CF
:104D30009B838A8383E08093E9008FEF9091E80062
:104D4000815095FD06C095ED9A95F1F7000081110F
:104D5000F5CF8091E80085FF0DC040E050E063E0B2
:104D600070E0CE0101960E9447298091E8008E777D
:104D70008093E8000F900F900F90DF91CF910895EE
:104D8000CF93DF93EC010E942A29823011F0843006
:104D9000F9F482E08093E9009FEF8091E800915060
:104DA00085FD06C085ED8A95F1F700009111F5CFDC
:104DB0008091E80085FF0CC040E050E065E070E0C5
:104DC000CE010E9447298091E8008E778093E80009
:104DD000DF91CF910895CF93DF93EC010E942A29B0
:104DE000823019F0843009F047C080917203882323
:104DF000E1F080915E0587FF18C085E08093E900AF
:104E00008FEF9091E800815095FD06C095E19A954D
:104E1000F1F700008111F5CF8091E80085FF2CC0EB
:104E200040E050E060E270E017C081E08093E9006C
:104E30008FEF9091E800815095FD06C095ED9A9511
:104E4000F1F700008111F5CF8091E80085FF14C0D3
:104E500040E050E068E070E0CE010E944729809178
:104E6000E8008E778093E80080E2FE01ADE2B5E0D5
:104E700001900D928A95E1F7DF91CF9108958FED22
:104E800095E00E94380480916305811109C00E9459
:104E9000DC2A0E94392B8091E20084608093E2003A
:104EA00008958BED95E00E943804109263050895F3
:104EB00087ED95E00C94380483ED95E00C9438046C
:104EC0008FEC95E00E9438040C94742220912B05FD
:104ED0002F5F822F62E30E94F931992319F020930A
:104EE0002B05089510922B0580912C05882371F1D4
:104EF00080916405843041F58091E9008F702091A4
:104F0000EC00922F917020FD90E8892B94E0909313
:104F1000E9009091EB0090FF14C09091EE0097FF94
:104F200010C09091E80095FF03C01092F100F9CFF6
:104F30009091E80090FF05C09091E8009E779093D3
:104F4000E8008F708093E90010922C05089542E0EC
:104F500061EC81E00E94562A42E061EC82E00E940E
:104F6000562A42E061EC83E00E94562A42E261EC5C
:104F700084E00E94562A42E261EC85E00C94562AB5
:104F800080916605833009F455C030F4813071F0AA
:104F9000823009F48EC008958A3009F47AC08B30CB
:104FA00009F460C0893009F09CC020C0809165057B
:104FB000813A09F096C08091E800877F8093E800ED
:104FC0008091690590916A05892B21F460E28DE258
:104FD00095E003C060E080E090E070E00E949229DC
:104FE0008091E8008B778093E800089580916505B3
:104FF000813209F076C08091690590916A05009729
:1050000019F0049709F06DC08091E800877F8093C4
:10501000E8008091E80082FD05C08091640581115F
:10502000F8CF5FC08091F10080934D058091E8003A
:105030008B7753C080916505813A09F052C0809109
:10504000690590916A05892B09F04BC08091E800B1
:10505000877F8093E8008091E80080FFFCCF8091FB
:10506000720336C0809165058132D9F5809169055A
:1050700090916A05892BA9F58091E800877F80933C
:10508000E8000E948B2A80916705809372030C943C
:10509000511B80916505813221F58091E800877F61
:1050A0008093E8000E948B2A8091680580934E05CA
:1050B000089580916505813AA1F48091E800877F89
:1050C0008093E8008091E80080FFFCCF80914E053E
:1050D0008093F1008091E8008E778093E8000C9433
:1050E0008B2A089584B7877F84BF0FB6F894A8955C
:1050F00080916000886180936000109260000FBE14
:1051000080E880936100109261000E9410160E9456
:10511000DC2A0E94392B8091E20084608093E200B7
:105120008DEE95E20E94142178940E94C72D0E9472
:10513000141688E693E00E947E158EEB95E00E949F
:10514000380480916405853089F48AEB95E00E94EB
:1051500038040E942C2280916205882391F30E94DA
:105160005C22882371F30E943129EBCF0E944816FC
:10517000E8CF0C94BB28292F332723303105C9F001
:1051800064F42130310581F02230310509F049C045
:105190008DE890E029E036E048C02132310521F168
:1051A0002232310571F13DC082E190E026E936E01E
:1051B0003CC099278130910571F02CF4892B89F539
:1051C000E5E0F6E00DC08230910541F0039749F526
:1051D000E3EEF5E005C0E9EFF5E002C0E9EEF5E049
:1051E000849190E09F0121C065307105D0F4660F75
:1051F000771FFB01EB5FFB4F2081318189E090E05D
:1052000014C06530710568F4FB01EE0FFF1FE55017
:10521000FC4F20813181FB01EA50FC4F808190E0FE
:1052200004C080E090E020E030E0FA013183208388
:1052300008950895CF93C82F0E941929C0934F0550
:10524000CF91089580916405843011F081E0089534
:1052500082E0089580914F05811102C00C942229AB
:10526000089580E189BD82E189BD09B400FEFDCFCA
:105270008091D8008F7D8093D8008091E00082607B
:105280008093E0008091E00081FDFCCF0895CF92F3
:10529000DF92EF92FF920F931F93CF93DF93EC0176
:1052A0008B016A010E94AA2A811133C0C114D10462
:1052B00039F0F60180819181081B190BC80FD91FA5
:1052C000E12CF12C0115110519F18091E80085FD03
:1052D00016C08091E8008E778093E800C114D10455
:1052E00049F0F60180819181E80EF91EF182E08299
:1052F00085E00FC00E94AA2A882321F30AC0899161
:105300008093F10001501109FFEFEF1AFF0ADACF85
:1053100080E0DF91CF911F910F91FF90EF90DF9090
:10532000CF90089520916B0530916C0526173707B3
:1053300048F06115710539F42091E8002E7720932B
:10534000E80001C0B90140E061157105A9F12091A3
:105350006405222309F443C0253009F442C020919A
:10536000E80023FD40C02091E80022FD32C02091DA
:10537000E80020FFE9CF4091F3002091F20030E0F7
:10538000342BFC01CF016115710559F0283031052E
:1053900040F481918093F100615071092F5F3F4F7C
:1053A000F1CF41E02830310509F040E02091E800DC
:1053B0002E772093E800C8CF4111C9CF0AC0809151
:1053C0006405882361F0853061F08091E80083FDF9
:1053D0000AC08091E80082FFF2CF80E0089582E069
:1053E000089583E0089581E0089520916B05309140
:1053F0006C052617370748F06115710539F42091BF
:10540000E8002E772093E80001C0B901FC0120E0FC
:105410006115710591F180916405882309F440C0FC
:10542000853009F43FC08091E80083FD3DC0809144
:10543000E80082FD2FC08091E80080FFE9CF209135
:10544000F3008091F20090E0922B6115710559F004
:105450008830910540F424912093F10031966150F9
:1054600071090196F2CF21E0089709F020E08091C0
:10547000E8008E778093E800CBCF2111CCCF0AC013
:1054800080916405882361F0853061F08091E800A7
:1054900083FD0AC08091E80082FFF2CF80E008958A
:1054A00082E0089583E0089581E00895982F973071
:1054B00058F59093E900981739F07091EC0020911D
:1054C000ED005091F00003C0242F762F50E021FF13
:1054D00019C03091EB003E7F3093EB003091ED002E
:1054E0003D7F3093ED003091EB0031603093EB0065
:1054F0007093EC002093ED005093F0002091EE00AB
:1055000027FF07C09F5FD3CF8F708093E90081E0B2
:10551000089580E008958091650587FF11C080910E
:10552000E80082FD05C0809164058111F8CF11C0AB
:105530008091E8008B770BC080916405882349F047
:105540008091E80080FFF8CF8091E8008E7780930B
:10555000E80008952091E4003091E50095E640913F
:10556000EC00842F817040FF22C08091E80080FD14
:105570001CC080916405882391F0853091F0809162
:10558000EB0085FD10C04091E4005091E50042170A
:10559000530729F39A01915011F784E0089582E0AE
:1055A000089583E0089581E0089580E00895409192
:1055B000E80042FFDECF08950E944A2B0E94522B42
:1055C000E0EEF0E0808181608083E8EDF0E08081B2
:1055D0008F77808319BCA7EDB0E08C918E7F8C9380
:1055E00080818F7E80831092630508950F931F93AF
:1055F000CF93DF930E944A2B0E94522BC8EDD0E03C
:1056000088818F77888388818068888388818F7D6F
:10561000888319BC1092640510926005109262058F
:105620001092610500EE10E0F80180818B7F80838D
:1056300088818160888342E060E080E00E94562A91
:10564000E1EEF0E080818E7F8083E2EEF0E0808109
:1056500081608083808188608083F80180818E7F73
:105660008083888180618883DF91CF911F910F9122
:105670000895E8EDF0E080818F7E8083E7EDF0E033
:1056800080818160808384E082BF81E080936305B4
:105690000C94F62AE8EDF0E080818E7F80831092F2
:1056A000E20008951092DA001092E10008951F922E
:1056B0000F920FB60F9211242F933F934F935F9346
:1056C0006F937F938F939F93AF93BF93EF93FF93CA
:1056D0008091E10082FF0BC08091E20082FF07C051
:1056E0008091E1008B7F8093E1000E94662780918A
:1056F000DA0080FF1FC08091D80080FF1BC080911E
:10570000DA008E7F8093DA008091D90080FF0DC08F
:1057100080E189BD82E189BD09B400FEFDCF81E051
:10572000809364050E943F2705C019BC1092640550
:105730000E9451278091E10080FF19C08091E20012
:1057400080FF15C08091E2008E7F8093E2008091FF
:10575000E20080618093E2008091D80080628093B3
:10576000D80019BC85E0809364050E945C27809175
:10577000E10084FF30C08091E20084FF2CC080E112
:1057800089BD82E189BD09B400FEFDCF8091D800BA
:105790008F7D8093D8008091E1008F7E8093E1001F
:1057A0008091E2008F7E8093E2008091E200816030
:1057B0008093E20080916005882311F084E007C0A7
:1057C0008091E30087FD02C081E001C083E0809307
:1057D00064050E9460278091E10083FF29C08091C9
:1057E000E20083FF25C08091E100877F8093E10084
:1057F00082E080936405109260058091E1008E7FC5
:105800008093E1008091E2008E7F8093E20080919E
:10581000E20080618093E20042E060E080E00E946C
:10582000562A8091F00088608093F0000E945827EB
:10583000FF91EF91BF91AF919F918F917F916F9168
:105840005F914F913F912F910F900FBE0F901F903E
:1058500018951F920F920FB60F9211242F933F931A
:105860004F935F936F937F938F939F93AF93BF9368
:10587000CF93DF93EF93FF93C091E900CF708091B6
:10588000EC00D82FD17080FDD0E81092E900809113
:10589000F000877F8093F00078940E946D2C109226
:1058A000E9008091F00088608093F000CD2BCF70EC
:1058B000C093E900FF91EF91DF91CF91BF91AF913C
:1058C0009F918F917F916F915F914F913F912F9118
:1058D0000F900FBE0F901F9018951F93CF93DF93DB
:1058E000CDB7DEB7AA970FB6F894DEBF0FBECDBF17
:1058F000E5E6F5E088E08E0F9091F10091938E132C
:10590000FBCF0E94C0278091E80083FF28C18091CF
:10591000650590916605492F50E04A30510508F021
:105920001EC1FA01ED55FF4F0C942D32803821F045
:10593000823809F014C108C0809161059091620518
:10594000992389F082600FC0809169058F7087303C
:1059500008F005C18093E9008091EB0085FB882762
:1059600080F91092E9009091E800977F9093E80009
:105970008093F1001092F100D0C0282F2D7F09F004
:10598000EEC0882319F0823061F0E9C0809167058C
:10599000813009F0E4C0933009F080E08093620523
:1059A0002EC08091670581112AC0809169058F7092
:1059B0002FEF280F263008F0D2C08093E900209105
:1059C000EB0020FF1CC0933021F48091EB0080623B
:1059D00014C09091EB0090619093EB0021E030E0D7
:1059E000A90102C0440F551F8A95E2F74093EA00CF
:1059F0001092EA008091EB0088608093EB00109297
:105A0000E9008091E800877F8093E8000E948B2A5C
:105A1000A6C08111A4C0109167051F778091E30093
:105A20008078812B8093E3008091E800877F8093CA
:105A3000E8000E948B2A8091E80080FFFCCF8091D3
:105A4000E30080688093E300111102C082E001C08E
:105A500083E08093640583C08058823008F07FC063
:105A600080916705909168058C3D53E0950779F525
:105A700083E08A838AE289834FB7F894DE01139624
:105A800020E03EE051E2E32FF0E050935700E49134
:105A900020FF03C0E295EF703F5FEF708E2F90E024
:105AA000EA3010F0C79601C0C0968D939D932F5F8A
:105AB000243149F74FBF8091E800877F8093E80049
:105AC0006AE270E0CE0101960E94922915C06091B1
:105AD000690570916A05AE014F5F5F4F0E94B9285A
