:100000000C948B030C94D2030C94D2030C94D20363
:100010000C94D2030C94D2030C94D2030C94D2030C
:100020000C94D2030C94D2030C949E270C94702849
:100030000C9495210C94D2030C94D2030C94D2030B
:100040000C94D2030C94D2030C94D2030C94D203DC
:100050000C94D2030C94FD210C94D2030C94D20383
:100060000C94D2030C94D2030C94D2030C94D203BC
:100070000C94D2030C94D2030C94D2030C94D203AC
:100080000C94CE0A0C94D2030C94D2030C94D20399
:100090000C94D2030C94D2030C94D2030C94D2038C
:1000A0000C94D2030C94D2030C94D203530555053F
:1000B000570559055B055D055F0561056B056D0518
:1000C0006F05710573057505770579057B0587054E
:1000D000BA10D110EC10E411F91230126912AF12FB
:1000E0003318331865186518A318F119F119F119A7
:1000F000C318F11970197019E119F119F119EA19F8
:100100007D197D197D197D197D197D197D197D193F
:100110007D197D197D197D197D197D197D197D192F
:100120008E199C19A319AA19B4197C1A7C1A8E1A53
:100130008E1A851A8E1A8E1A8E1A7C1A7C1A8A1AB0
:100140008E1A8E1A8A1ADD280429F6290429F6291E
:1001500050297329F629C929D82907634236B79B44
:10016000D8A71A39685618AEBAAB558C1D3CB7CC17
:100170005763BD6DEDFD753EF6177231BF0000008F
:10018000803F08000000BE922449123EABAAAA2A72
:10019000BECDCCCC4C3E00000080BEABAAAAAA3E8D
:1001A00000000000BF000000803F000000000008C9
:1001B0004178D3BB4387D1133D190E3CC3BD428266
:1001C000AD2B3E68EC8276BED98FE1A93E4C80EF24
:1001D000FFBE01C4FF7F3F000000000029001400A3
:1001E0001A000800150017001C0018000C0012006F
:1001F00013000451055104001600070009000A000D
:100200000B000D000E000F0033002D00E1001D005B
:100210001B00060019000500110010003600370011
:1002200038002800E000E300E200035101512C00F7
:100230002C0002515000510052004F0029001E00B6
:100240001F0020002100220023002400250026009A
:1002500027002A002B002E008900320087000000B2
:1002600000004A004D00280029004B00E10000007A
:100270002D003400000000004C002A0049002B0033
:1002800052004E00E000E300E200000001002C00FC
:100290002C008A008800500051004F0029003A00CD
:1002A0003B003C003D003E003F004000410042005A
:1002B00043002A002B00440045000000000000001D
:1002C000000046004700480039002B00E100000014
:1002D000000000000000000000005000510052002B
:1002E0004F000000E000E300E20000008B002C0063
:1002F0002C00010035000000000000002900000073
:10030000000000000000000000000000F9000000F4
:10031000FD0000002B0000000000000000000000B5
:100320000000F400FA00F500FE000000E10000000B
:10033000000000000000000000000000F0000000CD
:10034000FF000000E000E300E200010000002C00DC
:100350002C00F200F100F300000000002900000072
:10036000000000000000000000000000000000008D
:10037000000001002B0033002D0034002E00870008
:10038000000000000000000000000000E10030005C
:10039000320089002F000000000000000000000073
:1003A00000002800E000E300E200000000002C0054
:1003B0002C000000000000000000000029003A00AE
:1003C0003B003C003D003E003F0040004100420039
:1003D00043002A00010044004500000035000000F1
:1003E00000004A004D0028002A000000E100000043
:1003F00000000000000000004C002A000000000087
:1004000000002800E000E300E200000000002C00F3
:100410002C000000E600E7006500E400000000009A
:1004200000000000000000000000000000000000CC
:1004300000000000000000000000000000000000BC
:1004400000000000000000000000000000000000AC
:10045000000000000000000000000000000000009C
:10046000000000000000000000000000000000008C
:10047000000000000000000000000000444542555C
:10048000473A20656E61626C65642E0A000A002599
:1004900030313662003A200025303258000A722F7F
:1004A00063203031323334353637383941424344B2
:1004B00045460A00617564696F20706C6179206E31
:1004C0006F746520667265713D256420766F6C3DA2
:1004D000256400617564696F2073746F70206E6F9E
:1004E000746520667265713D256400617564696F8D
:1004F0002073746F7020616C6C206E6F7465730074
:100500000A002530325820006B6579626F61726491
:100510005F7265706F72743A20000A00253032589D
:10052000006B6579626F6172645F7365745F6C659F
:10053000643A200064656C5F6B65795F6269743A48
:100540002063616E27742064656C3A202530325830
:100550000A006164645F6B65795F6269743A206365
:10056000616E2774206164643A20253032580A0095
:100570005B735D004B6579626F61726420737461B7
:1005800072742E0A005B575D005B535D005B525D29
:10059000005B445D005B435D000403300000000E1F
:1005A0000350006C0061006E0063006B0000000AE5
:1005B000034F004C004B00420000000403090409F3
:1005C000027400040100A0FA090400000103010103
:1005D00000092111010001224000070581030800E4
:1005E0000A090401000103000000092111010001B2
:1005F0002236000705820308000A090402000203EC
:1006000000000009211101000122220007058303D7
:100610002000010705030320000109040300010372
:10062000000000092111010001223900070584039F
:100630002000011201100100000008EDFE606005BD
:10064000000102030105010906A101050719E029BE
:10065000E715002501950875018102050819012992
:10066000059505750191029501750391010507191D
:100670000029F71500250195F875018102C00631A2
:10068000FF0974A1010975150026FF009520750862
:1006900081020976150026FF00952075089102C099
:1006A00005010980A10185021601002603001A81B7
:1006B000002A8300751095018100C0050C0901A175
:1006C000018503160100269C021A01002A9C02756E
:1006D0001095018100C005010906A101050719E077
:1006E00029E7150025019508750181029501750816
:1006F00081010508190129059505750191029501EA
:10070000750391010507190029FF150026FF0095C3
:100710000675088100C011241FBECFEFDAE0DEBFEE
:10072000CDBF04B603FE27C08091460590914705D2
:10073000A0914805B09149058730904BA740B04B38
:10074000D1F4109246051092470510924805109278
:10075000490514BE84B7877F84BF0FB6F894A89567
:1007600080916000886180936000109260000FBEED
:10077000E0E0F8E3099513E0A0E0B1E0E2EEFEE589
:1007800002C005900D92A43FB107D9F725E0A4EF70
:10079000B3E001C01D92A634B207E1F70E94B9246C
:1007A0000C946F2F0C940000FF93EF93E091F403EF
:1007B000F091F503309709F00995EF91FF910895B5
:1007C000FC018591803011F0EFDFFBCF0895FF270A
:1007D000E0E230E247FF0CC0419597FF09C0EDE22F
:1007E0006095709580959095611D711D811D911D7D
:1007F00027FF02C0219530E350E2AA27660F771F3A
:10080000881F991FAA1FA41710F0A41B63955A955F
:10081000A9F7AA3008F0A95FA05DAF93F395611521
:1008200071058105910541F7ED3211F4EF93F395D0
:10083000F21718F43F93F395FBCF8F91B5DFFA953C
:10084000E1F70895E991F9918591803021F08532A1
:1008500019F0AADFF9CF089520E0E89455915532B8
:10086000C1F3503311F4689455915A3348F45053FE
:1008700090F3220F022E220F220F200D250FF4CF0E
:100880000EF4219589919991533619F3533729F133
:10089000533559F1BC0188279927E8945C3621F437
:1008A0008991999168945591543639F446EF7EF0C8
:1008B00077FF0DC08FEF9FEF0AC055374AE039F040
:1008C000583540E121F0523642E009F00895FF9397
:1008D000EF937DDFEF91FF91B7CFFF93EF93FC0193
:1008E00081918030B9F360DFFBCFFF93EF9368DF36
:1008F000F1CFDF93CF93CDB7DEB72596A3DFCF91AE
:10090000DF9108956E9A769A0C94F20881E008952A
:1009100081E008950C9488040E948C0E0C9482044B
:100920000E9441130C94F40808950C9494040C94C0
:1009300095040895CF93DF930E946A1A0E940613CC
:100940000E94C721EC0140E063E070E084E391E0A5
:100950000E940F0E0E949904CE010E94D3218A3F6B
:10096000910538F48FE99FE00197F1F700C000008E
:10097000F3CF0E94CF0EDF91CF910C9423220F93DF
:100980001F93CF93DF938C01FC01C081D181CE01F5
:100990000E943F1FBE010E944506EC01B8010E9463
:1009A0008A04882309F467C1B801CE010E94830A32
:1009B000882309F460C1B801CE010E94A4138823E2
:1009C00009F459C1B801CE010E94A308882309F493
:1009D00052C1C531FCE5DF0739F50E94F11F282F10
:1009E000F80182814091500350915103882379F09E
:1009F0002A7A91E009F490E09093F603911102C0F5
:100A000069E201C065E3CA010E9424210AC0809105
:100A1000F603811102C069E201C065E3CA010E94C8
:100A20002F210E94BE1F27C1C6318CE5D80708F0D0
:100A300095C0C130ECE5DE0779F4F80182818823A6
:100A400009F419C1809103058160809303058CE747
:100A500094E00E94E0030FC1C230FCE5DF0708F418
:100A600066C0F8018281882309F469C00E94812050
:100A7000811102C00E9462200E94942090E0909315
:100A8000380580933705FE01E350FC45E231F1055E
:100A900030F4EA5AFF4F809137050C94742E809100
:100AA000370581603BC0826039C0846037C0886090
:100AB00035C0806133C0806231C080642FC08068DF
:100AC0002DC0846088608093370540E064E070E06A
:100AD00084E091E019C08E7F21C08D7F1FC08B7F85
:100AE0001DC0877F1BC08F7E19C08F7D17C08F7B75
:100AF00015C08F7713C08B7F877F8093370540E0C9
:100B000062E070E084E291E00E940F0E09C087FB72
:100B1000222720F991E0922790FB87F980933705EF
:100B2000809137050E9498200E946A1AA4C0C115BE
:100B3000DC4561F081E08093FB038093FC03C801F6
:100B4000DF91CF911F910F910C948604F80182815F
:100B5000882309F490C00E949A048DC0C63DECE53C
:100B6000DE0759F5F8018281882361F01092FC03B9
:100B70000E94C7219093FA038093F90380E20E94B8
:100B8000EF1779C08091FC03882321F080E20E9456
:100B9000F61771C08091F9039091FA030E94D32156
:100BA000883C910598F780E20E94F61788E20E943F
:100BB000991688E20E9490175EC0C73DFCE5DF07EA
:100BC00008F044C0C43D8CE5D80719F5F8018281CE
:100BD000882351F01092FB030E94C7219093F803E1
:100BE0008093F70382E0CBCF8091FB0381110FC08C
:100BF0008091F7039091F8030E94D321883C9105DE
:100C000030F486E20E94991686E20E94901782E0F4
:100C1000BECFC53DDC4509F08DCFF8018281811141
:100C2000A5CF8091FC038111B1CF8091F903909100
:100C3000FA030E94D321883C910508F0A7CF87E2F0
:100C40000E94991687E20E949017A0CFC93DFCE54B
:100C5000DF0731F4F8018281882369F080E009C060
:100C6000CA3DDC4509F066CFF8018281882319F07E
:100C700082E00E94612580E0DF91CF911F910F916A
:100C8000089580E090E0089508959CE0799FF00138
:100C9000112490E3899FE00DF11D1124E60FF11D51
:100CA000EE0FFF1FE452FE4F859194910895880F37
:100CB000991FFC01E357FB4F859194910895CF93C1
:100CC000DF930E9445060E940208EC01811520E591
:100CD0009207F0F5811530E4930708F018C1883EBB
:100CE000910500F5803E910508F088C1883A91058C
:100CF00070F4853A910508F09AC08130910509F4A5
:100D00007DC108F434C1049708F078C130C18D3B2F
:100D1000910508F497C0803C910508F428C1805CD7
:100D20009109E7C08115904258F4C11581E0D807B8
:100D300008F064C1C03FD10508F419C1D0655EC197
:100D4000C11590E3D90708F0D8C0CE019F70D1C07B
:100D5000811525E5920708F043C0811534E5930716
:100D600008F0ECC0811542E5940708F5C11581E54E
:100D7000D80708F0CFC02C2F237081E090E002C08C
:100D8000880F991F2A95E2F79C689E0174E03695BA
:100D900027957A95E1F72370922BCF70C695C6956B
:100DA00030E2C39FE0011124C82BD92B27C18695BF
:100DB00086959E0123703327C115D34508F0AFC037
:100DC00040E2849FC0011124C1E0D0E002C0CC0FFA
:100DD000DD1F2A95E2F78C2B9D2BEC01DC680EC100
:100DE000811529E5920778F4811538E5930708F015
:100DF000AAC08115964508F0BAC0CF71DD27DC2F57
:100E0000CC27D062FBC0C1158AE5D80708F4A0C082
:100E1000CE0190568115904208F0A9C08D2F8F7198
:100E20000E947F08DD27D0628F71D82BE7C0853AFA
:100E3000910509F49FC0863A910509F09EC0C2E869
:100E4000D0E4DCC0883A910509F49AC0893A91054A
:100E500009F499C08A3A910509F498C08B3A910532
:100E600009F497C08C3A910509F496C08B3B910523
:100E700009F495C08C3B910509F494C08D3A910515
:100E800009F493C0803B910509F492C08E3A910514
:100E900009F491C08F3A910509F490C0813B910506
:100EA00009F48FC0823B910509F48EC0833B910504
:100EB00009F48DC0843B910509F48CC0853B9105F4
:100EC00009F48BC0863B910509F48AC0873B9105E4
:100ED00009F489C0883B910509F488C0893B9105D4
:100EE00009F487C08A3B910509F486C0C0E0D4E4C8
:100EF00085C00E945706EC0181C0CE019927D3FF1F
:100F000003C0EC01D86C7AC0EC01D06C77C0DF7004
:100F1000D06A74C0DC2FCC27C16FD06A6FC040E2AA
:100F2000849FC0011124C1E0D0E002C0CC0FDD1FBE
:100F30002A95E2F7C82BD92BDA6860C0D82FCC27C6
:100F4000C46FD06A5BC0D82FCC27C06FD06A56C0A0
:100F50008C2F8F70806E90E0906A24E0D695C795B4
:100F60002A95E1F7CF709C013C2BE90147C0C0E016
:100F7000D0E044C0C1E8D0E441C0C3E8D0E43EC002
:100F8000C2EED4E43BC0C9EED4E438C0CAEED4E427
:100F900035C0C5EBD4E432C0C6EBD4E42FC0C3EBFC
:100FA000D4E42CC0C4EBD4E429C0C7EBD4E426C0FD
:100FB000CCECD4E423C0CDECD4E420C0C3E8D5E429
:100FC0001DC0CAE8D5E41AC0C2E9D5E417C0C4E917
:100FD000D5E414C0C1E2D6E411C0C3E2D6E40EC029
:100FE000C4E2D6E40BC0C5E2D6E408C0C6E2D6E44B
:100FF00005C0C7E2D6E402C0CAE2D6E4CE01DF9162
:10100000CF9108958238910549F1B0F4813391056B
:1010100009F458C048F48932910509F44EC08A3267
:10102000910509F454C008958533910509F440C031
:101030008933910599F00895833E910529F138F49B
:10104000803E910591F0823E9105A1F00895863E83
:101050009105F9F0873E910531F10895209137050A
:1010600020FD3AC021FD38C008958091370580FDEC
:1010700035C032C08091370582FF32C0809137057C
:1010800084FD30C083EE39C08091370582FD28C0D1
:10109000F5CF8091370583FF27C08091370584FD08
:1010A00021C087EE2AC08091370583FD1DC0F5CF92
:1010B0008091370585FD1AC01BC08091370585FDDD
:1010C00017C014C08091370586FD14C015C08091EB
:1010D000370586FD11C00EC080EE0FC089E30DC03C
:1010E00082EE0BC080E009C086EE07C089E205C031
:1010F00085E303C08AE201C081E390E00895909106
:10110000370592FF0DC0282F2871283019F4877FEA
:10111000846006C0282F2471243011F48B7F8860EE
:1011200093FF0DC0282F2871283119F4877E846120
:1011300006C0282F2471243111F48B7E886194FD20
:10114000877E089508950F931F93CF93FB0122810B
:10115000211102C0C1E041C08C01C0910A04C1113B
:1011600025C086319C45B1F70E94A20881E080939A
:101170000A040E94C72190930904809308041092E6
:10118000FD031092FF031092FE03109201041092CF
:1011900000041092030410920204109205041092AD
:1011A0000404109207041092060417C080910804EA
:1011B000909109040E94D3218C32914058F690916D
:1011C000FD03E92FF0E0EE0FFF1FE250FC4F11830B
:1011D00000839F5F9093FD03C0E08C2FCF911F9100
:1011E0000F910895089508950C94F308ACE8B3E0C6
:1011F00041E050E024E02A0F8D91E82FE295EF7056
:10120000F0E031A18F70BA0102C0660F771F8A9596
:10121000E2F7CB01962F9095932391A392A1892B6E
:1012200082A32A13E9CFA0E8B3E041E050E02CE02C
:101230002A0F8D91E82FE295EF70F0E031A18F70C9
:10124000BA0102C0660F771F8A95E2F7CB01962F8D
:101250009095932391A392A1892B82A32A13E9CF7E
:10126000109214041092130410920C0410920B04A8
:10127000109216041092150410920E0410920D0490
:1012800010921804109217041092100410920F0478
:1012900010921A0410921904109212041092110460
:1012A0000C948C044F925F927F928F929F92AF9298
:1012B000BF92CF92DF92EF92FF920F931F93CF9343
:1012C000DF932CE8E22E23E0F22ECBE0D4E001E025
:1012D00010E0992493946E01A880B9801982188235
:1012E000D7018D917D01E82FE295EF70F0E021A10B
:1012F0008F70A80102C0440F551F8A95E2F7CA01FA
:10130000242B21A322A1842E8094282122A350EAF9
:101310005A95F1F790E8492E93E0592E20E030E0FD
:10132000D2017D912D01472F42954F7050E0DA0197
:1013300090967C90488159817F70D80102C0AA0F95
:10134000BB1F7A95E2F7BD01672141F4B801022E77
:1013500002C0660F771F0A94E2F702C060E070E0F7
:10136000462B572B598348832F5F3F4F2C30310535
:10137000B9F691A1892281A292A1892B82A32296FA
:10138000F60180819181A816B90641F090921B0464
:101390000E94C72190931D0480931C04F4E0C33184
:1013A000DF0709F098CF80911B04882351F18091C9
:1013B0001C0490911D040E94D321069710F1809186
:1013C0000B0490910C049093140480931304809167
:1013D0000D0490910E04909316048093150480914F
:1013E0000F04909110049093180480931704809137
:1013F00011049091120490931A048093190410928E
:101400001B040E94900481E0DF91CF911F910F9106
:10141000FF90EF90DF90CF90BF90AF909F908F9014
:101420007F905F904F900895E82FF0E0EE0FFF1F40
:10143000ED5EFB4F808191810895CF92DF92EF9214
:10144000FF920F931F93CF93DF938DE994E00E9457
:10145000E00383E1E82E84E0F82EC0E0D0E098E9D4
:10146000C92E94E0D92E0FE814E0DF93CF93DF92DA
:10147000CF920E94790485E994E00E94E003F7018D
:10148000819191917F010E9448209F938F931F9398
:101490000F930E9479048DE894E00E94E003219666
:1014A0008DB79EB708960FB6F8949EBF0FBE8DBF3E
:1014B000C430D105D1F6DF91CF911F910F91FF90EC
:1014C000EF90DF90CF900895682F70E06554710918
:1014D000072E000C880B990B0E94452B20E030E072
:1014E00040E451E40E949B2A9B01AC0160E070E063
:1014F00080E090E40E94C92C20E030E04CED53E401
:101500000E945C2C0895FB018D312CE5920731F48B
:1015100082818823A1F10E9449102FC08E312CE5D1
:10152000920731F48281882351F10E94591025C01D
:101530008F312CE5920741F48281882301F10E94CA
:1015400045108111F2CFE7CF88322CE5920731F4B4
:1015500082818823A1F00E94721008C089329C45C4
:1015600071F48281882359F00E947B1040E064E08E
:1015700070E08CE491E00E940F0E80E0089581E01D
:1015800008950E94640A4FE050E00C94CC0F0E9432
:10159000640A0C94160F0C94CF0E08951F920F92AC
:1015A0000FB60F9211244F925F926F927F928F929B
:1015B0009F92AF92BF92CF92DF92EF92FF922F93C2
:1015C0003F934F935F936F937F938F939F93AF93CB
:1015D000BF93CF93DF93EF93FF93809131048823E0
:1015E00009F4ABC1C0917304D09174041C161D069C
:1015F0000CF0A3C140902104509022046090230479
:101600007090240420E030E0A901C301B2010E94DF
:10161000572C18160CF065C0C130D10509F452C022
:101620008091710490917204BE010E94602E7C0131
:1016300090937204809371048090330490903404EA
:10164000A0903504B090360420E030E040E85FE33D
:10165000C501B4010E942A2A6093330470933404B4
:101660008093350490933604F701EE0FFF1FEE0FC1
:10167000FF1FE95BFB4FA3019201608171818281B1
:1016800093810E949B2A20E030E040E05EE30E94CC
:101690005C2C9B01AC01C501B4010E94572C1816AB
:1016A0008CF4C7010196BE010E94602E90937204D3
:1016B0008093710410923304109234041092350414
:1016C00010923604E0917104F0917204EE0FFF1F46
:1016D000EE0FFF1FE95BFB4F608171818281938177
:1016E000E0C08091A4012197882309F4BFC0C09075
:1016F0006D04D0906E04E0906F04F090700420E0D0
:1017000030E0A901C701B6010E94962A882309F496
:10171000A2C0FE01EE0FFF1FEE0FFF1FE95BFB4FA4
:1017200080809180A280B380A5019401C701B60199
:101730000E94962A87FF31C0A501940160E070E005
:101740008CED93EC0E949B2A20E030E040E451E4D1
:101750000E949B2A20E030E040E05FE30E945C2C86
:101760009B01AC0160E070E080E090E40E94C92C35
:101770009B01AC01C501B4010E945C2C9B01AC0132
:10178000C701B6010E94962A87FF07C0A7019601EC
:1017900060E070E08CED93E439C0A5019401C701CD
:1017A000B6010E94572C18160CF055C0A5019401E3
:1017B00060E070E08CED93E40E949B2A20E030E032
:1017C00040E451E40E949B2A20E030E040E05FE3E7
:1017D0000E945C2C9B01AC0160E070E080E090E432
:1017E0000E94C92C9B01AC01C501B4010E945C2C74
:1017F0009B01AC01C701B6010E94572C18165CF57D
:10180000A701960160E070E08CED93EC0E949B2AAA
:1018100020E030E040E451E40E949B2A20E030E0E8
:1018200040E05FE30E945C2C9B01AC0160E070E053
:1018300080E090E40E94C92C9B01AC01C701B60175
:101840000E945C2C60936D0470936E0480936F040F
:10185000909370041EC0CC0FDD1FCC0FDD1FC95B41
:10186000DB4F88819981AA81BB810BC0FE01EE0FFD
:10187000FF1FEE0FFF1FE95BFB4F80819181A2816B
:10188000B38180936D0490936E04A0936F04B09322
:10189000700460916D0470916E0480916F0490915A
:1018A000700420911E0430911F042F3F4FEF340726
:1018B00031F02F5F3F4F30931F0420931E040E948E
:1018C00084106B017C0120E034E244EF51E40E947B
:1018D000962A87FF08C086EFC82E88E2D82E84EFAC
:1018E000E82E81E4F82E20E030E040E051E4C7012A
:1018F000B6010E945C2C9B01AC0160E074E284E7BD
:101900009BE40E949B2A6B017C010E94142B709324
:101910009700609396002091A5013091A601409117
:10192000A7015091A801C701B6010E945C2C0E943A
:10193000142B70939900609398008091320488234F
:1019400009F446C1C0902D04D0902E04E0902F04DD
:10195000F090300420E030E0A901C701B6010E94F8
:10196000572C1816D4F580911E0490911F048F3FB8
:101970002FEF920729F0019690931F0480931E0485
:10198000C701B6010E94841020E030E040E051E43D
:101990000E945C2C9B01AC0160E074E284E79BE454
:1019A0000E949B2A6B017C010E94142B709397006C
:1019B000609396002091A5013091A6014091A70166
:1019C0005091A801C701B6010E945C2C0E94142B03
:1019D000709399006093980008C01092970010923D
:1019E00096001092990010929800609127047091CF
:1019F00028046F5F7F4F7093280460932704209121
:101A000096003091970080E090E0232B71F12091B7
:101A1000260421112AC0C0919600D09197000E94FF
:101A2000432B6B017C01BE0180E090E00E94432BC0
:101A30009B01AC016091290470912A0480912B04D0
:101A400090912C040E949B2A20E03FEF4FE757E43F
:101A50000E945C2C20E030E040E85FE30E94292AED
:101A60009B01AC01C701B6010AC00E94432B209123
:101A7000290430912A0440912B0450912C040E9497
:101A8000572C87FDA5C0809125048F5F8093250486
:101A900090E020912B0530912C0582179307A0F040
:101AA00080913205882319F0109225040DC0809191
:101AB00071008D7F80937100809190008F7380936F
:101AC0009000109232048CC09091260480912504DD
:101AD000E0912D05F0912E05911137C091E0909382
:101AE000260481508093250448E0849FE00DF11D79
:101AF0001124C080D180E280F38020853185428529
:101B00005385C701B6010E94962A811109C010921F
:101B10002D0410922E0410922F041092300408C04D
:101B2000C0922D04D0922E04E0922F04F092300443
:101B300080E090E0A0E8BFE38093290490932A041A
:101B4000A0932B04B0932C043FC010922604109253
:101B50001F0410921E0498E0899FE00DF11D1124CE
:101B600080819181A281B38180932D0490932E0472
:101B7000A0932F04B093300420E030E040E85EE30F
:101B800064817581868197810E945C2C6B017C0148
:101B90008091A901682F70E080E090E00E94432BC3
:101BA00020E030E048EC52E40E949B2A9B01AC010B
:101BB000C701B6010E945C2C6093290470932A042B
:101BC00080932B0490932C041092280410922704E5
:101BD00080912F0580FD04C01092320410923104D0
:101BE000FF91EF91DF91CF91BF91AF919F918F9135
:101BF0007F916F915F914F913F912F91FF90EF9067
:101C0000DF90CF90BF90AF909F908F907F906F901C
:101C10005F904F900F900FBE0F901F901895CF922E
:101C2000DF92EF92FF92CF93DF93EC016B01F42EE2
:101C300080912004811102C00E948C0E80912F059A
:101C400080FF63C0809171008D7F809371008091CF
:101C5000310481110E94CF0E81E080933204D09331
:101C60002E05C0932D05D0922C05C0922B05F09225
:101C700032051092330410923404109235041092FD
:101C800036041092250488819981AA81BB818093B2
:101C90002D0490932E04A0932F04B093300420E0E1
:101CA00030E040E85EE36C817D818E819F810E94FF
:101CB0005C2C6B017C018091A901682F70E080E0B1
:101CC00090E00E94432B20E030E048EC52E40E9478
:101CD0009B2A9B01AC01C701B6010E945C2C60935A
:101CE000290470932A0480932B0490932C0410925F
:101CF0002804109227048091710082608093710003
:101D000080919000806880939000DF91CF91FF9048
:101D1000EF90DF90CF9008950E948120811102C042
:101D20000E9462200E949D2080932F0580912004B4
:101D3000811129C03E9A809171008D7F809371003E
:101D400082E0809390008AE18093910081EC91E1A0
:101D5000909397008093960023EA3BE04EE855E489
:101D60006091A5017091A6018091A7019091A801B1
:101D70000E945C2C0E94142B709399006093980031
:101D800081E08093200480912F0580FF07C040E010
:101D900063E070E08CE891E00C940F0E0895809160
:101DA000030580FF08C08BEE94E09F938F930E9401
:101DB00079040F900F9080912004811102C00E943D
:101DC0008C0E1092740410927304809171008D7FB8
:101DD00080937100809190008F7380939000109297
:101DE00032041092310410926D0410926E0410921D
:101DF0006F04109270041092690410926A04109299
:101E00006B0410926C041092680410926704E7E46B
:101E1000F4E0A7E3B4E011921192119211921D9295
:101E20001D9284E0E736F807B1F70895CF92DF926C
:101E3000EF92FF920F931F93CF93DF936B017C017F
:101E40008091030580FF10C0C701B6010E940D2BD1
:101E50007F936F9383ED94E09F938F930E94790417
:101E60000F900F900F900F9080913104882309F408
:101E70008AC080912004811102C00E948C0E07E666
:101E800014E0C7E0D0E0A7019601F8019291829199
:101E9000729162918F010E94962A811131C0FE01D8
:101EA000EE0FFF1FEE0FFF1FE95BFB4F1082118249
:101EB00012821382DE01AA0FBB1FA95CBB4F1196D1
:101EC0001C921E92C730D105E9F0219644815581BC
:101ED0006681778140835183628373831482158284
:101EE0001682178212968D919C91139711969C934E
:101EF0008E9313961C921E92129734961296E2CFEE
:101F0000219708F68091730490917404019797FDCE
:101F100005C0909374048093730404C010927404F9
:101F20001092730480917304909174042091710451
:101F3000309172042817390724F01092720410921D
:101F40007104892B01F5809171008D7F8093710060
:101F5000809190008F738093900010926D04109286
:101F60006E0410926F041092700410926904109223
:101F70006A0410926B0410926C0410926804109220
:101F8000670410923104DF91CF911F910F91FF9060
:101F9000EF90DF90CF900895CF92DF92EF92FF9273
:101FA000CF93DF936B017C01D42FC52F8091030564
:101FB00080FF14C05F934F93C701B6010E940D2BA1
:101FC0007F936F9384EB94E09F938F930E947904A7
:101FD0000F900F900F900F900F900F908091200412
:101FE000811102C00E948C0E80912F0580FF46C097
:101FF000809173049091740408970CF03FC0809115
:1020000071008D7F809371008091320481110E9454
:10201000CF0E81E08093310410921F0410921E04B1
:1020200020E030E0A901C701B6010E94572C181624
:10203000DCF48091730490917404FC01EE0FFF1F97
:10204000EE0FFF1FE95BFB4FC082D182E282F38279
:10205000FC01EE0FFF1FE95CFB4FD083C1830196AB
:1020600090937404809373048091710082608093D4
:10207000710080919000806880939000DF91CF91F3
:10208000FF90EF90DF90CF90089580912F058170A1
:10209000089580912F05816080932F050E94A120D3
:1020A0000E94CD0A40E062E070E08CE791E00C9481
:1020B0000F0E40E062E070E08CE691E00E940F0EAF
:1020C0002FEF81EE94E0215080409040E1F700C076
:1020D00000000E94CF0E80912F058E7F80932F05E8
:1020E0000C94A1208091750490E001968770992747
:1020F0008093750408958091750490E00796877029
:1021000099278093750408958F929F92AF92BF9202
:10211000CF92DF92EF92FF92CF93DF936B017C011E
:10212000C0911E04D0911F04BE0180E090E00E9487
:10213000432B4B015C01A701960160E070E08CE548
:1021400094E40E949B2A9B01AC01C501B4010E944A
:102150005C2C0E94142B9B01E09175048E2E912C17
:1021600048E08416910408F044C2F401E859FF4F96
:102170000C94742E1092A40180E090E0A0E0BFE3E4
:102180008093A5019093A601A093A701B093A80105
:10219000109221041092220410922304109224041D
:1021A00028C21092A40110922104109222041092CD
:1021B0002304109224046431710528F46A307105F7
:1021C00008F449C104C0693C710508F044C180E0CD
:1021D00090E0A0E8BEE373C01092A4011092210425
:1021E00010922204109223041092240420E030E084
:1021F00040EA52E4C701B6010E94962A87FDF9C160
:1022000020E030E040E253E4C701B6010E94962A84
:1022100087FF2FC00E94C62E68E270E00E94602EE9
:10222000BC01645C7F4F072E000C880B990B0E9449
:10223000452B6B017C0180911E0490911F048B3013
:102240009105C8F18531910508F080C165E170E024
:10225000681B790B80E090E00E94432B20E030E087
:1022600040E05FE30E945C2C20E030E040E251E47B
:10227000A8C020E030E040EA53E4C701B6010E9464
:10228000962A87FF2CC00E94C62E68EE73E00E943B
:10229000602EBC0168517C4F072E000C880B990BF7
:1022A0000E94452B6B017C0180911E0490911F04BC
:1022B0008630910568F480E090E0A0E0BFE3809371
:1022C000A5019093A601A093A701B093A80191C185
:1022D0008531910508F03AC165E170E062C020E007
:1022E00030E040E254E4C701B6010E94962A87FF1D
:1022F0002FC00E94C62E60ED77E00E94602EBC01C8
:102300006854744F072E000C880B990B0E94452BC4
:102310006B017C0180911E0490911F048031910516
:1023200050F28531910508F011C165E170E0681B3C
:10233000790B80E090E00E94432B20E030E040E009
:102340005FE30E945C2C20E030E040EA50E439C0BA
:1023500020E030E040EA54E4C701B6010E94962A2A
:1023600087FF47C10E94C62E60ED77E00E94602E75
:10237000BC016854744F072E000C880B990B0E9407
:10238000452B6B017C0180911E0490911F048432C7
:10239000910508F490CF8333910508F0D7C063E32B
:1023A00070E0681B790B80E090E00E94432B20E0F6
:1023B00030E040E05FE30E945C2C20E030E040E74A
:1023C00051E40E949B2A7CC041E04093A4011092FA
:1023D00021041092220410922304109224046431E8
:1023E000710540F46A30710560F520E030E040E8A6
:1023F0005EE32BC0693C710508F0A8C080E090E066
:102400000E94432B20E030E040EA51E40E94292A58
:1024100020E030E044E353E40E949B2A9B01AC019E
:102420000E945C2C20E030E040E05EE30E945C2CE7
:102430009B01AC0160E070E080E09EE30E94292AED
:102440003FC020E030E040E05FE3C701B6010E94FA
:102450005C2C6B017C0180E090E0A0E0BEE32FCF1C
:1024600021E02093A40110922104109222041092E2
:102470002304109224044AE0469F9001479F300DA8
:102480001124C90168EB7BE00E944C2EBC016C5DFD
:10249000754077FF03C0719561957109072E000C97
:1024A000880B990B0E94452B2EE333EC4EE259E347
:1024B0000E945C2C20E030E040EC5EE30E942A2A7F
:1024C0006093A5017093A6018093A7019093A80142
:1024D00090C081E08093A401109221041092220404
:1024E0001092230410922404CE0183709927892B23
:1024F000E1F0BE016170772780E090E00E94432BFD
:1025000020E030E040E05EE30E945C2C20E030E020
:1025100040E45FE30E942A2A6093A5017093A6011C
:102520008093A7019093A8010CC080E090E0A0E008
:10253000BFE38093A5019093A601A093A701B09358
:10254000A801C770DD27CD2B09F053C01092A5015B
:102550001092A6011092A7011092A8014AC041E072
:102560004093A4011092210410922204109223049B
:1025700010922404812C912CA12C9FE3B92E8092DF
:10258000A5019092A601A092A701B092A8012739B7
:10259000310578F180E090E00E94432B20E030E0AC
:1025A00047E153E40E94292A20E030E04AE754E45E
:1025B0000E949B2A20E030E048E452E40E945C2C18
:1025C00020E030E040EA51E40E948B2B0E940D2B6A
:1025D000660F771F660F771FFB01E057FC4F2081C6
:1025E000318142815381C701B6010E945C2C6B018D
:1025F0007C01C701B601DF91CF91FF90EF90DF9092
:10260000CF90BF90AF909F908F90089580918E044F
:1026100081110C94CB0A089521E08F3F910508F0B9
:1026200020E0822F08950C940C130E940613109240
:102630008E0440E068E070E08AE292E00C940F0EB5
:1026400010928D0440E068E070E08AEA91E00C941A
:102650000F0E0E94061320914C0330E02F5F3F4F76
:102660002370332720934C0348E2429FC001439FCD
:10267000900D112440E065E070E086559D4F0C946C
:102680000F0ECF9380918A04882309F441C0809172
:10269000760490917704009781F40E94C72190936B
:1026A0007704809376042091780430E02115310579
:1026B00071F48091790490E00BC00E94D3212091A5
:1026C0004A0330914B032817390738F321C0C90159
:1026D0000197FC01E658FB4F8081F901E658FB4F5A
:1026E000C08190918E0491110E94C70A80918E043E
:1026F000882319F08C2F0E94C10A8091780490E001
:1027000001966091790470E00E94602E80937804B5
:10271000CF910895089581E080938E0440E068E0B1
:1027200070E08AE692E00E940F0E0C948A130895DE
:1027300081E080938D0440E068E070E08AEE91E0F3
:102740000E940F0E0C949713EF92FF921F93CF935A
:10275000DF93CDB7DEB7A3970FB6F894DEBF0FBEF9
:10276000CDBF7C0184322CE5920741F4FB018281CC
:10277000882309F448C00E948B13A2C08532FCE56F
:102780009F0739F4FB0182818823E9F10E94151328
:1027900097C08632FCE59F0749F4FB0182818823BC
:1027A00091F180918E048111F1CFE5CF8A32FCE561
:1027B0009F0739F4FB018281882329F10E94981335
:1027C0007FC08B32FCE59F0739F4FB0182818823AF
:1027D000D1F00E94201374C08C32FCE59F0749F4AD
:1027E000FB018281882379F080918D048111F1CFE2
:1027F000E5CF87329C4539F4FB018281882319F0AB
:102800000E9429135DC040918E04411105C0809142
:102810008D04882309F4D1C0FB015281552309F4AA
:1028200051C0F0EEEF16F10461F40E94061381E04E
:1028300080938C0410928B0410928A041092790475
:102840003FC022EEE216F10471F40E94061380915B
:102850008C04882319F081E080938B0410928C04FF
:1028600010928A042DC033EEE316F10491F48091A6
:102870008B04882339F10E94061310928C0481E0A6
:1028800080938A0410927804109277041092760450
:1028900017C082E5E816F10431F480914A03909163
:1028A0004B030A9709C0E1E5EE16F10459F4809153
:1028B0004A0390914B030A9690934B0380934A03EB
:1028C00080E07CC080914C0310914F03811108C0BF
:1028D000FB012081120F135080914D03180F43C04C
:1028E000813091F4FB012081120F105E20914D0385
:1028F000120F818124E030E0281B3109822F880FDC
:10290000880F280F120F38C0823071F4FB0120812C
:10291000120F105E90914D03190F218184E090E019
:10292000821B9109F7E025C0833031F583E2EDE5A4
:10293000F3E0DE01119601900D928A95E1F71350B4
:10294000FB01808121E030E02C0F3D1F280F311D5D
:10295000C90120914D0330914E03FC01E20FF31F9A
:102960002081120FFB01218184E090E0821B9109FC
:10297000FCE08F9F100D11245523A1F0442319F082
:10298000812F0E94C10A80918C04882381F080915C
:102990007904E82FF0E0E658FB4F10838F5F8093B7
:1029A000790405C0442319F0812F0E94C70AC7018A
:1029B0000E94131391E0892701C081E0A3960FB60E
:1029C000F894DEBF0FBECDBFDF91CF911F91FF9076
:1029D000EF90089590939404809393040895E09168
:1029E0009304F0919404309721F00190F081E02D50
:1029F000099480E00895EF92FF920F931F93CF9375
:102A0000DF93E0919304F09194043097B1F18C013D
:102A10000280F381E02D09958091030582FF2DC08E
:102A200080FF04C088E095E00E94E003E80110E226
:102A300082E0E82E85E0F82E8091030580FF0BC030
:102A400088811F928F93FF92EF920E9479040F90DA
:102A50000F900F900F90115021961111EDCF809192
:102A6000030580FF0AC080E095E0DF91CF911F91C0
:102A70000F91FF90EF900C94E003DF91CF911F91A5
:102A80000F91FF90EF90089520919104309192045E
:102A90008217930771F09093920480939104E091D0
:102AA0009304F0919404309721F00680F781E02D93
:102AB0000994089520918F04309190048217930710
:102AC00071F09093900480938F04E0919304F091BF
:102AD0009404309721F00084F185E02D0994089545
:102AE00008950C94701581E008950E94BE2185B769
:102AF000806885BF85B7806885BF0E94F6080C9402
:102B00004722CF93C82F8091030582FF1EC080FF0C
:102B100004C081E295E00E94E0038091030580FFFC
:102B20000CC01F92CF938CE195E09F938F930E94EE
:102B300079040F900F900F900F908091030580FF04
:102B400004C08AE195E00E94E0038C2FCF910C94A1
:102B500097044F925F927F928F929F92AF92BF9213
:102B6000CF92DF92EF92FF920F931F93CF93DF9359
:102B7000CDB7DEB72A970FB6F894DEBF0FBECDBF34
:102B80000E9452090E947315811111C08FEF898331
:102B90008A831B820E94C7218160782F9D838C834A
:102BA00049815A816B818D810E94651657C096E9D3
:102BB000C92E94E0D92E00E010E0AA24A394B12CF1
:102BC000702E802F0E94140A4C01F6014190519002
:102BD0006F01482659264114510431F40F5F1F4FED
:102BE0000430110569F7D2CF8091030581FD0E9461
:102BF0001D0A20E030E07501022E02C0EE0CFF1C21
:102C00000A94E2F7C70184219521892B09F12E83CB
:102C10007F828E209F2091E0892809F490E0988798
:102C20000E94C7218160782F9A8789874E815F81B2
:102C300068858A850E946516000F111FF801EA5603
:102C4000FB4F80819181E826F926F182E08206C05F
:102C50002F5F3F4F2C30310571F6C0CF1091950496
:102C60000E94EF141817D9F00E94EF148093950476
:102C70002A960FB6F894DEBF0FBECDBFDF91CF917D
:102C80001F910F91FF90EF90DF90CF90BF90AF908A
:102C90009F908F907F905F904F900C9481152A9613
:102CA0000FB6F894DEBF0FBECDBFDF91CF911F915D
:102CB0000F91FF90EF90DF90CF90BF90AF909F90DB
:102CC0008F907F905F904F900895CF93DF93CDB713
:102CD000DEB72B970FB6F894DEBF0FBECDBF4F8384
:102CE000588769877A878B87DE01119686E0FD0118
:102CF00011928A95E9F785E0FE01379601900D92D1
:102D00008A95E1F749815A816B817C818D819E8111
:102D10000E94111D2B960FB6F894DEBF0FBECDBFDB
:102D2000DF91CF910895FC01808191810E947E1FE7
:102D30000895882309F4F3C0682F8238C1F40E94F3
:102D4000EF1481FDECC069E3809150039091510331
:102D50000E9424210E94BE1F2FEF81EE94E021509B
:102D600080409040E1F700C0000069E319C083385B
:102D7000F9F40E94EF1480FDD2C063E58091500306
:102D8000909151030E9424210E94BE1F2FEF81EEDB
:102D900094E0215080409040E1F700C0000063E5DE
:102DA00080915003909151030E942F210C94BE1FDB
:102DB0008438C1F40E94EF1482FDB1C067E48091B1
:102DC0005003909151030E9424210E94BE1F2FEFB7
:102DD00081EE94E0215080409040E1F700C0000077
:102DE00067E4DECF8CEF860F813A38F48091500390
:102DF000909151030E942421D9CF80E2860F883020
:102E000048F4677081E001C0880F6A95EAF70E9474
:102E1000F41FCCCF8BE5860F833070F4653A29F030
:102E2000663A31F083E890E005C081E890E002C0A6
:102E300082E890E00C94441588E5860F853108F00F
:102E40006EC0683A61F1693A69F16A3A71F16B3AB8
:102E500079F16C3A81F16B3B89F16C3B91F16D3A00
:102E600099F1603BA1F16E3AA9F16F3AB1F1613B82
:102E7000B9F1623BC1F1633BC9F1643BD1F1653B00
:102E8000D9F1663BE1F1673BE9F1683BF1F1693B60
:102E9000F9F16A3B09F43FC080E090E03EC082EE69
:102EA00090E03BC089EE90E038C08AEE90E035C0FB
:102EB00085EB90E032C086EB90E02FC083EB90E092
:102EC0002CC084EB90E029C087EB90E026C08CEC0E
:102ED00090E023C08DEC90E020C083E891E01DC01D
:102EE0008AE891E01AC082E991E017C084E991E094
:102EF00014C081E292E011C083E292E00EC084E24D
:102F000092E00BC085E292E008C086E292E005C044
:102F100087E292E002C08AE292E00C945A1508958A
:102F2000882309F45BC0682F823879F40E94EF147B
:102F300081FF54C069E380915003909151030E9436
:102F400024210E94BE1F69E310C08338B1F40E949F
:102F5000EF1480FF43C063E58091500390915103CB
:102F60000E9424210E94BE1F63E58091500390912E
:102F700051030E942F210C94BE1F843879F40E94C3
:102F8000EF1482FF2BC067E48091500390915103AE
:102F90000E9424210E94BE1F67E4E7CF8CEF860FBA
:102FA000813A18F380E2860F883048F4677081E038
:102FB00001C0880F6A95EAF70E94FA1FDCCF8BE503
:102FC000860F833020F480E090E00C944415685A1A
:102FD000653120F480E090E00C945A150895882320
:102FE00021F00E94F41F0C94BE1F0895882321F045
:102FF0000E94FA1F0C94BE1F08954F925F926F9229
:103000007F92BF92CF92DF92EF92FF920F931F9326
:10301000CF93DF937C01D62FC72FFC01058102954A
:103020000F70128111110E9411200E94B71F882376
:1030300079F0112369F080E28D0F883048F082E04A
:103040000E94A01F0E94B71F91E0B82EB92601C0B0
:10305000B12CCC2EC2948FE0C822D12CF601E059BD
:10306000FF4F0C94742E8C2F807FCF70882311F02B
:10307000C295C07F112399F0CC2309F48DC180E261
:103080008D0F883010F0D11104C08C2F0E94F41FD6
:1030900003C08C2F0E9404200E94BE1F7DC18D2F73
:1030A0000E949017CC2309F49CC180E28D0F8830D8
:1030B00010F0D11104C08C2F0E94FA1F03C08C2F76
:1030C0000E940A200E94BE1F8CC18C2F807FCF706F
:1030D000803211F0C295C07FDD2319F0D130C9F0E4
:1030E00022C0112371F0002341F0013031F40E941D
:1030F0002A208C2B0E94242074C10E942A208C2B11
:1031000004C1002319F0013009F46BC10E9427208B
:1031100018C0112321F0063008F063C10EC005303D
:1031200008F05FC10EC0112351F0002331F0F70108
:10313000858180FF31C18F7085838C2FE6C001119E
:103140003CC18C2FE8C08C2F86958695837090E0CB
:10315000009719F0019761F044C1112321F08D2FE0
:103160009C2F937002C080E090E00E94441549C1FA
:10317000112321F08D2F9C2F937002C080E090E0EE
:103180000E945A153EC18C2F837009F050C0111156
:1031900034C18D2F829586958770880F880F9D2F5B
:1031A0009F70492E512C612C712C082E04C0440CA8
:1031B000551C661C771C0A94D2F7D4FF14C00FE08C
:1031C00010E020E030E0B901A80104C0440F551F11
:1031D000661F771F8A95D2F7CB01BA01609570956B
:1031E0008095909503C060E070E0CB01C695C695D0
:1031F000C370D0E0C230D10561F0C330D10581F099
:103200006429752986299729219771F00E94541EF7
:10321000F4C064297529862997290E94661EEDC08D
:103220000E94541EC301B2010E94421EE6C0112337
:1032300019F08C2F817001C08695882309F4DDC0B8
:103240008D2F829586958770880F880F9D2F9F7090
:10325000492E512C612C712C082E04C0440C551C95
:10326000661C771C0A94D2F7D4FF14C00FE010E05C
:1032700020E030E0B901A80104C0440F551F661FCB
:10328000771F8A95D2F7CB01BA016095709580952A
:10329000909503C060E070E0CB01C695C695C37001
:1032A0004C2F50E04230510569F04330510589F010
:1032B00064297529862997294130510571F00E94AA
:1032C0001A1F9BC064297529862997290E942C1FE3
:1032D00094C00E941A1FC301B2010E94081F8DC032
:1032E0008D2F90E0FC01E05EF109E531F10508F079
:1032F0004FC0E058FF4F0C94742EDF708C2F8F71ED
:10330000112331F00E94A11E8D2F0E94EF1769C07A
:103310000E94C21E8D2F0E94F61763C0112341F038
:10332000053008F05EC08C2F8F710E94E71E59C0D7
:10333000063008F056C0F7CF112339F08C2F8F716B
:103340000E94A11E4EC01123C9F38C2F8F710E94C1
:10335000C21E47C0112329F08C2F8F710E948C1E32
:1033600040C00E94871E3DC0112349F0CF718C2FB1
:103370000E94A11E63E08C2F0E94971F32C081E043
:103380000E94A01F023068F182E00E94A01F29C0A5
:10339000112331F0002391F28D2F0E94991621C044
:1033A000002399F2D93349F45FEF67EE73E051508F
:1033B00060407040E1F700C000008D2F0E94901720
:1033C00010C04C2F4F706D2FC7010E9441060E9404
:1033D000B51D17C04C2F4F706D2FC7010E944406BA
:1033E00010C088E0C816D10441F05CF0EAE0CE1AC3
:1033F000D108F2E0CF16D10420F40E94EF140E940D
:103400009704BB20F1F00E94931F80FD1AC0F701C2
:1034100012820E948D1F0E94A11EC7010E942F1AB6
:103420000E948D1FDF91CF911F910F91FF90EF9020
:10343000DF90CF90BF907F906F905F904F900C94F3
:10344000C21EDF91CF911F910F91FF90EF90DF90FF
:10345000CF90BF907F906F905F904F9008950F93A3
:103460001F93CF93DF93EC01888199812B813C815D
:10347000232BB9F09F3F11F48F3F99F0CE010E94AA
:10348000BF04882371F0688179818A810E94891F35
:103490008C010E943E1F0E943F1EB801CE010E9477
:1034A000FD17DF91CF911F910F9108950E94112078
:1034B0000E94212080915003909151030E943A2153
:1034C0000E94BE1F80E090E00E94441580E090E0E2
:1034D0000C945A150E9401200C94561A0E947E1FCB
:1034E000E92FE295EF70F0E03297EE30F105B0F49D
:1034F000EB56FF4F0C94742E803F91F018F4803EF1
:1035000068F40EC0843F51F40BC0803E48F0813F08
:1035100029F406C093FB882780F9089580E0089578
:1035200081E00895CF93DF9300D000D01F92CDB7F4
:10353000DEB70F900F900F900F900F90DF91CF910B
:103540000895CF93DF9300D000D000D0CDB7DEB781
:1035500026960FB6F894DEBF0FBECDBFDF91CF9198
:1035600008951F93CF93DF93C0919E0416E080913E
:103570009F04C81799F0D0E01C9FF0011D9FF00D2B
:103580001124E056FB4F4081518162817381848117
:1035900095810E94A11A2196C770E9CFDF91CF9142
:1035A0001F9108954091D0045091D1046091D204AC
:1035B0007091D3048091D4049091D5040C94A11AF5
:1035C0008091D50482958F7009F054C08091D20407
:1035D000882309F44FC080919E04A0919F046091BC
:1035E000D0047091D1044091D3045091D404B6E03A
:1035F0008A1709F43FC090E041155105C1F17F3FA2
:1036000011F46F3FA1F1B89FF001B99FF00D1124A3
:10361000E056FB4F218172132AC02081621327C01C
:103620002281211124C0238134812417350710F40D
:1036300021503109241B350B283C3105C0F4209161
:10364000D5042F7020612093D50426E0289FF00137
:10365000299FF00D1124EB55FB4F80818F70806105
:10366000808380ED94E00E942F1A0C94B11A019689
:103670008770BECF0895CF92DF92EF92FF920F93A3
:103680001F93CF93DF93CDB7DEB762970FB6F89451
:10369000DEBF0FBECDBF8C0185E0F801DE011D96B7
:1036A00001900D928A95E1F7D8014C9111965C91A9
:1036B000119712966C9112971396CD90DC901497F7
:1036C0003091D0047091D1048091D3049091D404AE
:1036D000009709F46BC17F3F19F43F3F09F466C1BD
:1036E000E090D204EE2009F4C0C02091D504C816A1
:1036F000D90628F0F601E81BF90BCF0104C080952C
:1037000090958C0D9D1DFF24F394883C910578F0D5
:10371000F12C207F09F0C6C07C2DD98AC88A8989FE
:103720000E94921A80ED94E00E942F1AB1C0822F5D
:10373000807F09F046C0751314C0341312C06111A4
:1037400010C02F7020612093D5040E94D21A80ED02
:1037500094E00E942F1A8091D504D80115968C937D
:103760002EC0CD2819F15F3F11F44F3FF9F0F62E2E
:1037700061111CC080919E0420919F0436E0821745
:1037800009F45AC090E0389FF001399FF00D1124E0
:10379000E056FB4F7181571306C07081471303C079
:1037A0007281711103C001968770E9CFF62E6623EE
:1037B00009F427C18091D50481608093D504F12C50
:1037C00020C1751308C0341306C0611104C0809174
:1037D000D504D801C3C04D875E878D859E856A8BD1
:1037E0000E946E1A6A898823E1F16623D1F1209143
:1037F000D504822F82958F7090E0029774F08091AB
:10380000D0049091D10498878F831986DB86CA866D
:103810002C87CE0107960E942F1A86E0F801A0EDB2
:10382000B4E001900D928A95E1F70E94E01A0E949F
:10383000D21AFF24F394E5C04D875E878D859E855F
:103840000E947E1F292F22952F7030E022303105F3
:103850000CF0CBC09F7009F0C5C0805E883008F4C2
:10386000D0C0C8010E942F1AE4CFC816D90608F4A8
:1038700053C0F601E81BF90BCF01883C910508F411
:1038800050C0F12C7C2DD98AC88A89890E94921A4D
:10389000E0EDF4E086E0DF011D928A95E9F70E94F1
:1038A000D21AAFC0751314C0341312C0611110C006
:1038B0008091D504F8018583C8010E942F1A86E003
:1038C000E0EDF4E0DF011D928A95E9F7FE2C99C046
:1038D0004D875E878D859E856A8B0E946E1A6A89E8
:1038E000882309F4BECF662309F4BBCF2091D50409
:1038F000822F82958F7090E002970CF48ECF80918A
:10390000D0049091D1049A8389831B82DD82CC827A
:103910002E83CE0101967FCF809590958C0D9D1DB5
:10392000ACCFF62E662309F49CCF75132EC034134A
:103930002CC02091D50420FD1FC0822F82958F704E
:10394000D9F0D80115962C9315978F3049F08F5FD9
:10395000982F9295907F822F8F70892B15968C933C
:10396000C8010E942F1A86E0F801A0EDB4E0019092
:103970000D928A95E1F793CF86E0F801A0EDB4E0CF
:1039800001900D928A95E1F73CC04D875E878D8549
:103990009E850E946E1A811140CF8091D50481606E
:1039A0008093D504C8010E942F1A2BC0662309F406
:1039B00058CF4D875E878D859E850E946E1AF82EA2
:1039C000882309F44ECF86E0F801A0EDB4E0019021
:1039D0000D928A95E1F780ED94E00E9493160E9483
:1039E000E01A5DCF811139CF0CC0243031050CF0C5
:1039F00038CF9F7009F431CFF8019581907F09F09D
:103A00002CCF8F2D62960FB6F894DEBF0FBECDBFC0
:103A1000DF91CF911F910F91FF90EF90DF90CF90AA
:103A200008951F93CF93DF93CDB7DEB72C970FB6D2
:103A3000F894DEBF0FBECDBF4F83588769877A8762
:103A40008B879C87CE0107960E943B1B882369F0D9
:103A50008F8198852A853B85232BF1F19F3F09F0C3
:103A600063C08F3F09F060C037C086E0FE01379623
:103A7000DE01119601900D928A95E1F76F817885AC
:103A8000EA85FB85309741F17F3F11F46F3F21F1CB
:103A900020919F0430E0C9010196877099274091D9
:103AA0009E0450E08417950709F447C069837A8320
:103AB000FD83EC8396E0929FD001939FB00D11247B
:103AC000A056BB4FFE01319601900D929A95E1F7F9
:103AD00080939F040E94B11A16E080919E049091F9
:103AE0009F048917C1F1189FC001112480569B4F74
:103AF0000E943B1B882379F1E0919E041E9FF001F8
:103B00001124E056FB4F4081518162817381848191
:103B100095810E94A11A80919E0490E00196877081
:103B2000992780939E04D9CF4F81588569857A85DE
:103B30008B859C850E94A11ACFCF0E946A1A109291
:103B40009F0410929E04E0EDF4E086E0DF011D92F8
:103B50008A95E9F7C1CF2C960FB6F894DEBF0FBE59
:103B6000CDBFDF91CF911F910895EF92FF920F93F8
:103B70001F93CF93DF938C01892B09F46CC0F12C38
:103B8000EE24E394E8012196F8018491843740F40F
:103B9000843008F051C0813081F0823019F15BC06F
:103BA000853709F444C0A8F19CE7980F903708F0D6
:103BB00052C08F770E94901741C00E5F1F4FFE01C9
:103BC000C49180E28C0F883048F4C7708E2D01C0FC
:103BD000880FCA95EAF70E94142014C08C2F0E9407
:103BE00099162DC00E5F1F4FFE01C49180E28C0F0D
:103BF000883058F4C7708E2D01C0880FCA95EAF737
:103C00000E941A200E94BE1F1AC08C2F0E9490177B
:103C100016C00E5F1F4FFE01C491CC2381F08FE9C7
:103C20009FE00197F1F700C00000C150F6CF0E5F92
:103C30001F4FFE01F49003C00E9499168E018F2D34
:103C4000882309F49FCFEFE9FFE03197F1F700C037
:103C500000008150F5CFDF91CF911F910F91FF9020
:103C6000EF90089508950E94321E6093DA047093D5
:103C7000DB048093DC049093DD040C94561A0895C1
:103C80000C94331E0F931F930091DA041091DB0400
:103C90002091DC043091DD04602B712B822B932B5F
:103CA0001F910F910C94331E0F931F930091DA0410
:103CB0001091DB042091DC043091DD04602371233A
:103CC000822393231F910F910C94331E0F931F9304
:103CD0000091DA041091DB042091DC043091DD04C2
:103CE00060277127822793271F910F910C94331E11
:103CF00008950C94781E0E94791E6093D6047093E8
:103D0000D7048093D8049093D9040C94561A60E099
:103D100070E0CB010C947B1E0F931F9341E050E0A9
:103D200060E070E08A019B0104C0000F111F221F98
:103D3000331F8A95D2F7C901B8011F910F910C94D6
:103D40007B1E0F931F9341E050E060E070E004C0E1
:103D5000440F551F661F771F8A95D2F78091D604AE
:103D60009091D704A091D804B091D9048A019B0105
:103D7000082B192B2A2B3B2BC901B8011F910F913E
:103D80000C947B1E0F931F9341E050E060E070E0C5
:103D900004C0440F551F661F771F8A95D2F74095C0
:103DA0005095609570958091D6049091D704A0911C
:103DB000D804B091D9048A019B01082319232A232E
:103DC0003B23C901B8011F910F910C947B1E0F93E7
:103DD0001F9341E050E060E070E004C0440F551FC5
:103DE000661F771F8A95D2F78091D6049091D704E9
:103DF000A091D804B091D9048A019B010827192702
:103E00002A273B27C901B8011F910F910C947B1EF3
:103E10000F931F930091D6041091D7042091D804DA
:103E20003091D904602B712B822B932B1F910F9112
:103E30000C947B1E0F931F930091D6041091D7040E
:103E40002091D8043091D9046023712382239323D5
:103E50001F910F910C947B1E0F931F930091D6041A
:103E60001091D7042091D8043091D904602771278C
:103E7000822793271F910F910C947B1E0895CF9258
:103E8000DF92EF92FF920F931F93CF93DF938C01FA
:103E9000C090DA04D090DB04E090DC04F090DD0404
:103EA0008091D6049091D704A091D804B091D90400
:103EB000C82AD92AEA2AFB2ACFE1D0E0D701C601D5
:103EC0000C2E04C0B695A795979587950A94D2F7BE
:103ED00080FF06C0B8018C2F0E945F06019721F475
:103EE000219760F780E001C08C2FDF91CF911F9167
:103EF0000F91FF90EF90DF90CF900895CF93DF93D5
:103F0000EC010E943F1FBE010E945F06DF91CF912E
:103F10000895CB010E947E1F08958091DE0485954F
:103F20008595859508958091DE048770089598E0C1
:103F3000899F90011124262B2093DE040C94A11E4E
:103F40002091DE04809582238093DE04982F977061
:103F500069F430E0482F082E000C550B2417350764
:103F600029F08595859585950C94C21E08959091AC
:103F7000DE04977081E009F480E00895E091500339
:103F8000F0915103809102058083E0915003F091FC
:103F90005103908180910105892B8083E09150032A
:103FA000F0915103908180910005892B808380914D
:103FB000DF04882381F0E0915003F0915103908158
:103FC000892B808380915003909151030E94A620F9
:103FD00081111092DF0480915003909151030C9451
:103FE000FB1480910205089590910205892B80931E
:103FF000020508958095909102058923809302051A
:10400000089510920205089590910105892B8093DF
:1040100001050895809590910105892380930105FC
:10402000089510920105089590910005892B8093C1
:1040300000050895809590910005892380930005DF
:1040400008951092000508958093DF04089510925A
:10405000DF0408958091DF0408959093F503809321
:10406000F40308958295982F9C7C392F36953695C8
:10407000282F237344E0249FC0011124932F982BF1
:10408000292F2A7A2695892F8575880F822B0895E6
:104090001F93CF93DF931F92CDB7DEB799830E9412
:1040A0003220182F9981892F0E943220212F30E051
:1040B000322F2227A901482BCA010F90DF91CF91FF
:1040C0001F9108956DEE7EEF80E090E00E94F62E45
:1040D00060E082E090E00E94E42E60E083E090E007
:1040E0000E94E42E60E084E090E00E94E42E60E014
:1040F00085E090E00E94E42E6FEF87E090E00C9462
:10410000E42E80E090E00E94DE2E21E08D3E9E4F66
:1041100009F020E0822F089582E090E00C94D62EE2
:1041200083E090E00C94D62E84E090E00C94D62EA0
:10413000682F84E090E00C94E42E87E090E00C94EB
:10414000D62E682F87E090E00C94E42EFC01319687
:104150009C01205E3F4F80E0919191118F5FE217AB
:10416000F307D1F708959C01FC0132969FEF80E0A0
:104170004191461789F09F3F19F4411101C0982FD2
:104180008F5F8E31A9F79F3F39F0F901E90FF11DDB
:1041900097FDFA95628308950895FC013296809602
:1041A0002081261301C010823196E817F907C1F764
:1041B0000895262F2695269526952F3170F4FC011B
:1041C000E20FF11D677021E030E001C0220F6A9517
:1041D000EAF78181282B218308958091030580FFD0
:1041E0000CC01F926F9382E595E09F938F930E947E
:1041F00079040F900F900F900F900895262F269519
:10420000269526952F3178F4FC01E20FF11D677099
:1042100021E030E001C0220F6A95EAF72095818104
:104220002823218308958091030580FF0CC01F92ED
:104230006F9384E395E09F938F930E9479040F908E
:104240000F900F900F90089520915C03222329F086
:104250002091370527FD0C94D9200C94B320209190
:104260005C03222329F02091370527FD0C94FE20C2
:104270000C94CD20FC01319680961192E817F90735
:10428000E1F7089508950C94422180913D05843012
:1042900049F11092040520E488E190E00FB6F8940B
:1042A000A895809360000FBE2093600080E00E947C
:1042B00097040E94432183B7817F846083BF83B7C3
:1042C000816083BF7894889583B78E7F83BF0FB654
:1042D000F894A895809160008861809360001092A6
:1042E00060000FBE089508950895CF930E94732132
:1042F0000E9452090E947421C0E08C2F0E94140A6F
:10430000892B29F4CF5FC430C1F780E001C081E080
:10431000CF91089508950C948A210E946A1A0E94F0
:10432000EF140E9497040C948B211F920F920FB6EA
:104330000F9211248F939F93AF93BF9380910405A5
:10434000811113C08091330590913405A0913505FA
:10435000B09136054196A11DB11D80933305909310
:104360003405A0933505B0933605BF91AF919F9169
:104370008F910F900FBE0F901F90189582E084BD13
:1043800093E095BD9AEF97BD80936E0008952FB787
:10439000F8948091330590913405A0913505B09142
:1043A00036052FBF0895CF92DF92EF92FF920F93C1
:1043B0001F932FB7F89440913305509134056091C5
:1043C0003505709136052FBF6A017B01EE24FF246D
:1043D0008C0120E030E0C016D106E206F30610F4AE
:1043E000415051099A01281B390BC9011F910F91A6
:1043F000FF90EF90DF90CF90089578941F920F92E6
:104400000FB60F9211248F939F93AF93BF93809118
:10441000330590913405A0913505B091360501968C
:10442000A11DB11D8093330590933405A0933505EC
:10443000B0933605BF91AF919F918F910F900FBEB2
:104440000F901F90189581E08093E00080E28093A8
:10445000D8001092C9008FE19EE40197F1F700C0E7
:10446000000087E090EBDC018093460590934705C0
:10447000A0934805B09349059CE088E10FB6F894F5
:10448000A895809360000FBE90936000FFCF0E94BC
:104490008120811102C00E9462200E948C208093A2
:1044A00003050E94942090E090933805809337058F
:1044B0000E949020682F70E080E090E00C94401EF5
:1044C00080912805089508959FB7F89410920705E4
:1044D0009FBF90913D05943009F057C09091E9003D
:1044E0009F703091EC00232F217030FD20E8922B3B
:1044F00023E02093E9002091EB0020FF43C02091AE
:10450000EE0027FF3FC020910505222321F02091D6
:10451000E80025FF37C01092050526E03091E8003D
:1045200035FD15C030913D05343061F53091EB001B
:1045300035FD28C0215021F481E08093050522C07B
:10454000EFE9FFE03197F1F700C00000E7CF80937B
:10455000F1008091E80085FD0AC08091E80080FFAD
:10456000FCCF8091E8008E778093E80006C08FB77B
:10457000F89421E0209307058FBF9F709093E90086
:1045800080E008959F709093E9008FEF08950F9356
:104590001F93CF93DF9300D01F92CDB7DEB78C016E
:1045A0000E947125823011F0843021F583E08983E7
:1045B0001B830A8382E08093E9008FEF9091E800EB
:1045C000815095FD06C095ED9A95F1F70000811197
:1045D000F5CF8091E80085FF0DC040E050E063E03A
:1045E00070E0CE0101960E948E258091E8008E77C2
:1045F0008093E8000F900F900F90DF91CF911F9163
:104600000F910895CF93DF9300D01F92CDB7DEB7FF
:1046100020913D05243029F522E029838058910915
:104620009B838A832093E9008FEF9091E80081506B
:1046300095FD06C095ED9A95F1F700008111F5CF33
:104640008091E80085FF0DC040E050E063E070E03D
:10465000CE0101960E948E258091E8008E7780938E
:10466000E8000F900F900F90DF91CF910895CF93B6
:10467000DF93EC010E947125823019F0843009F03B
:1046800047C080915C038823E1F08091370587FF64
:1046900018C084E08093E9008FEF9091E80081508A
:1046A00095FD06C095E19A95F1F700008111F5CFCF
:1046B0008091E80085FF2CC040E050E060E270E0AF
:1046C00017C081E08093E9008FEF9091E80081505E
:1046D00095FD06C095ED9A95F1F700008111F5CF93
:1046E0008091E80085FF14C040E050E068E070E091
:1046F000CE010E948E258091E8008E778093E8009D
:1047000080E2FE01A8E0B5E001900D928A95E1F704
:10471000DF91CF91089585E995E00E94E0038091B3
:104720003C05811109C00E9423270E9480278091A7
:10473000E20084608093E200089581E995E00E94A0
:10474000E00310923C0508958DE895E00C94E00399
:1047500089E895E00C94E00385E895E00E94E00389
:104760000C948D21209106052F5F822F62E30E9419
:10477000402E992319F020930605089510920605FE
:1047800080910705882371F180913D05843041F5C2
:104790008091E9008F702091EC00922F917020FDA4
:1047A00090E8892B93E09093E9009091EB0090FFC3
:1047B00014C09091EE0097FF10C09091E80095FF13
:1047C00003C01092F100F9CF9091E80090FF05C06E
:1047D0009091E8009E779093E8008F708093E900B5
:1047E00010920705089542E061EC81E00E949D2649
:1047F00042E061EC82E00E949D2642E261EC83E0AF
:104800000E949D2642E261EC84E00C949D268091FA
:104810003F05833009F455C030F4813071F08230A7
:1048200009F48EC008958A3009F47AC08B3009F4F7
:1048300060C0893009F09CC020C080913E05813A5B
:1048400009F096C08091E800877F8093E80080910E
:10485000420590914305892B21F460E288E095E0C0
:1048600003C060E080E090E070E00E94D925809174
:10487000E8008B778093E800089580913E058132AF
:1048800009F076C08091420590914305009719F098
:10489000039709F06DC08091E800877F8093E8005E
:1048A0008091E80082FD05C080913D058111F8CF1F
:1048B0005FC08091F100809328058091E8008B779C
:1048C00053C080913E05813A09F052C08091420563
:1048D00090914305892B09F04BC08091E800877FB8
:1048E0008093E8008091E80080FFFCCF80915C031A
:1048F00036C080913E058132D9F580914205909174
:104900004305892BA9F58091E800877F8093E80013
:104910000E94D2268091400580935C030C946A1A11
:1049200080913E05813221F58091E800877F809358
:10493000E8000E94D22680914105809329050895C0
:1049400080913E05813AA1F48091E800877F8093B1
:10495000E8008091E80080FFFCCF809129058093DA
:10496000F1008091E8008E778093E8000C94D226C5
:10497000089584B7877F84BF0FB6F894A895809177
:104980006000886180936000109260000FBE80E834
:1049900080936100109261000E9471150E9423278C
:1049A0000E9480278091E20084608093E20084E688
:1049B00092E20E942D2078940E940E2A0E94751582
:1049C00082E593E00E94EA1484E795E00E94E00308
:1049D00080913D05853089F480E795E00E94E003F1
:1049E0000E94452180913B05882391F30E94752107
:1049F000882371F30E947825EBCF0E94A915E8CF98
:104A00000C940225292F332723303105C9F064F493
:104A10002130310581F02230310509F049C084E7A9
:104A200090E02FEB35E048C02132310521F12232F0
:104A3000310571F13DC082E190E023E336E03CC0F6
:104A400099278130910571F02CF4892B89F5EBEBD6
:104A5000F5E00DC08230910541F0039749F5E9E991
:104A6000F5E005C0EFEAF5E002C0EFE9F5E084917A
:104A700090E09F0121C064307105D0F4660F771F6C
:104A8000FB01E451FC4F2081318189E090E014C0AA
:104A90006430710568F4FB01EE0FFF1FEC51FC4F11
:104AA00020813181FB01E052FC4F808190E004C005
:104AB00080E090E020E030E0FA0131832083089527
:104AC0000895CF93C82F0E946025C0932A05CF91E7
:104AD000089580913D05843011F081E0089582E0D1
:104AE000089580912A05811102C00C9469250895CA
:104AF00080E189BD82E189BD09B400FEFDCF8091CE
:104B0000D8008F7D8093D8008091E00082608093F0
:104B1000E0008091E00081FDFCCF0895CF92DF920C
:104B2000EF92FF920F931F93CF93DF93EC018B01D2
:104B30006A010E94F126811133C0C114D10439F0F9
:104B4000F60180819181081B190BC80FD91FE12C38
:104B5000F12C0115110519F18091E80085FD16C0B1
:104B60008091E8008E778093E800C114D10449F069
:104B7000F60180819181E80EF91EF182E08285E0E4
:104B80000FC00E94F126882321F30AC089918093E7
:104B9000F10001501109FFEFEF1AFF0ADACF80E0B0
:104BA000DF91CF911F910F91FF90EF90DF90CF9009
:104BB000089520914405309145052617370748F0A0
:104BC0006115710539F42091E8002E772093E800F3
:104BD00001C0B90140E061157105A9F120913D05C1
:104BE000222309F443C0253009F442C02091E80093
:104BF00023FD40C02091E80022FD32C02091E80052
:104C000020FFE9CF4091F3002091F20030E0342BF7
:104C1000FC01CF016115710559F02830310540F4D0
:104C200081918093F100615071092F5F3F4FF1CF67
:104C300041E02830310509F040E02091E8002E776E
:104C40002093E800C8CF4111C9CF0AC080913D052B
:104C5000882361F0853061F08091E80083FD0AC00F
:104C60008091E80082FFF2CF80E0089582E008950D
:104C700083E0089581E00895209144053091450531
:104C80002617370748F06115710539F42091E800BF
:104C90002E772093E80001C0B901FC0120E06115E6
:104CA000710591F180913D05882309F440C085305C
:104CB00009F43FC08091E80083FD3DC08091E80089
:104CC00082FD2FC08091E80080FFE9CF2091F300A2
:104CD0008091F20090E0922B6115710559F08830B7
:104CE000910540F424912093F100319661507109AF
:104CF0000196F2CF21E0089709F020E08091E800CA
:104D00008E778093E800CBCF2111CCCF0AC0809161
:104D10003D05882361F0853061F08091E80083FDD6
:104D20000AC08091E80082FFF2CF80E0089582E01F
:104D3000089583E0089581E00895982F973058F5FD
:104D40009093E900981739F07091EC002091ED00F4
:104D50005091F00003C0242F762F50E021FF19C09E
:104D60003091EB003E7F3093EB003091ED003D7FC2
:104D70003093ED003091EB0031603093EB00709395
:104D8000EC002093ED005093F0002091EE0027FFFF
:104D900007C09F5FD3CF8F708093E90081E00895B3
:104DA00080E0089580913E0587FF11C08091E80062
:104DB00082FD05C080913D058111F8CF11C0809121
:104DC000E8008B770BC080913D05882349F08091E6
:104DD000E80080FFF8CF8091E8008E778093E800AC
:104DE00008952091E4003091E50095E64091EC00B3
:104DF000842F817040FF22C08091E80080FD1CC09C
:104E000080913D05882391F0853091F08091EB00F1
:104E100085FD10C04091E4005091E5004217530712
:104E200029F39A01915011F784E0089582E00895E2
:104E300083E0089581E0089580E008954091E800BE
:104E400042FFDECF08950E9491270E949927E0EE4D
:104E5000F0E0808181608083E8EDF0E080818F77F1
:104E6000808319BCA7EDB0E08C918E7F8C938081FC
:104E70008F7E808310923C0508950F931F93CF93EC
:104E8000DF930E9491270E949927C8EDD0E0888186
:104E90008F77888388818068888388818F7D8883E5
:104EA00019BC10923D051092390510923B051092E5
:104EB0003A0500EE10E0F80180818B7F80838881C5
:104EC0008160888342E060E080E00E949D26E1EE00
:104ED000F0E080818E7F8083E2EEF0E0808181606F
:104EE0008083808188608083F80180818E7F8083C9
:104EF000888180618883DF91CF911F910F91089500
:104F0000E8EDF0E080818F7E8083E7EDF0E0808146
:104F10008160808384E082BF81E080933C050C94B3
:104F20003D27E8EDF0E080818E7F80831092E200E3
:104F300008951092DA001092E10008951F920F92E6
:104F40000FB60F9211242F933F934F935F936F935C
:104F50007F938F939F93AF93BF93EF93FF93809132
:104F6000E10082FF0BC08091E20082FF07C08091C8
:104F7000E1008B7F8093E1000E94B2238091DA00F0
:104F800080FF1FC08091D80080FF1BC08091DA0095
:104F90008E7F8093DA008091D90080FF0DC080E180
:104FA00089BD82E189BD09B400FEFDCF81E0809317
:104FB0003D050E948B2305C019BC10923D050E943F
:104FC0009D238091E10080FF19C08091E20080FF65
:104FD00015C08091E2008E7F8093E2008091E20014
:104FE00080618093E2008091D80080628093D80035
:104FF00019BC85E080933D050E94A8238091E100C3
:1050000084FF30C08091E20084FF2CC080E189BD24
:1050100082E189BD09B400FEFDCF8091D8008F7D6B
:105020008093D8008091E1008F7E8093E100809191
:10503000E2008F7E8093E2008091E20081608093A5
:10504000E20080913905882311F084E007C0809147
:10505000E30087FD02C081E001C083E080933D054D
:105060000E94AC238091E10083FF29C08091E2007F
:1050700083FF25C08091E100877F8093E10082E07B
:1050800080933D05109239058091E1008E7F8093D9
:10509000E1008091E2008E7F8093E2008091E20047
:1050A00080618093E20042E060E080E00E949D2603
:1050B0008091F00088608093F0000E94A423FF910B
:1050C000EF91BF91AF919F918F917F916F915F9180
:1050D0004F913F912F910F900FBE0F901F901895F9
:1050E0001F920F920FB60F9211242F933F934F935D
:1050F0005F936F937F938F939F93AF93BF93CF9360
:10510000DF93EF93FF93C091E900CF708091EC00A3
:10511000D82FD17080FDD0E81092E9008091F00086
:10512000877F8093F00078940E94B4281092E90061
:105130008091F00088608093F000CD2BCF70C093F9
:10514000E900FF91EF91DF91CF91BF91AF919F91D6
:105150008F917F916F915F914F913F912F910F9020
:105160000FBE0F901F9018951F93CF93DF93CDB76D
:10517000DEB7AA970FB6F894DEBF0FBECDBFEEE341
:10518000F5E088E08E0F9091F10091938E13FBCFA4
:105190000E9407248091E80083FF28C180913E058A
:1051A00090913F05492F50E04A30510508F01EC14B
:1051B000FA01ED55FF4F0C94742E803821F082389F
:1051C00009F014C108C080913A0590913B059923DC
:1051D00089F082600FC0809142058F70873008F09F
:1051E00005C18093E9008091EB0085FB882780F959
:1051F0001092E9009091E800977F9093E8008093E7
:10520000F1001092F100D0C0282F2D7F09F0EEC0E0
:10521000882319F0823061F0E9C080914005813027
:1052200009F0E4C0933009F080E080933B052EC084
:105230008091400581112AC0809142058F702FEF27
:10524000280F263008F0D2C08093E9002091EB00AF
:1052500020FF1CC0933021F48091EB00806214C0C9
:105260009091EB0090619093EB0021E030E0A90178
:1052700002C0440F551F8A95E2F74093EA0010924E
:10528000EA008091EB0088608093EB001092E900C7
:105290008091E800877F8093E8000E94D226A6C014
:1052A0008111A4C0109140051F778091E3008078A0
:1052B000812B8093E3008091E800877F8093E80052
:1052C0000E94D2268091E80080FFFCCF8091E3000D
:1052D00080688093E300111102C082E001C083E086
:1052E00080933D0583C08058823008F07FC0809154
:1052F0004005909141058C3D53E0950779F583E099
:105300008A838AE289834FB7F894DE01139620E0FE
:105310003EE051E2E32FF0E050935700E49120FF8C
:1053200003C0E295EF703F5FEF708E2F90E0EA30A0
:1053300010F0C79601C0C0968D939D932F5F2431C6
:1053400049F74FBF8091E800877F8093E8006AE2C9
:1053500070E0CE0101960E94D92515C060914205EA
:1053600070914305AE014F5F5F4F0E940025BC0165
:10537000892BE1F19091E800977F9093E800898173
:105380009A810E943C268091E8008B778093E80008
:105390002DC0803859F58091E800877F8093E80020
:1053A000809139058093F1008091E8008E7773CF6A
:1053B00081111CC0909140059230C0F48091E800AA
:1053C000877F8093E800909339050E94D2268091D0
:1053D0003905811106C08091E30087FD02C081E09C
:1053E00001C084E080933D050E94F3238091E80092
:1053F00083FF0AC08091E800877F8093E800809156
:10540000EB0080628093EB00AA960FB6F894DEBFA3
:105410000FBECDBFDF91CF911F910895CF938091A3
:105420003D058823A1F0C091E900CF709091EC0078
:10543000892F817090FD80E8C82B1092E90080913F
:10544000E80083FD0E94B428CF70C093E900CF919B
:1054500008955058BB27AA270E94412A0C941D2C5E
:105460000E940F2C38F00E94162C20F039F49F3F38
:1054700019F426F40C940C2C0EF4E095E7FB0C9434
:10548000F82BE92F0E942E2C58F3BA1762077307E6
:105490008407950720F079F4A6F50C94502C0EF4AF
:1054A000E0950B2EBA2FA02D0B01B90190010C0134
:1054B000CA01A0011124FF27591B99F0593F50F44C
:1054C000503E68F11A16F040A22F232F342F4427A4
:1054D000585FF3CF469537952795A795F04053959C
:1054E000C9F77EF41F16BA0B620B730B840BBAF06C
:1054F0009150A1F0FF0FBB1F661F771F881FC2F7D7
:105500000EC0BA0F621F731F841F48F487957795EA
:105510006795B795F7959E3F08F0B0CF9395880FA4
:1055200008F09927EE0F9795879508950E94D42B40
:1055300008F481E008950E94AF2A0C941D2C0E946B
:10554000162C58F00E940F2C40F029F45F3F29F0F0
:105550000C94F82B51110C94512C0C940C2C0E948F
:105560002E2C68F39923B1F3552391F3951B550B1A
:10557000BB27AA2762177307840738F09F5F5F4F26
:10558000220F331F441FAA1FA9F335D00E2E3AF065
:10559000E0E832D091505040E695001CCAF72BD07D
:1055A000FE2F29D0660F771F881FBB1F26173707CE
:1055B0004807AB07B0E809F0BB0B802DBF01FF2700
:1055C00093585F4F3AF09E3F510578F00C94F82BBA
:1055D0000C94512C5F3FE4F3983ED4F38695779575
:1055E0006795B795F7959F5FC9F7880F911D9695B9
:1055F000879597F90895E1E0660F771F881FBB1F15
:10560000621773078407BA0720F0621B730B840BC1
:10561000BA0BEE1F88F7E09508950E94142B68944A
:10562000B1110C94512C08950E94362C88F09F578C
:1056300098F0B92F9927B751B0F0E1F0660F771FB6
:10564000881F991F1AF0BA95C9F714C0B13091F0AC
:105650000E94502CB1E008950C94502C672F782FA5
:105660008827B85F39F0B93FCCF386957795679571
:10567000B395D9F73EF490958095709561957F4FDD
:105680008F4F9F4F0895E89409C097FB3EF4909583
:105690008095709561957F4F8F4F9F4F9923A9F00B
:1056A000F92F96E9BB279395F6958795779567959A
:1056B000B795F111F8CFFAF4BB0F11F460FF1BC0DE
:1056C0006F5F7F4F8F4F9F4F16C0882311F096E971
:1056D00011C0772321F09EE8872F762F05C066231F
:1056E00071F096E8862F70E060E02AF09A95660FD8
:1056F000771F881FDAF7880F9695879597F9089591
:105700000E940F2C20F019F00E94162C50F40C94DB
:105710000C2C0C94512CE92F0E942E2C88F355232D
:10572000B1F3E7FB6217730784079507A8F189F3C4
:10573000E92FFF2788232AF03197660F771F881FEC
:10574000DAF7952F5527442332F091505040220F1D
:10575000331F441FD2F7BB27E91BF50B621B730BEA
:10576000840BB109B1F222F4620F731F841FB11DC3
:1057700031972AF0660F771F881FBB1FEFCF91501C
:10578000504062F041F0882332F0660F771F881F87
:1057900091505040C1F793950C94FE2B86957795C8
:1057A00067959F5FD9F7F7CF990F0008550FAA0BA0
:1057B000E0E8FEEF16161706E807F907C0F0121624
:1057C0001306E407F50798F0621B730B840B950B27
:1057D00039F40A2661F0232B242B252B21F408957C
:1057E0000A2609F4A140A6958FEF811D811D089519
:1057F00097F99F6780E870E060E008959F3F31F07F
:10580000915020F4879577956795B795880F911DEE
:105810009695879597F908959FEF80EC0895002459
:105820000A941616170618060906089500240A9405
:1058300012161306140605060895092E0394000C8B
:1058400011F4882352F0BB0F40F4BF2B11F460FF1A
:1058500004C06F5F7F4F8F4F9F4F089557FD905843
:10586000440F551F59F05F3F71F04795880F97FB24
:10587000991F61F09F3F79F08795089512161306DE
:105880001406551FF2CF4695F1DF08C0161617060D
:105890001806991FF1CF8695710561050894089542
:1058A000E894BB2766277727CB0197F908950E94D4
:1058B000D42B08F48FEF08950E946F2C0C941D2CAC
:1058C0000E940F2C38F00E94162C20F0952311F026
:1058D0000C94F82B0C940C2C11240C94512C0E9439
:1058E0002E2C70F3959FC1F3950F50E0551F629FCA
:1058F000F001729FBB27F00DB11D639FAA27F00D29
:10590000B11DAA1F649F6627B00DA11D661F829F4F
:105910002227B00DA11D621F739FB00DA11D621F34
:10592000839FA00D611D221F749F3327A00D611D51
:10593000231F849F600D211D822F762F6A2F112433
:105940009F5750409AF0F1F088234AF0EE0FFF1F66
:10595000BB1F661F771F881F91505040A9F79E3FBD
:10596000510580F00C94F82B0C94512C5F3FE4F31C
:10597000983ED4F3869577956795B795F795E79513
:105980009F5FC1F7FE2B880F911D9695879597F91C
:105990000895FA01EE0FFF1F309621053105A1F1A0
:1059A0006115710561F48038BFE39B0749F1689484
:1059B0009038810561F08038BFEF9B0741F0992353
:1059C0004AF5FF3FE1053105210519F1E8940894F6
:1059D000E795D901AA2329F4AB2FBE2FF85FD0F3A6
:1059E00010C0FF5F70F4A695E0F7F73950F019F09A
:1059F000FF3A38F49F779F930DD00F9007FC905893
:105A0000089546F00C940C2C60E070E080E89FE371
:105A100008954FE79F775F934F933F932F930E9493
:105A2000C42D2F913F914F915F910E945C2C0C945B
:105A3000212D29F416F00C94F82B0C94502C0C9476
:105A40000C2C0E94362CA8F39638A0F707F80F927A
:105A5000E8942BE33AEA48EB5FE70E94722C0F923E
:105A60000F920F924DB75EB70F920E940C2EEAE58F
:105A7000F1E00E94532D4F915F91EF91FF91E595D9
:105A8000EE1FFF1F49F0FE57E0684427EE0F441F4A
:105A9000FA95E1F74195550B0E94862D0F9007FE70
:105AA0000C947A2D0895DF93CF931F930F93FF9259
:105AB000EF92DF927B018C01689406C0DA2EEF0131
:105AC0000E946F2CFE01E894A59125913591459196
:105AD0005591A6F3EF010E94412AFE019701A8010A
