:100000000C9402030C9449030C9449030C94490387
:100010000C9449030C9449030C9449030C94490330
:100020000C9449030C9449030C94EA290C94BC2ABF
:100030000C94ED230C9449030C9449030C9449034C
:100040000C9449030C9449030C9449030C94490300
:100050000C9449030C9455240C9449030C944903C3
:100060000C9449030C9449030C9449030C944903E0
:100070000C9449030C9449030C9449030C944903D0
:100080000C94B6090C9449030C9449030C9449034D
:100090000C9449030C9449030C9449030C944903B0
:1000A0000C9449030C9449030C944903B50FCC0FED
:1000B000E70FDF10F4112B116411AA116E196E19DC
:1000C000A019A019ED192B1B2B1B2B1B0D1AAA1AFB
:1000D000BB1ABB1A1B1B2B1B2B1B241BA91BA91BED
:1000E000BB1BBB1BB21BBB1BBB1BBB1BA91BA91B8D
:1000F000B71BBB1BBB1BB71B292B502B422C502BF8
:10010000422C9C2BBF2B422C152C242C07634236EF
:10011000B79BD8A71A39685618AEBAAB558C1D3C98
:10012000B7CC5763BD6DEDFD753EF6177231BF005C
:100130000000803F08000000BE922449123EABAA96
:10014000AA2ABECDCCCC4C3E00000080BEABAAAAF1
:10015000AA3E00000000BF000000803F0000000039
:1001600000084178D3BB4387D1133D190E3CC3BD72
:100170004282AD2B3E68EC8276BED98FE1A93E4C1F
:1001800080EFFFBE01C4FF7F3F0000000000290098
:1001900014001A000800150017001C0018000C00BD
:1001A0001200130004512B00040016000700090080
:1001B0000A000B000D000E000F0033002D00E100BF
:1001C0001D001B000600190005001100100036007C
:1001D000370038002800E000E300E200035101513D
:1001E0002C002C0002518800E600E7006B0029007B
:1001F0001E001F00200021002200230024002500F3
:10020000260027002A002B002E00870032008900DC
:10021000000035004A004D00280029004B00E10095
:1002200000002D003400000000004C002A004900AE
:100230002B0052004E00E000E300E200000001004D
:100240002C002C0000008800500051004F002900B5
:100250003A003B003C003D003E003F0040004100B2
:10026000420043002A002B00440045002D003400CA
:10027000380000005000510052004F002B00E100F8
:100280000000000030002F00000000004600470082
:10029000480039000000E000E300E20000008B00AD
:1002A0002C002C0001003500000000000000290097
:1002B00059005A005B005C005D005E005F0060005A
:1002C0006100620053002B000000000000000000ED
:1002D0000000000000000000000000000000E1003D
:1002E000005C0000000000000000000000000000B2
:1002F000000000000000E000E300E2000100000058
:100300002C002C000000000000000000000029006C
:1003100000000000000000000000000000000000DD
:100320000000000001002B0033002D0034002E00DF
:100330008700000000000000000000000000E10055
:100340003000320089002F00000000000000000093
:10035000000000002800E000E300E20000000000D0
:100360002C002C00000000000000000000004445AC
:100370004255473A2064697361626C65642E0A00D5
:1003800044454255473A20656E61626C65642E0AA9
:10039000000A002530313662003A200025303258FC
:1003A000000A722F63203031323334353637383912
:1003B0004142434445460A00617564696F20706C90
:1003C0006179206E6F746520667265713D256420C9
:1003D000766F6C3D256400617564696F2073746F7E
:1003E00070206E6F746520667265713D25640061D2
:1003F0007564696F2073746F7020616C6C206E6F10
:10040000746573000A002530325820006B657962EC
:100410006F6172645F7265706F72743A20000A00D7
:1004200025303258006B6579626F6172645F736565
:10043000745F6C65643A200064656C5F6B65795F1E
:100440006269743A2063616E27742064656C3A2097
:10045000253032580A006164645F6B65795F6269B8
:10046000743A2063616E2774206164643A202530F9
:1004700032580A005B735D004B6579626F6172648C
:100480002073746172742E0A005B575D005B535DCC
:10049000005B525D005B445D005B435D0004033024
:1004A0000000000E0350006C0061006E0063006BE2
:1004B0000000000A034F004C004B00420000000403
:1004C00003090409025B00030100A0FA090400000B
:1004D000010301010009211101000122400007056B
:1004E000810308000A09040100010300000009213A
:1004F000110100012271000705820320000A09048E
:100500000200020300000009211101000122220063
:1005100007058303200001070503032000011201E2
:10052000100100000008EDFE6060050001020301FB
:100530000631FF0974A1010975150026FF009520F9
:10054000750881020976150026FF0095207508912F
:1005500002C005010980A10185031A81002A8300D8
:10056000160100260300950175108100C0050C09D5
:1005700001A10185041A01002A9C02160100269C93
:1005800002950175108100C005010906A1018505CC
:10059000050719E029E71500250195087501810275
:1005A0000507190029EF1500250195F07501810255
:1005B0000508190129059505750191029501750335
:1005C0009101C005010906A101050719E029E715F8
:1005D00000250195087501810295017508810105C5
:1005E00007190029FF150026FF00950675088100F0
:1005F00005081901290595057501910295017503F5
:100600009101C00011241FBECFEFDAE0DEBFCDBFE5
:1006100004B603FE27C08091810590918205A091C8
:100620008305B09184058730904BA740B04BD1F43F
:100630001092810510928205109283051092840514
:1006400014BE84B7877F84BF0FB6F894A8958091B5
:100650006000886180936000109260000FBEE0E04F
:10066000F8E3099514E0A0E0B1E0E2E9F3E602C0A6
:1006700005900D92A032B107D9F725E0A0E2B4E0D1
:1006800001C01D92A138B207E1F70E940A270C941D
:10069000C7310C940000FF93EF93E0912004F09198
:1006A0002104309709F00995EF91FF910895FC011D
:1006B0008591803011F0EFDFFBCF0895FF27E0E256
:1006C00030E247FF0CC0419597FF09C0EDE260950D
:1006D000709580959095611D711D811D911D27FF5D
:1006E00002C0219530E350E2AA27660F771F881FCA
:1006F000991FAA1FA41710F0A41B63955A95A9F778
:10070000AA3008F0A95FA05DAF93F395611571055C
:100710008105910541F7ED3211F4EF93F395F2174E
:1007200018F43F93F395FBCF8F91B5DFFA95E1F77E
:100730000895E991F9918591803021F0853219F081
:10074000AADFF9CF089520E0E89455915532C1F31E
:10075000503311F4689455915A3348F4505390F340
:10076000220F022E220F220F200D250FF4CF0EF4A0
:10077000219589919991533619F3533729F15335BE
:1007800059F1BC0188279927E8945C3621F48991B6
:10079000999168945591543639F446EF7EF077FF7D
:1007A0000DC08FEF9FEF0AC055374AE039F058353A
:1007B00040E121F0523642E009F00895FF93EF93B3
:1007C0007DDFEF91FF91B7CFFF93EF93FC01819114
:1007D0008030B9F360DFFBCFFF93EF9368DFF1CF99
:1007E000DF93CF93CDB7DEB72596A3DFCF91DF910F
:1007F00008956E9A769A0C94C70781E0089581E077
:1008000008950C94FF031F93CF93DF9300D000D083
:100810001F92CDB7DEB749835A832091BA048981EC
:100820009A81211112C0662349F00E94CE20182F10
:10083000682F89819A810E94732003C00E94A220A0
:10084000182F69817A81812F04C00E94CE2069818E
:100850007A810F900F900F900F900F90DF91CF91B2
:100860001F910C942605FC014081518162817381A6
:1008700084810C9403040E947A088FE39CE9019719
:10088000F1F700C000000E947A0880E00E94CB07C8
:1008900080FF04C00E9433220C947B2408950E94A0
:1008A0003B040E943922811102C00E94E2220E9470
:1008B000870D0C94F9030E943C120C94C90708950B
:1008C0000C945F0481E008950C946204CF93C82FC8
:1008D0000E9460048C2F0E946404CF9108950895B3
:1008E000CF93DF930E94991B0E9401120E941F2444
:1008F000EC0140E063E070E084E091E00E94080DCC
:100900000E946F04CE010E942B248A3F910538F487
:100910008FE99FE00197F1F700C00000F3CF0E943C
:10092000CA0DDF91CF910C947B240F931F93CF932B
:10093000DF938C010E943304EC01B8010E94010492
:10094000882309F478C0B801CE010E946B0988237E
:1009500009F471C0B801CE010E949F12882309F4E6
:100960006AC0B801CE010E945214882309F463C002
:10097000B801CE010E949314882309F45CC0F801E9
:100980008281882339F1C1308CE5D80759F0CE3DFA
:10099000ECE5DE07E1F0C115FCE5DF07D9F40E94C4
:1009A000700449C080913E05C82FC095C170C0FB3E
:1009B00080F980933E05CC2329F080E893E00E94E3
:1009C000570339C08EE693E00E94570335C00E945A
:1009D000E22231C0C631DC4539F50E944E21282F74
:1009E000F80182814091800350918103882379F03E
:1009F0002A7A91E009F490E090932204911102C0C8
:100A000069E201C065E3CA010E9470230AC08091B7
:100A10002204811102C069E201C065E3CA010E949B
:100A20007B230E949A2107C0C801DF91CF911F91BB
:100A30000F910C94FD03C0E08C2FDF91CF911F919B
:100A40000F91089580E090E0089508959CE0799FCB
:100A5000F001112490E3899FE00DF11D1124E60FB0
:100A6000F11DEE0FFF1FE257FE4F859194910895FF
:100A7000880F991FFC01EF56FC4F859194910895C2
:100A8000CF93DF930E9426050E94F006EC018115AA
:100A900020E59207B8F5811530E4930708F01FC1EF
:100AA000803E9105D0F4803C910508F009C1883A58
:100AB000910570F4853A910508F098C08130910550
:100AC00009F48AC108F43BC1049708F085C137C115
:100AD0008F3B910508F495C032C1811540E294071F
:100AE00050F4C11581E0D80708F076C1C83ED105A1
:100AF00008F472C124C1811520E3920708F0E6C012
:100B00009F70E0C0811535E5930708F044C081155A
:100B100044E5940708F0FAC0C11582E5D80708F546
:100B2000C11521E5D20708F0DDC08C2F837021E0CC
:100B300030E002C0220F331F8A95E2F73C68CE01F5
:100B400074E0969587957A95E1F78370382BCF708E
:100B5000C695C69580E2C89FE0011124C22BD32B15
:100B60003BC12C2F26952695CE0183709927C11560
:100B7000D34508F0BCC040E2249F90011124C1E09D
:100B8000D0E002C0CC0FDD1F8A95E2F72C2B3D2B65
:100B9000E901DC6821C1811549E59407A0F4C1157C
:100BA00088E5D80708F0B7C0C11526E5D20708F0D8
:100BB000C6C08C2F0E9484078F71C82FD0E0DC2F15
:100BC000CC27D06209C181153AE5930708F4A8C083
:100BD00090568115904208F0B2C08D2F8F710E94FF
:100BE0008407DD27D0628F71D82BF6C0853A910536
:100BF00009F4A8C0863A910509F0A7C0C2E8D0E47C
:100C0000EBC0883A910509F4A3C0893A910509F42B
:100C1000A2C08A3A910509F4A1C08B3A910509F462
:100C2000A0C08C3A910509F49FC08B3B910509F453
:100C30009EC08C3B910509F49DC08D3A910509F445
:100C40009CC0803B910509F49BC08E3A910509F444
:100C50009AC08F3A910509F499C0813B910509F436
:100C600098C0823B910509F497C0833B910509F434
:100C700096C0843B910509F495C0853B910509F424
:100C800094C0863B910509F493C0873B910509F414
:100C900092C0883B910509F491C0893B910509F404
:100CA00090C08D3B910509F48FC08E3B910509F4EE
:100CB0008EC08A3B910509F48DC0C0E0D4E48CC09D
:100CC000805C91090E943805EC0186C09927D3FF0A
:100CD00003C0EC01D86C80C0EC01D06C7DC0DF702B
:100CE000D06A7AC0DC2FCC27C16FD06A75C040E2D1
:100CF000249F90011124C1E0D0E002C0CC0FDD1F81
:100D00008A95E2F7C22BD32BDA6866C0D82FCC279E
:100D1000C46FD06A61C0DC2FCC27C06FD06A5CC0C2
:100D20008F700E94840794E0D695C7959A95E1F755
:100D3000CF70D0E0DC2FCC27D069C82B4DC0C0E0ED
:100D4000D0E04AC0C1E8D0E447C0C3E8D0E444C022
:100D5000C2EED4E441C0C9EED4E43EC0CAEED4E44D
:100D60003BC0C5EBD4E438C0C6EBD4E435C0C3EB1C
:100D7000D4E432C0C4EBD4E42FC0C7EBD4E42CC01D
:100D8000CCECD4E429C0CDECD4E426C0C3E8D5E44F
:100D900023C0CAE8D5E420C0C2E9D5E41DC0C4E937
:100DA000D5E41AC0C1E2D6E417C0C3E2D6E414C049
:100DB000C4E2D6E411C0C5E2D6E40EC0C6E2D6E471
:100DC0000BC0C7E2D6E408C0CFE6D4E405C0C0E754
:100DD000D4E402C0CAE2D6E4CE01DF91CF910895F7
:100DE0008238910569F1B0F48133910509F46DC041
:100DF00048F48932910509F463C08A32910509F4F7
:100E000069C008958533910509F455C0893391056A
:100E1000B9F00895833E910569F138F4803E91055B
:100E2000B1F0823E910509F10895863E9105A9F140
:100E3000873E9105B9F1843E910509F064C023C055
:100E40002091720520FD4FC021FD4DC00895809175
:100E5000720580FD44C08091730580FF44C080917D
:100E6000720584FD42C083EE4DC08091720582FF01
:100E700038C0F5CF8091720582FD33C08091730533
:100E800080FD31C0ECCF8091730581FF32C080912D
:100E9000720584FD2AC087EE35C08091720583FFFC
:100EA00026C0F5CF8091720583FD21C08091730526
:100EB00081FD1FC0ECCF8091720585FD1CC01DC057
:100EC0008091720585FD19C016C08091720586FD5E
:100ED00016C017C08091720586FD13C010C089E34B
:100EE00011C082EE0FC080EE0DC080E00BC086EE18
:100EF00009C084EE07C089E205C085E303C08AE229
:100F000001C081E390E008959091720592FF0DC0B9
:100F1000282F2871283019F4877F846006C0282F75
:100F20002471243011F48B7F886093FF0DC0282F2B
:100F30002871283119F4877E846106C0282F247116
:100F4000243111F48B7E88612091730520FF0DC040
:100F5000382F3871383019F4877F816006C0382FF8
:100F60003171313011F48E7F886021FF0DC0282F40
:100F70002871283119F4877E816106C0282F2171DC
:100F8000213111F48E7E886194FD877E0895089545
:100F900008950C94C807E82FF0E0EE0FFF1FED5DF9
:100FA000FB4F808191810895CF92DF92EF92FF9263
:100FB0000F931F93CF93DF9381EA93E00E9457032F
:100FC00083E2E82E84E0F82EC0E0D0E09CE9C92E50
:100FD00093E0D92E03E913E0DF93CF93DF92CF9212
:100FE0000E94F00389E993E00E945703F701819181
:100FF00091917F010E9419229F938F931F930F93CA
:101000000E94F00381E993E00E94570321968DB777
:101010009EB708960FB6F8949EBF0FBE8DBFC43022
:10102000D105D1F6DF91CF911F910F91FF90EF90F5
:10103000DF90CF900895ACEBB3E041E050E024E0C6
:101040002A0F8D91E82FE295EF70F0E031A18F70BB
:10105000BA0102C0660F771F8A95E2F7CB01962F7F
:101060009095932391A392A1892B82A32A13E9CF70
:10107000A0EBB3E041E050E02CE02A0F8D91E82F87
:10108000E295EF70F0E031A18F70BA0102C0660FF7
:10109000771F8A95E2F7CB01962F9095932391A322
:1010A00092A1892B82A32A13E9CF10922C041092CB
:1010B0002B04109224041092230410922E041092F8
:1010C0002D041092260410922504109230041092E0
:1010D0002F041092280410922704109232041092C8
:1010E000310410922A041092290484E00E9411090C
:1010F0000C944F045F926F927F928F929F92AF9267
:10110000BF92CF92DF92EF92FF920F931F93CF93F4
:10111000DF930CEB13E0ABE2B4E0612CEE24E3943C
:10112000F12C5D018D909C90119711961C921E924E
:10113000E80189918E01E82FE295EF70F0E091A12E
:101140008F70A70101C0440F8A95EAF7892F842B7D
:1011500081A382A1542E5094852182A3D0EADA95EE
:10116000F1F780EBC82E83E0D82E80E090E0E60116
:1011700079906E01272D22952F7030E0E90168A14A
:101180002D913C91119770E0D72DDF7002C07595BD
:101190006795DA95E2F760FD08C0B701082E02C036
:1011A000660F771F0A94E2F702C060E070E0262B1A
:1011B000372B11963C932E9301968C309105B9F6FE
:1011C00081A1D52DD823D1A382A1482B42A3129669
:1011D00081E0F501208131818216930609F480E0D7
:1011E000682AF4E0A333BF0709F09BCF262D44E023
:1011F00063E274E08BE294E00E9412090E945B04B7
:10120000862DDF91CF911F910F91FF90EF90DF908E
:10121000CF90BF90AF909F908F907F906F905F9096
:1012200008950895FF920F931F93CF93DF93F82EA5
:10123000092F162FD72FC42F222349F081E0809346
:1012400035040E941F2490933404809333048091CA
:1012500035048823D9F080913304909134040E949E
:101260002B24069798F0EF2DF02FA12FBD2F80E0B3
:1012700090E04C2F50E08417950734F42191319180
:101280002D933D930196F7CF10923504DF91CF91C6
:101290001F910F91FF900895682F70E065547109B8
:1012A000072E000C880B990B0E94912D20E030E056
:1012B00040E451E40E94E72C9B01AC0160E070E047
:1012C00080E090E40E94152F20E030E04CED53E4E4
:1012D0000E94A82E0895FB018D312CE5920731F470
:1012E00082818823A1F10E94440F2FC08E312CE50A
:1012F000920731F48281882351F10E94540F25C056
:101300008F312CE5920741F48281882301F10E94FC
:10131000400F8111F2CFE7CF8A322CE5920731F4EA
:1013200082818823A1F00E946D0F08C08B329C45FA
:1013300071F48281882359F00E94760F40E064E0C6
:1013400070E08CE191E00E94080D80E0089581E05A
:1013500008950E944C094FE050E00C94C70E0E9483
:101360004C090C94110E0C94CA0D08951F920F9203
:101370000FB60F9211244F925F926F927F928F92CD
:101380009F92AF92BF92CF92DF92EF92FF922F93F4
:101390003F934F935F936F937F938F939F93AF93FD
:1013A000BF93CF93DF93EF93FF9380914A048823F9
:1013B00009F4ABC1C0918C04D0918D041C161D069C
:1013C0000CF0A3C14090390450903A0460903B0463
:1013D00070903C0420E030E0A901C301B2010E94FA
:1013E000A32E18160CF065C0C130D10509F452C007
:1013F00080918A0490918B04BE010E94AC307C01E4
:1014000090938B0480938A0480904C0490904D04B8
:10141000A0904E04B0904F0420E030E040E85FE33D
:10142000C501B4010E94762C60934C0470934D0466
:1014300080934E0490934F04F701EE0FFF1FEE0FC1
:10144000FF1FE05AFB4FA3019201608171818281ED
:1014500093810E94E72C20E030E040E05EE30E94B0
:10146000A82E9B01AC01C501B4010E94A32E181641
:101470008CF4C7010196BE010E94AC3090938B049E
:1014800080938A0410924C0410924D0410924E04E2
:1014900010924F04E0918A04F0918B04EE0FFF1F2D
:1014A000EE0FFF1FE05AFB4F6081718182819381B3
:1014B000E0C0809174012197882309F4BFC0C090D7
:1014C0008604D0908704E0908804F090890420E09E
:1014D00030E0A901C701B6010E94E22C882309F47B
:1014E000A2C0FE01EE0FFF1FEE0FFF1FE05AFB4FE1
:1014F00080809180A280B380A5019401C701B601CC
:101500000E94E22C87FF31C0A501940160E070E0E9
:101510008CED93EC0E94E72C20E030E040E451E4B5
:101520000E94E72C20E030E040E05FE30E94A82E1C
:101530009B01AC0160E070E080E090E40E94152F18
:101540009B01AC01C501B4010E94A82E9B01AC0116
:10155000C701B6010E94E22C87FF07C0A7019601D0
:1015600060E070E08CED93E439C0A5019401C701FF
:10157000B6010E94A32E18160CF055C0A5019401C7
:1015800060E070E08CED93E40E94E72C20E030E016
:1015900040E451E40E94E72C20E030E040E05FE3CB
:1015A0000E94A82E9B01AC0160E070E080E090E416
:1015B0000E94152F9B01AC01C501B4010E94A82E09
:1015C0009B01AC01C701B6010E94A32E18165CF561
:1015D000A701960160E070E08CED93EC0E94E72C8F
:1015E00020E030E040E451E40E94E72C20E030E0CD
:1015F00040E05FE30E94A82E9B01AC0160E070E038
:1016000080E090E40E94152F9B01AC01C701B60158
:101610000E94A82E609386047093870480938804A8
:10162000909389041EC0CC0FDD1FCC0FDD1FC05A64
:10163000DB4F88819981AA81BB810BC0FE01EE0F2F
:10164000FF1FEE0FFF1FE05AFB4F80819181A281A7
:10165000B3818093860490938704A0938804B09309
:101660008904609186047091870480918804909128
:10167000890420913604309137042F3F4FEF34070F
:1016800031F02F5F3F4F30933704209336040E9490
:101690007F0F6B017C0120E034E244EF51E40E94B3
:1016A000E22C87FF08C046EFC42E48E2D42E44EF58
:1016B000E42E41E4F42E20E030E040E051E4C701A4
:1016C000B6010E94A82E9B01AC0160E074E284E7A1
:1016D0009BE40E94E72C6B017C010E94602D7093BB
:1016E00097006093960020917501309176014091AA
:1016F000770150917801C701B6010E94A82E0E947F
:10170000602D709399006093980080914B0488231A
:1017100009F457C1C0904604D0904704E0904804B3
:10172000F090490420E030E0A901C701B6010E9411
:10173000A32E1816D4F580913604909137048F3F6C
:101740002FEF920729F00196909337048093360487
:10175000C701B6010E947F0F20E030E040E051E475
:101760000E94A82E9B01AC0160E074E284E79BE438
:101770000E94E72C6B017C010E94602D7093970002
:101780006093960020917501309176014091770128
:1017900050917801C701B6010E94A82E0E94602DC9
:1017A000709399006093980008C01092970010926F
:1017B00096001092990010929800609140047091E8
:1017C00041046F5F7F4F7093410460934004209108
:1017D00096003091970080E090E0232B71F12091EA
:1017E0003F0421112AC0C0919600D09197000E9419
:1017F0008F2D6B017C01BE0180E090E00E948F2D57
:101800009B01AC01609142047091430480914404B7
:10181000909145040E94E72C20E03FEF4FE757E40A
:101820000E94A82E20E030E040E85FE30E94752C83
:101830009B01AC01C701B6010AC00E948F2D209107
:1018400042043091430440914404509145040E9465
:10185000A32E87FDB6C080913D0490913E04019671
:1018600090933E0480933D04209166053091670576
:1018700082179307B0F080916D05882329F01092AC
:101880003E0410923D040DC0809171008D7F8093C5
:101890007100809190008F738093900010924B04A0
:1018A00098C020913F0480913D0490913E04E091C6
:1018B0006805F091690521113FC021E020933F04A4
:1018C0009C012150310930933E0420933D0433E0C4
:1018D000880F991F3A95E1F7E80FF91FDF01189774
:1018E000CD90DD90ED90FC9020813181428153813B
:1018F000C701B6010E94E22C811109C01092460472
:1019000010924704109248041092490408C0C092F3
:101910004604D0924704E0924804F092490480E0E3
:1019200090E0A0E8BFE38093420490934304A09327
:101930004404B093450441C010923F041092370410
:101940001092360423E0880F991F2A95E1F7E80FDB
:10195000F91F80819181A281B38180934604909385
:101960004704A0934804B093490420E030E040E8E5
:101970005EE364817581868197810E94A82E6B0148
:101980007C0180917901682F70E080E090E00E94F6
:101990008F2D20E030E048EC52E40E94E72C9B01C0
:1019A000AC01C701B6010E94A82E60934204709357
:1019B0004304809344049093450410924104109290
:1019C000400480916A0580FD04C010924B0410927F
:1019D0004A04FF91EF91DF91CF91BF91AF919F9119
:1019E0008F917F916F915F914F913F912F91FF90D8
:1019F000EF90DF90CF90BF90AF909F908F907F90AF
:101A00006F905F904F900F900FBE0F901F901895A2
:101A1000CF92DF92EF92FF92CF93DF93EC016B01B5
:101A2000F42E80913804811102C00E94870D8091AC
:101A30006A0580FF65C0809171008D7F8093710081
:101A400080914A0481110E94CA0D81E080934B0469
:101A5000D0936905C0936805D0926705C09266056A
:101A6000F0926D0510924C0410924D0410924E04A9
:101A700010924F0410923E0410923D048881998187
:101A8000AA81BB818093460490934704A0934804A5
:101A9000B093490420E030E040E85EE36C817D8152
:101AA0008E819F810E94A82E6B017C01809179011B
:101AB000682F70E080E090E00E948F2D20E030E001
:101AC00048EC52E40E94E72C9B01AC01C701B6012F
:101AD0000E94A82E609342047093430480934404B0
:101AE000909345041092410410924004809171003B
:101AF0008260809371008091900080688093900054
:101B0000DF91CF91FF90EF90DF90CF9008950E94EA
:101B10003922811102C00E94E2220E946A2280932F
:101B20006A0580913804811129C03E9A8091710024
:101B30008D7F8093710082E0809390008AE1809392
:101B4000910081EC91E1909397008093960023EAB5
:101B50003BE04EE855E4609175017091760180910B
:101B60007701909178010E94A82E0E94602D7093B9
:101B700099006093980081E08093380480916A0511
:101B800080FF07C040E063E070E08CE591E00C94DA
:101B9000080D089580913E0580FF08C08FEE93E008
:101BA0009F938F930E94F0030F900F9080913804C1
:101BB000811102C00E94870D10928D0410928C0436
:101BC000809171008D7F80937100809190008F7360
:101BD0008093900010924B0410924A041092860455
:101BE0001092870410928804109289041092820443
:101BF0001092830410928404109285041092810440
:101C000010928004E0E6F4E0A0E5B4E011921192B5
:101C1000119211921D921D9284E0E038F807B1F7FD
:101C20000895CF92DF92EF92FF920F931F93CF937D
:101C3000DF936B017C0180913E0580FF10C0C701DE
:101C4000B6010E94592D7F936F9387ED93E09F9388
:101C50008F930E94F0030F900F900F900F90809140
:101C60004A04882309F48AC080913804811102C093
:101C70000E94870D00E814E0C7E0D0E0A7019601BC
:101C8000F80192918291729162918F010E94E22CEF
:101C9000811131C0FE01EE0FFF1FEE0FFF1FE05A52
:101CA000FB4F1082118212821382DE01AA0FBB1F2A
:101CB000A05BBB4F11961C921E92C730D105E9F074
:101CC0002196448155816681778140835183628367
:101CD0007383148215821682178212968D919C91BD
:101CE000139711969C938E9313961C921E921297A3
:101CF00034961296E2CF219708F680918C04909149
:101D00008D04019797FD05C090938D0480938C04FA
:101D100004C010928D0410928C0480918C049091D8
:101D20008D0420918A0430918B042817390724F000
:101D300010928B0410928A04892B01F58091710016
:101D40008D7F80937100809190008F7380939000BD
:101D500010928604109287041092880410928904CD
:101D600010928204109283041092840410928504CD
:101D7000109281041092800410924A04DF91CF9156
:101D80001F910F91FF90EF90DF90CF900895CF9229
:101D9000DF92EF92FF92CF93DF936B017C01D42F00
:101DA000C52F80913E0580FF14C05F934F93C701FC
:101DB000B6010E94592D7F936F9388EB93E09F9318
:101DC0008F930E94F0030F900F900F900F900F9041
:101DD0000F9080913804811102C00E94870D80917C
:101DE0006A0580FF46C080918C0490918D0408970D
:101DF0000CF03FC0809171008D7F809371008091C5
:101E00004B0481110E94CA0D81E080934A04109214
:101E100037041092360420E030E0A901C701B60172
:101E20000E94A32E1816DCF480918C0490918D04EE
:101E3000FC01EE0FFF1FEE0FFF1FE05AFB4FC082A9
:101E4000D182E282F382FC01EE0FFF1FE05BFB4FC9
:101E5000D083C183019690938D0480938C048091EC
:101E600071008260809371008091900080688093FF
:101E70009000DF91CF91FF90EF90DF90CF90089589
:101E800080916A058170089580916A0581608093D0
:101E90006A050E946E220E94B50940E062E070E08F
:101EA0008CE491E00C94080D40E062E070E08CE37B
:101EB00091E00E94080D2FEF81EE94E021508040C8
:101EC0009040E1F700C000000E94CA0D80916A05B1
:101ED0008E7F80936A050C946E2280918E0490E030
:101EE00001968770992780938E04089580918E04BF
:101EF00090E007968770992780938E0408958F92BB
:101F00009F92AF92BF92CF92DF92EF92FF92CF93C8
:101F1000DF936B017C01C0913604D0913704BE0180
:101F200080E090E00E948F2D4B015C01A70196019B
:101F300060E070E08CE594E40E94E72C9B01AC012A
:101F4000C501B4010E94A82E0E94602D9B01E09162
:101F50008E048E2E912C48E08416910408F044C221
:101F6000F401EA5AFF4F0C94C0301092740180E0E3
:101F700090E0A0E0BFE38093750190937601A09379
:101F80007701B09378011092390410923A041092BC
:101F90003B0410923C0428C2109274011092390440
:101FA00010923A0410923B0410923C046431710583
:101FB00028F46A30710508F449C104C0693C710510
:101FC00008F044C180E090E0A0E8BEE373C0109246
:101FD00074011092390410923A0410923B0410924A
:101FE0003C0420E030E040EA52E4C701B6010E9420
:101FF000E22C87FDF9C120E030E040E253E4C70164
:10200000B6010E94E22C87FF2FC00E94123168E2C5
:1020100070E00E94AC30BC01645C7F4F072E000C66
:10202000880B990B0E94912D6B017C0180913604E5
:10203000909137048B309105C8F18531910508F0F6
:1020400080C165E170E0681B790B80E090E00E9440
:102050008F2D20E030E040E05FE30E94A82E20E0DA
:1020600030E040E251E4A8C020E030E040EA53E430
:10207000C701B6010E94E22C87FF2CC00E941231DA
:1020800068EE73E00E94AC30BC0168517C4F072EB3
:10209000000C880B990B0E94912D6B017C018091A3
:1020A0003604909137048630910568F480E090E022
:1020B000A0E0BFE38093750190937601A093770130
:1020C000B093780191C18531910508F03AC165E17D
:1020D00070E062C020E030E040E254E4C701B601A5
:1020E0000E94E22C87FF2FC00E94123160ED77E042
:1020F0000E94AC30BC016854744F072E000C880B52
:10210000990B0E94912D6B017C0180913604909176
:1021100037048031910550F28531910508F011C1E5
:1021200065E170E0681B790B80E090E00E948F2DE4
:1021300020E030E040E05FE30E94A82E20E030E0A5
:1021400040EA50E439C020E030E040EA54E4C701FE
:10215000B6010E94E22C87FF47C10E94123160ED58
:1021600077E00E94AC30BC016854744F072E000C1D
:10217000880B990B0E94912D6B017C018091360494
:10218000909137048432910508F490CF8333910500
:1021900008F0D7C063E370E0681B790B80E090E043
:1021A0000E948F2D20E030E040E05FE30E94A82EE7
:1021B00020E030E040E751E40E94E72C7CC041E0A1
:1021C000409374011092390410923A0410923B0427
:1021D00010923C046431710540F46A30710560F579
:1021E00020E030E040E85EE32BC0693C710508F078
:1021F000A8C080E090E00E948F2D20E030E040EA0F
:1022000051E40E94752C20E030E044E353E40E9446
:10221000E72C9B01AC010E94A82E20E030E040E0BA
:102220005EE30E94A82E9B01AC0160E070E080E0BC
:102230009EE30E94752C3FC020E030E040E05FE369
:10224000C701B6010E94A82E6B017C0180E090E0DE
:10225000A0E0BEE32FCF21E0209374011092390457
:1022600010923A0410923B0410923C044AE0469FBC
:102270009001479F300D1124C90168EB7BE00E945B
:102280009830BC016C5D754077FF03C07195619516
:102290007109072E000C880B990B0E94912D2EE3DB
:1022A00033EC4EE259E30E94A82E20E030E040ECEF
:1022B0005EE30E94762C60937501709376018093A3
:1022C00077019093780190C081E08093740110921F
:1022D000390410923A0410923B0410923C04CE014F
:1022E00083709927892BE1F0BE016170772780E028
:1022F00090E00E948F2D20E030E040E05EE30E94FD
:10230000A82E20E030E040E45FE30E94762C60934A
:1023100075017093760180937701909378010CC0DA
:1023200080E090E0A0E0BFE3809375019093760198
:10233000A0937701B0937801C770DD27CD2B09F00A
:1023400053C010927501109276011092770110928D
:1023500078014AC041E04093740110923904109210
:102360003A0410923B0410923C04812C912CA12C35
:102370009FE3B92E8092750190927601A092770129
:10238000B09278012739310578F180E090E00E9421
:102390008F2D20E030E047E153E40E94752C20E0CF
:1023A00030E04AE754E40E94E72C20E030E048E4C3
:1023B00052E40E94A82E20E030E040EA51E40E945E
:1023C000D72D0E94592D660F771F660F771FFB01CF
:1023D000E054FC4F2081318142815381C701B60115
:1023E0000E94A82E6B017C01C701B601DF91CF913D
:1023F000FF90EF90DF90CF90BF90AF909F908F9025
:1024000008958091A70481110C94B309089521E0E7
:102410008F3F910508F020E0822F08950C94071259
:102420000E9401121092A70440E068E070E08AEF79
:1024300091E00C94080D1092A60440E068E070E072
:102440008AE791E00C94080D0E94011220911C0370
:1024500030E02F5F3F4F2370332720931C0348E267
:10246000429FC001439F900D112440E065E070E061
:1024700086589D4F0C94080DCF938091A304882318
:1024800009F441C080918F0490919004009781F4E9
:102490000E941F249093900480938F0420919104B4
:1024A00030E02115310571F48091920490E00BC069
:1024B0000E942B2420911A0330911B0328173907FF
:1024C00038F321C0C9010197FC01ED56FB4F808113
:1024D000F901ED56FB4FC0819091A70491110E9424
:1024E000AF098091A704882319F08C2F0E94A909B5
:1024F0008091910490E001966091920470E00E94B6
:10250000AC3080939104CF910895089581E0809339
:10251000A70440E068E070E08AE392E00E94080DC2
:102520000C948512089581E08093A60440E068E051
:1025300070E08AEB91E00E94080D0C949212EF92E9
:10254000FF921F93CF93DF93CDB7DEB7A3970FB65C
:10255000F894DEBF0FBECDBF7C0186322CE592071A
:1025600041F4FB018281882309F448C00E9486124D
:10257000A2C08732FCE59F0739F4FB0182818823E2
:10258000E9F10E94101297C08832FCE59F0749F4D8
:10259000FB018281882391F18091A7048111F1CF01
:1025A000E5CF8C32FCE59F0739F4FB01828188235B
:1025B00029F10E9493127FC08D32FCE59F0739F408
:1025C000FB0182818823D1F00E941B1274C08E32DD
:1025D000FCE59F0749F4FB018281882379F0809113
:1025E000A6048111F1CFE5CF89329C4539F4FB0176
:1025F0008281882319F00E9424125DC04091A704B3
:10260000411105C08091A604882309F4D1C0FB01C3
:102610005281552309F451C0F0EEEF16F10461F434
:102620000E94011281E08093A5041092A4041092EC
:10263000A304109292043FC022EEE216F10471F45A
:102640000E9401128091A504882319F081E08093F3
:10265000A4041092A5041092A3042DC033EEE31637
:10266000F10491F48091A404882339F10E940112AD
:102670001092A50481E08093A3041092910410921B
:10268000900410928F0417C082E5E816F10431F42B
:1026900080911A0390911B030A9709C0E1E5EE1699
:1026A000F10459F480911A0390911B030A969093B8
:1026B0001B0380931A0380E07CC080911C0310915F
:1026C0001F03811108C0FB012081120F135080915C
:1026D0001D03180F43C0813091F4FB012081120FBC
:1026E000105E20911D03120F818124E030E0281B31
:1026F0003109822F880F880F280F120F38C08230BF
:1027000071F4FB012081120F105E90911D03190FCF
:10271000218184E090E0821B9109F7E025C083309D
:1027200031F583E2EDE8F3E0DE01119601900D92C0
:102730008A95E1F71350FB01808121E030E02C0FF6
:102740003D1F280F311DC90120911D0330911E032B
:10275000FC01E20FF31F2081120FFB01218184E0B5
:1027600090E0821B9109FCE08F9F100D11245523EE
:10277000A1F0442319F0812F0E94A9098091A5049A
:10278000882381F080919204E82FF0E0ED56FB4F12
:1027900010838F5F8093920405C0442319F0812F2A
:1027A0000E94AF09C7010E940E1291E0892701C063
:1027B00081E0A3960FB6F894DEBF0FBECDBFDF91C8
:1027C000CF911F91FF90EF9008950F931F93CF9398
:1027D000DF93C62FD42F022FFC0182818823C9F0FA
:1027E0006093AA040E941F249093A9048093A804D4
:1027F00080E28C0F883008F050C0C77081E001C0C3
:10280000880FCA95EAF7DF91CF911F910F910C9431
:102810002E191091AA04161330C08091A80490912B
:10282000A9040E942B24883C910538F5C0E2CD0F05
:102830001D17B9F080E2810F883040F4177081E0F5
:1028400001C0880F1A95EAF70E943519C83048F47C
:1028500081E09D2F977001C0880F9A95EAF70E943A
:102860002E19802F0E941B19C830B8F4D77081E050
:1028700001C0880FDA95EAF70AC080E28C0F883031
:1028800060F4C77081E001C0880FCA95EAF7DF9154
:10289000CF911F910F910C943519DF91CF911F911A
:1028A0000F9108959C01CB01233F4CE53407F9F0CB
:1028B00078F4283DFCE53F07B9F0293D4CE53407A5
:1028C00011F1273D3C4531F526E241EE61EE1EC097
:1028D000253FFCE53F0799F070F0263F3C45D1F4D9
:1028E00027E245EE66EE12C027E245EE0EC026E274
:1028F00041EE60EE0BC027E245EE64EE07C026E233
:1029000041EE62EE03C028E241E065EE0E94E5136D
:1029100080E00895FC018281882319F01092AA04B6
:10292000089581E00895CF93DF93EC01FB0182814C
:10293000882309F44CC1C230FCE5DF0708F448C124
:10294000C6319CE5D90738F09E012A5F3C45293005
:10295000310508F03DC10E944C229093730580938D
:102960007205C031ECE5DE0709F4CCC008F042C0C6
:10297000C8308CE5D80709F4A1C0F0F4C430ECE508
:10298000DE0709F487C068F4C2308CE5D80709F483
:102990007DC0C330DC4509F010C1809172058260B2
:1029A0007CC0C630ECE5DE0709F480C008F082C0C8
:1029B00080917205886071C0CC308CE5D80709F42D
:1029C0008DC068F4CA30ECE5DE0709F47BC008F07E
:1029D00081C00E94991B8091720580685EC0CE30D4
:1029E0008CE5D80709F47EC008F088C08091720594
:1029F0008B7F53C0CB3FECE5DE0709F451C020F5D7
:102A0000C3318CE5D80709F485C078F4C131ECE511
:102A1000DE0709F47BC0C231DC4509F0CEC00E945C
:102A2000991B809172058F7738C0C5318CE5D80726
:102A300009F480C008F4B2C0CA3FDC4509F0BDC04B
:102A40008091730581602FC0CF3FFCE5DF0709F45B
:102A500069C078F4CD3F9CE5D90709F44BC008F470
:102A600045C080917305826081608093730540E06A
:102A70008BC0C130FDE5DF0709F49CC008F476C0C7
:102A8000C230DD4509F099C080E095C080917205A3
:102A9000816003C0809172058460809372058DC04F
:102AA0008091730582608093730587C08091720561
:102AB0008061F3CF809172058062EFCF80917205C3
:102AC0008064EBCF8091720588608460809372058A
:102AD00040E040C0809172058E7FDFCF809172050B
:102AE0008D7FDBCF80917205877FD7CF8091730573
:102AF0008E7FD9CF809173058D7FD5CF8091720560
:102B00008F7ECBCF809172058F7DC7CF809172056C
:102B10008F7BC3CF80917205877F8B7F80937205F7
:102B200040E01FC0809173058D7F8E7F8093730579
:102B300040E02FC08091720582FB222720F991E0AE
:102B400040E0922790FB82F990FB83F98093720515
:102B5000992339F064E070E080E593E00E94080D6D
:102B60002CC062E070E080E793E0F8CF80917305BD
:102B7000982F909591708E7F892B90FB81F980938F
:102B8000730540E0992329F064E070E080E293E06F
:102B9000E5CF62E070E080E493E0E0CF0E94991B13
:102BA0008091720587FB222720F991E0922790FB04
:102BB00087F973CF81E00E94E422809172059091A1
:102BC00073050E945D220E94991B80E001C081E094
:102BD000DF91CF9108959093B0048093AF0408954E
:102BE000E091AF04F091B004309721F00190F081B2
:102BF000E02D099480E00895EF92FF921F93CF9308
:102C0000DF93FC01A091AF04B091B004109709F4D8
:102C100042C080918C03882341F08091720587FF28
:102C200004C08081818385E08083EF011296ED915D
:102C3000FC911397CE01099580913E0582FF2BC030
:102C400080FF04C08CE094E00E94570318E086E007
:102C5000E82E84E0F82E80913E0580FF0BC088812D
:102C60001F928F93FF92EF920E94F0030F900F90AC
:102C70000F900F90115021961111EDCF80913E05CC
:102C800080FF09C084E094E0DF91CF911F91FF9015
:102C9000EF900C945703DF91CF911F91FF90EF902D
:102CA00008952091AD043091AE048217930771F01E
:102CB0009093AE048093AD04E091AF04F091B00422
:102CC000309721F00680F781E02D09940895209136
:102CD000AB043091AC048217930771F09093AC046D
:102CE0008093AB04E091AF04F091B004309721F0F1
:102CF0000084F185E02D0994089585B7806885BF2B
:102D000085B7806885BF0895089508950C94851649
:102D100008950C9488160E947D160E9484160C94C7
:102D2000861681E008950E9416240E941B080E94C6
:102D30009F240C948916CF93C82F80913E0582FF63
:102D40001EC080FF04C085E294E00E94570380917A
:102D50003E0580FF0CC01F92CF9380E294E09F93CA
:102D60008F930E94F0030F900F900F900F9080911F
:102D70003E0580FF04C08EE194E00E9457038C2F33
:102D8000CF910C9466047F928F929F92AF92BF92E4
:102D9000CF92DF92EF92FF920F931F93CF93DF9327
:102DA000CDB7DEB72A970FB6F894DEBF0FBECDBF02
:102DB0000E947A080E949116811111C08FEF8983B9
:102DC0008A831B820E941F248160782F9D838C83BD
:102DD00049815A816B818D810E9471174FC032EBFE
:102DE000832E34E0932E00E010E0702E802F0E949E
:102DF000CB076C01F401A190B1904F01A826B92630
:102E0000A114B10431F40F5F1F4F0430110569F7AD
:102E1000D5CF80913E0581FD0E94D40790E0EE243D
:102E2000E394F12C97012A213B21232B09F19E8366
:102E30007F82CE20DF2091E0CD2809F490E09887B2
:102E40000E941F248160782F9A8789874E815F8135
:102E500068858A850E947117000F111FF801EE54D2
:102E6000FB4F80819181E826F926F182E08206C03D
:102E70009F5FEE0CFF1C9C30A9F6C5CF1091B104EA
:102E80000E94F0151817C9F00E94F0158093B10444
:102E90002A960FB6F894DEBF0FBECDBFDF91CF915B
:102EA0001F910F91FF90EF90DF90CF90BF90AF9068
:102EB0009F908F907F900C949B162A960FB6F89453
:102EC000DEBF0FBECDBFDF91CF911F910F91FF905D
:102ED000EF90DF90CF90BF90AF909F908F907F90BA
:102EE0000895CF93DF93CDB7DEB72B970FB6F89445
:102EF000DEBF0FBECDBF4F83588769877A878B8728
:102F0000DE01119686E0FD0111928A95E9F785E0D0
:102F1000FE01379601900D928A95E1F749815A8119
:102F20006B817C818D819E810E94431E2B960FB602
:102F3000F894DEBF0FBECDBFDF91CF910895FC01A5
:102F4000808191810E940F210895882309F413C183
:102F5000682F8238C1F40E94F01581FD0CC169E32D
:102F600080918003909181030E9470230E949A2196
:102F70002FEF81EE94E0215080409040E1F700C0B7
:102F8000000069E319C08338F9F40E94F01580FD50
:102F9000F2C063E580918003909181030E947023C9
:102FA0000E949A212FEF81EE94E0215080409040C2
:102FB000E1F700C0000063E58091800390918103F8
:102FC0000E947B230C949A218438C1F40E94F0154E
:102FD00082FDD1C067E480918003909181030E94BB
:102FE00070230E949A212FEF81EE94E021508040BF
:102FF0009040E1F700C0000067E4DECF8CEF860F61
:10300000813A38F480918003909181030E9470236B
:10301000D9CF80E2860F883048F4677081E001C024
:10302000880F6A95EAF70E945121CCCF8BE5860F75
:10303000833070F4653A29F0663A31F083E890E025
:1030400005C081E890E002C082E890E00C9451163F
:1030500088E5860F873108F08EC0683A09F445C0CC
:10306000693A09F445C06A3A09F445C06B3A09F473
:1030700045C06C3A09F445C06B3B09F445C06C3B54
:1030800009F445C06D3A09F445C0603B09F445C0F8
:103090006E3A09F445C06F3A09F445C0613B09F442
:1030A00045C0623B09F445C0633B09F445C0643B3D
:1030B00009F445C0653B09F445C0663B09F445C0C9
:1030C000673B09F445C0683B09F445C0693B09F416
:1030D00045C06D3B09F445C06E3B09F445C06A3BF1
:1030E00009F445C080E090E044C082EE90E041C029
:1030F00089EE90E03EC08AEE90E03BC085EB90E028
:1031000038C086EB90E035C083EB90E032C084EBB2
:1031100090E02FC087EB90E02CC08CEC90E029C0B1
:103120008DEC90E026C083E891E023C08AE891E02E
:1031300020C082E991E01DC084E991E01AC081E2DB
:1031400092E017C083E292E014C084E292E011C0E2
:1031500085E292E00EC086E292E00BC087E292E048
:1031600008C08FE690E005C080E790E002C08AE2E8
:1031700092E00C9467160895882309F45BC0682FC9
:10318000823879F40E94F01581FF54C069E3809180
:103190008003909181030E9470230E949A2169E329
:1031A00010C08338B1F40E94F01580FF43C063E57E
:1031B00080918003909181030E9470230E949A2144
:1031C00063E580918003909181030E947B230C949E
:1031D0009A21843879F40E94F01582FF2BC067E4AD
:1031E00080918003909181030E9470230E949A2114
:1031F00067E4E7CF8CEF860F813A18F380E2860F01
:10320000883048F4677081E001C0880F6A95EAF75A
:103210000E945721DCCF8BE5860F833020F480E0BD
:1032200090E00C945116685A673120F480E090E0E9
:103230000C9467160895CF93C82F0E94A517C93321
:1032400049F42FEF87EE93E0215080409040E1F762
:1032500000C000008C2FCF910C94BC18882321F063
:103260000E9451210C949A210895882321F00E94F4
:1032700057210C949A210895BF92CF92DF92EF923A
:10328000FF920F931F93CF93DF937C01062FC72FDD
:10329000FC01158112951F70D281D1110E946E21FF
:1032A0000E944721882379F0DD2369F080E2800FB6
:1032B000883048F082E00E94E5210E94472191E099
:1032C000B82EB92601C0B12CCC2EC2948FE0C822F2
:1032D000D12CF601E25AFF4F0C94C0308C2F807F26
:1032E000CF70882311F0C295C07FDD2399F0CC23E5
:1032F00009F48CC180E2800F883010F0011104C005
:103300008C2F0E94512103C08C2F0E9461210E94AA
:103310009A217CC1802F0E94BC18CC2309F49BC148
:1033200080E2800F883010F0011104C08C2F0E94C1
:10333000572103C08C2F0E9467210E949A218BC1C4
:103340008C2F807FCF70803211F0C295C07F002318
:1033500019F00130C9F022C0DD2371F0112341F0D2
:10336000113031F40E9481218C2B0E94872173C17E
:103370000E9481218C2B1DC0112319F0113009F4FA
:103380006AC10E94902125C0DD2321F0163008F08B
:1033900062C10EC0153008F05EC11BC0DD2361F0B4
:1033A000112331F0F701858180FF30C18F70858353
:1033B0008C2F0E942E194FC1112359F0093309F0A7
:1033C00036C1FFEF27EE83E0F15020408040E1F767
:1033D0002CC18C2F0E9435193EC18C2F8695869565
:1033E000837090E0009719F0019761F034C1DD23FC
:1033F00021F0802F9C2F937002C080E090E00E940B
:10340000511634C1DD2321F0802F9C2F937002C010
:1034100080E090E00E94671629C18C2F837009F02C
:1034200049C0D1111FC1402F429546954770440FA6
:10343000440F602F6F70862F90E0A0E0B0E0042E64
:1034400004C0880F991FAA1FBB1F0A94D2F704FF5C
:1034500010C00FE010E020E030E004C0000F111FAA
:10346000221F331F4A95D2F700951095209530956D
:1034700003C000E010E09801C695C695C370D0E087
:10348000BC01CD01602B712B822B932BC230D10557
:1034900059F0C330D10559F0219719F00E94881FC7
:1034A000E1C00E94761FDEC00E949A1FDBC00E940E
:1034B000741FD8C0DD2319F08C2F817001C0869550
:1034C000882309F4CFC0402F429546954770440F9A
:1034D000440F602F6F70862F90E0A0E0B0E0042EC4
:1034E00004C0880F991FAA1FBB1F0A94D2F704FFBC
:1034F00010C00FE010E020E030E004C0000F111F0A
:10350000221F331F4A95D2F70095109520953095CC
:1035100003C000E010E09801C695C695C370D0E0E6
:10352000BC01CD01602B712B822B932BC230D105B6
:1035300059F0C330D10559F0219719F00E944E205F
:1035400091C00E943C208EC00E9460208BC00E94CF
:10355000AF1F88C0CF70DD2339F08C2F0E94D51F9C
:10356000802F0E942E197EC0802F0E9435198C2F2B
:103570000E94F61F77C0023F01F128F4003F41F09E
:10358000013FA1F03FC0033FF9F0043F39F13AC0D9
:10359000DD2341F0153008F05EC08C2F8F710E9442
:1035A0001B2059C0163008F056C0F7CFDD2339F084
:1035B0008C2F8F710E94D51F4EC0DD23C9F38C2F35
:1035C0008F710E94F61F47C0DD2329F08C2F8F7169
:1035D0000E94C01F40C00E94BB1F3DC0DD2349F0B8
:1035E000CF718C2F0E94D51F63E08C2F0E94D021B9
:1035F00032C081E00E94E521123068F182E00E9431
:10360000E52129C0DD2331F0112391F2802F0E94A2
:10361000A51721C0112399F2093349F49FEFE7EE72
:10362000F3E09150E040F040E1F700C00000802F4F
:103630000E94BC1810C04C2F4F70602FC7010E9411
:1036400022050E94E71E12C04C2F4F70602FC70149
:103650000E9425050BC028E0C21AD10884E0C816D4
:10366000D10420F40E94F0150E946604BB20D1F022
:103670000E94432180FD16C0F70112820E943D2165
:103680000E94D51FC7010E945C1B0E943D21DF9153
:10369000CF911F910F91FF90EF90DF90CF90BF904F
:1036A0000C94F61FDF91CF911F910F91FF90EF9037
:1036B000DF90CF90BF9008950F931F93CF93DF9328
:1036C000EC01888199812B813C81232BB9F09F3FAC
:1036D00011F48F3F99F0CE010E949504882371F078
:1036E000688179818A810E941A218C010E9472204E
:1036F0000E94731FB801CE010E943C19DF91CF9147
:103700001F910F9108950E946E210E947E210E94B8
:103710009A2180E090E00E94511680E090E00C94A5
:10372000671680918003909181030E9486230C94F8
:10373000831B0E945E210C94911BE92FE295EF7090
:10374000F0E03297EE30F105B0F4E259FF4F0C94FF
:10375000C030803F91F018F4883E68F40EC0843F7A
:1037600051F40BC0883E48F0813F29F406C093FB1A
:10377000882780F9089580E0089581E008950E94E7
:103780000F210E949D1B0895CF93DF9300D000D09E
:103790001F92CDB7DEB70F900F900F900F900F9044
:1037A000DF91CF910895CF93DF9300D000D000D068
:1037B000CDB7DEB726960FB6F894DEBF0FBECDBFED
:1037C000DF91CF9108951F93CF93DF93C091BB04F6
:1037D00016E08091BC04C81799F0D0E01C9FF0015E
:1037E0001D9FF00D1124E354FB4F408151816281F4
:1037F0007381848195810E94D31B2196C770E9CF84
:10380000DF91CF911F9108954091ED045091EE0406
:103810006091EF047091F0048091F1049091F204B2
:103820000C94D31B8091F20482958F7009F054C0E0
:103830008091EF04882309F44FC08091BB04A091CC
:10384000BC046091ED047091EE044091F00450913D
:10385000F104B6E08A1709F43FC090E04115510524
:10386000C1F17F3F11F46F3FA1F1B89FF001B99F03
:10387000F00D1124E354FB4F218172132AC02081E3
:10388000621327C02281211124C02381348124178F
:10389000350710F421503109241B350B283C310524
:1038A000C0F42091F2042F7020612093F20426E0EE
:1038B000289FF001299FF00D1124EE53FB4F8081CA
:1038C0008F70806180838DEE94E00E945C1B0C946D
:1038D000E31B01968770BECF0895CF92DF92EF92DF
:1038E000FF920F931F93CF93DF93CDB7DEB762970D
:1038F0000FB6F894DEBF0FBECDBF8C0185E0F80196
:10390000DE011D9601900D928A95E1F7D8014C9148
:1039100011965C91119712966C9112971396CD9017
:10392000DC9014973091ED047091EE048091F004D6
:103930009091F104009709F46BC17F3F19F43F3F68
:1039400009F466C1E090EF04EE2009F4C0C02091B4
:10395000F204C816D90628F0F601E81BF90BCF01CE
:1039600004C0809590958C0D9D1DFF24F394883C98
:10397000910578F0F12C207F09F0C6C07C2DD98A02
:10398000C88A89890E94C41B8DEE94E00E945C1B4A
:10399000B1C0822F807F09F046C0751314C0341364
:1039A00012C0611110C02F7020612093F2040E9498
:1039B000041C8DEE94E00E945C1B8091F204D801FF
:1039C00015968C932EC0CD2819F15F3F11F44F3F0F
:1039D000F9F0F62E61111CC08091BB042091BC044B
:1039E00036E0821709F45AC090E0389FF001399F01
:1039F000F00D1124E354FB4F7181571306C0708101
:103A0000471303C07281711103C001968770E9CF1B
:103A1000F62E662309F427C18091F2048160809319
:103A2000F204F12C20C1751308C0341306C06111D3
:103A300004C08091F204D801C3C04D875E878D8594
:103A40009E856A8B0E94BF1B6A898823E1F16623E9
:103A5000D1F12091F204822F82958F7090E002972D
:103A600074F08091ED049091EE0498878F8319860D
:103A7000DB86CA862C87CE0107960E945C1B86E0F7
:103A8000F801ADEEB4E001900D928A95E1F70E9445
:103A9000121C0E94041CFF24F394E5C04D875E872E
:103AA0008D859E850E940F21292F22952F7030E051
:103AB000223031050CF0CBC09F7009F0C5C0805E8C
:103AC000883008F4D0C0C8010E945C1BE4CFC8163F
:103AD000D90608F453C0F601E81BF90BCF01883C66
:103AE000910508F450C0F12C7C2DD98AC88A8989A7
:103AF0000E94C41BEDEEF4E086E0DF011D928A9582
:103B0000E9F70E94041CAFC0751314C0341312C02F
:103B1000611110C08091F204F8018583C8010E94F0
:103B20005C1B86E0EDEEF4E0DF011D928A95E9F77B
:103B3000FE2C99C04D875E878D859E856A8B0E947D
:103B4000BF1B6A89882309F4BECF662309F4BBCF63
:103B50002091F204822F82958F7090E002970CF4EE
:103B60008ECF8091ED049091EE049A8389831B821D
:103B7000DD82CC822E83CE0101967FCF80959095F9
:103B80008C0D9D1DACCFF62E662309F49CCF7513CA
:103B90002EC034132CC02091F20420FD1FC0822FB0
:103BA00082958F70D9F0D80115962C9315978F3088
:103BB00049F08F5F982F9295907F822F8F70892B7D
:103BC00015968C93C8010E945C1B86E0F801ADEE4F
:103BD000B4E001900D928A95E1F793CF86E0F80169
:103BE000ADEEB4E001900D928A95E1F73CC04D87AF
:103BF0005E878D859E850E94BF1B811140CF80917D
:103C0000F20481608093F204C8010E945C1B2BC007
:103C1000662309F458CF4D875E878D859E850E9467
:103C2000BF1BF82E882309F44ECF86E0F801ADEED5
:103C3000B4E001900D928A95E1F78DEE94E00E9438
:103C40009F170E94121C5DCF811139CF0CC0243008
:103C500031050CF038CF9F7009F431CFF801958110
:103C6000907F09F02CCF8F2D62960FB6F894DEBFAF
:103C70000FBECDBFDF91CF911F910F91FF90EF90BD
:103C8000DF90CF9008951F93CF93DF93CDB7DEB72A
:103C90002C970FB6F894DEBF0FBECDBF4F83588769
:103CA00069877A878B879C87CE0107960E946D1C57
:103CB000882369F08F8198852A853B85232BF1F134
:103CC0009F3F09F063C08F3F09F060C037C086E0B6
:103CD000FE013796DE01119601900D928A95E1F76B
:103CE0006F817885EA85FB85309741F17F3F11F43C
:103CF0006F3F21F12091BC0430E0C901019687702B
:103D000099274091BB0450E08417950709F447C0F8
:103D100069837A83FD83EC8396E0929FD001939F21
:103D2000B00D1124A354BB4FFE01319601900D92AA
:103D30009A95E1F78093BC040E94E31B16E0809102
:103D4000BB049091BC048917C1F1189FC0011124D4
:103D500083549B4F0E946D1C882379F1E091BB0432
:103D60001E9FF0011124E354FB4F40815181628179
:103D70007381848195810E94D31B8091BB0490E064
:103D80000196877099278093BB04D9CF4F815885BE
:103D900069857A858B859C850E94D31BCFCF0E9435
:103DA000991B1092BC041092BB04EDEEF4E086E087
:103DB000DF011D928A95E9F7C1CF2C960FB6F894D2
:103DC000DEBF0FBECDBFDF91CF911F910895EF925F
:103DD000FF920F931F93CF93DF938C01892B09F4EC
:103DE0006CC0F12CEE24E394E8012196F801849153
:103DF000843740F4843008F051C0813081F0823043
:103E000019F15BC0853709F444C0A8F19CE7980F0D
:103E1000903708F052C08F770E94BC1841C00E5FE7
:103E20001F4FFE01C49180E28C0F883048F4C770A8
:103E30008E2D01C0880FCA95EAF70E94712114C027
:103E40008C2F0E94A5172DC00E5F1F4FFE01C4913D
:103E500080E28C0F883058F4C7708E2D01C0880F17
:103E6000CA95EAF70E9477210E949A211AC08C2FE6
:103E70000E94BC1816C00E5F1F4FFE01C491CC23D8
:103E800081F08FE99FE00197F1F700C00000C15079
:103E9000F6CF0E5F1F4FFE01F49003C00E94A517DE
:103EA0008E018F2D882309F49FCFEFE9FFE0319732
:103EB000F1F700C000008150F5CFDF91CF911F9145
:103EC0000F91FF90EF90089508950C94641F0E9445
:103ED000651F6093150570931605809317059093E1
:103EE00018050C94831B08950C94671F0F931F9360
:103EF00000911505109116052091170530911805B0
:103F0000602B712B822B932B1F910F910C94671FA9
:103F10000F931F9300911505109116052091170519
:103F20003091180560237123822393231F910F91F1
:103F30000C94671F0F931F930091150510911605A0
:103F40002091170530911805602771278227932744
:103F50001F910F910C94671F08950C94AC1F0E9441
:103F6000AD1F609311057093120580931305909314
:103F700014050C94831B60E070E0CB010C94AF1F20
:103F80000F931F9341E050E060E070E08A019B01D5
:103F900004C0000F111F221F331F8A95D2F7C901D9
:103FA000B8011F910F910C94AF1F0F931F9341E025
:103FB00050E060E070E004C0440F551F661F771F9B
:103FC0008A95D2F78091110590911205A091130561
:103FD000B09114058A019B01082B192B2A2B3B2B2E
:103FE000C901B8011F910F910C94AF1F0F931F933C
:103FF00041E050E060E070E004C0440F551F661FD0
:10400000771F8A95D2F7409550956095709580916D
:10401000110590911205A0911305B09114058A0124
:104020009B01082319232A233B23C901B8011F91AF
:104030000F910C94AF1F0F931F9341E050E060E08D
:1040400070E004C0440F551F661F771F8A95D2F792
:104050008091110590911205A0911305B09114055E
:104060008A019B01082719272A273B27C901B80184
:104070001F910F910C94AF1F0F931F930091110587
:10408000109112052091130530911405602B712BAE
:10409000822B932B1F910F910C94AF1F0F931F93A3
:1040A000009111051091120520911305309114050E
:1040B00060237123822393231F910F910C94AF1FD0
:1040C0000F931F9300911105109112052091130574
:1040D0003091140560277127822793271F910F9134
:1040E0000C94AF1F08952CE0929F800D1124A82FEF
:1040F000A695A695A695877051E001C0550F8A95A3
:10410000EAF785E0A89FD001112420E030E070E0BC
:10411000F901EA0FFB1FED50FB4F4081CB01022E4E
:1041200002C0969587950A94E2F781709927819548
:1041300084278523842780832F5F3F4F25303105D7
:1041400039F708952CE0929F800D1124682F669511
:1041500066956695982F977085E0689FB001112449
:1041600040E050E080E0FA01E60FF71FED50FB4F12
:10417000208130E0092E02C0369527950A94E2F797
:1041800021703327042E01C0220F0A94EAF7822BF4
:104190004F5F5F4F4530510531F70895BF92CF9281
:1041A000DF92EF92FF920F931F93CF93DF938C01D7
:1041B000C0901505D0901605E0901705F0901805F1
:1041C0008091110590911205A0911305B0911405ED
:1041D000C82AD92AEA2AFB2ACFE1D0E0D701C601B2
:1041E0000C2E04C0B695A795979587950A94D2F79B
:1041F00080FF07C0BC2EB8018C2F0E94400501979C
:1042000019F4219758F7B12C8B2DDF91CF911F9185
:104210000F91FF90EF90DF90CF90BF900895CF93D4
:10422000DF93EC010E94CE20BE010E944005DF9189
:10423000CF9108951F93CF93DF93EB019091BA0430
:10424000992321F0CB010E940F2113C0882349F04C
:10425000CB010E94CE20182F682FCE010E94732020
:1042600004C0CB010E94A220182FBE01812F0E9402
:104270004005DF91CF911F91089580911905859593
:104280008595859508958091190587700895909179
:104290001905977081E009F480E0089580913D054B
:1042A000089590913D05892B80933D050895809553
:1042B00090913D05892380933D05089510923D0519
:1042C000089590913C05892B80933C050895809535
:1042D00090913C05892380933C05089510923C05FC
:1042E000089590913B05892B80933B050895809517
:1042F00090913B05892380933B05089510923B05DF
:10430000089580911A05089508950C948421909140
:104310001A05981721F080931A050C9485210895A9
:1043200080911A05882329F010921A0580E00C94D8
:1043300085210895E0918003F091810380913D05EE
:104340008083E0918003F0918103908180913C050E
:10435000892B8083E0918003F0918103908180918B
:104360003B05892B808380911A05882381F0E09199
:104370008003F09181039081892B80838091800359
:10438000909181030E94E92281110E9490218091E5
:104390008003909181030C94FC1508950C94CD2119
:1043A00098E0899F90011124262B209319050E94E3
:1043B000D51F809119058595859585950C94CE21FD
:1043C0001092190580E00C94CE212091190580955A
:1043D000822380931905982F977079F430E0482F45
:1043E000082E000C550B2417350739F08595859557
:1043F00085950E94F61F0C94E02108959093210466
:104400008093200408958295982F9C7C392F3695AF
:104410003695282F237344E0249FC0011124932F45
:10442000982B292F2A7A2695892F8575880F822B1C
:1044300008951F93CF93DF931F92CDB7DEB7998373
:104440000E940322182F9981892F0E940322212F75
:1044500030E0322F2227A901482BCA010F90DF91AB
:10446000CF911F9108956FEF7FEF80E090E00C9463
:104470004E3180E090E00E942A3121E08C3E9E4F38
:1044800009F020E0822F089582E090E00C94223120
:1044900083E090E00C942231CF9384E090E00E947E
:1044A0002231C82F81E290E00E9422312C2F30E08F
:1044B000A901582BCA01CF910895CF93C92F682F16
:1044C00084E090E00E9430316C2F81E290E0CF9147
:1044D0000C94303187E090E00C942231682F87E013
:1044E00090E00C943031AB01BC018FE090E00C9473
:1044F0004231AB01BC0183E190E00C94423160E0B9
:1045000070E0CB010C94792260E070E0CB010E9456
:1045100073220C947F226CEE7EEF80E090E00E948C
:104520004E3160E082E090E00E94303160E083E054
:1045300090E00E94303110921505109216051092ED
:1045400017051092180560E084E090E00E94303179
:1045500060E081E290E00E94303160E085E090E030
:104560000E94303160E086E090E00E9430316FEFD1
:1045700087E090E00E94303140E050E0BA0188E0EE
:1045800090E00E94423160E08DE090E00E94303186
:1045900040E050E0BA0188E190E00E94423160E0E2
:1045A00087E190E00E94303140E050E0BA018CE1B8
:1045B00090E00E94423160E080E290E00E94303161
:1045C0000C9484220C948B22682F8EE090E00C9443
:1045D0003031FC01329680918C03882331F0809138
:1045E000720587FF02C09EE101C096E080E0915015
:1045F00028F021912223D9F38F5FF9CF08959C01F0
:10460000FC0132969FEF80E04191461789F09F3F71
:1046100019F4411101C0982F8F5F8630A9F79F3F91
:1046200039F0F901E90FF11D97FDFA9562830895BC
:104630000895FC01329608962081261301C010824D
:104640003196E817F907C1F70895262F2695269584
:1046500026952E3170F4FC01E20FF11D677021E008
:1046600030E001C0220F6A95EAF78281282B22836D
:10467000089580913E0580FF0CC01F926F9386E5E0
:1046800094E09F938F930E94F0030F900F900F90F0
:104690000F900895262F2695269526952E3178F48D
:1046A000FC01E20FF11D677021E030E001C0220F34
:1046B0006A95EAF7209582812823228308958091C4
:1046C0003E0580FF0CC01F926F9388E394E09F9398
:1046D0008F930E94F0030F900F900F900F9008950A
:1046E00020918C03222329F02091720527FD0C9440
:1046F00025230C94FF2220918C03222329F0209162
:10470000720527FD0C944A230C94192320918C03E5
:10471000FC013296222331F08091720587FF02C09E
:104720008EE101C086E0DF011D928A95E9F70895C8
:1047300008950C9498230E949923809178058430E1
:1047400049F110923F0520E488E190E00FB6F8941B
:10475000A895809360000FBE2093600080E00E94C7
:1047600066040E94992383B7817F846083BF83B7E7
:10477000816083BF7894889583B78E7F83BF0FB69F
:10478000F894A895809160008861809360001092F1
:1047900060000FBE089508950895CF930E94CB2323
:1047A0000E947A080E94CC23C0E08C2F0E94CB0785
:1047B000892B29F4CF5FC430C1F780E001C081E0CC
:1047C000CF91089508950C94E2230E94991B0E94B2
:1047D000F0150E9466040C94E3231F920F920FB60B
:1047E0000F9211248F939F93AF93BF9380913F05B6
:1047F000811113C080916E0590916F05A091700595
:10480000B09171054196A11DB11D80936E059093E5
:104810006F05A0937005B0937105BF91AF919F9103
:104820008F910F900FBE0F901F90189582E084BD5E
:1048300093E095BD9AEF97BD80936E0008952FB7D2
:10484000F89480916E0590916F05A0917005B091DC
:1048500071052FBF0895CF92DF92EF92FF920F93D1
:104860001F932FB7F89440916E0550916F0560919A
:104870007005709171052FBF6A017B01EE24FF2442
:104880008C0120E030E0C016D106E206F30610F4F9
:10489000415051099A01281B390BC9011F910F91F1
:1048A000FF90EF90DF90CF90089578941F920F9231
:1048B0000FB60F9211248F939F93AF93BF93809164
:1048C0006E0590916F05A0917005B09171050196EC
:1048D000A11DB11D80936E0590936F05A093700587
:1048E000B0937105BF91AF919F918F910F900FBEC3
:1048F0000F901F90189581E08093E00080E28093F4
:10490000D8001092C9008FE19EE40197F1F700C032
:10491000000087E090EBDC01809381059093820595
:10492000A0938305B09384059CE088E10FB6F894CA
:10493000A895809360000FBE90936000FFCF0E9407
:104940003922811102C00E94E2220E9444228093F7
:104950003E050E944C2290937305809372050E943D
:104960004822682F70E080E090E00C94741F8091E2
:104970006305089508959FB7F894109242059FBF6C
:1049800090917805943009F057C09091E9009F709C
:104990003091EC00232F217030FD20E8922B23E092
:1049A0002093E9002091EB0020FF43C02091EE000E
:1049B00027FF3FC020914005222321F02091E800ED
:1049C00025FF37C01092400526E03091E80035FD04
:1049D00015C030917805343061F53091EB0035FD2C
:1049E00028C0215021F481E08093400522C0EFE9E6
:1049F000FFE03197F1F700C00000E7CF8093F100AE
:104A00008091E80085FD0AC08091E80080FFFCCF1E
:104A10008091E8008E778093E80006C08FB7F89405
:104A200021E0209342058FBF9F709093E90080E0C2
:104A300008959F709093E9008FEF08950F931F934F
:104A4000CF93DF9300D01F92CDB7DEB78C010E94C9
:104A5000BD27823011F0843021F584E089831B83E7
:104A60000A8382E08093E9008FEF9091E800815003
:104A700095FD06C095ED9A95F1F700008111F5CFEF
:104A80008091E80085FF0DC040E050E063E070E0F9
:104A9000CE0101960E94DA278091E8008E778093FC
:104AA000E8000F900F900F90DF91CF911F910F9121
:104AB0000895CF93DF9300D01F92CDB7DEB720913A
:104AC0007805243031F523E02983805891099B83B0
:104AD0008A8382E08093E9008FEF9091E800815013
:104AE00095FD06C095ED9A95F1F700008111F5CF7F
:104AF0008091E80085FF0DC040E050E063E070E089
:104B0000CE0101960E94DA278091E8008E7780938B
:104B1000E8000F900F900F90DF91CF910895CF9301
:104B2000DF93EC010E94BD27823011F08430D9F56B
:104B300080918C03882339F08091720587FF03C030
:104B400060E282E002C068E081E08093E9008FEFDC
:104B50009091E800815095FD06C095ED9A95F1F78A
:104B600000008111F5CF8091E80085FF1CC0809185
:104B70008C03811105C040E050E068E070E003C0A4
:104B800070E040E050E0CE010E94DA278091E8001A
:104B90008E778093E80080E2FE01A3E4B5E0019007
:104BA0000D928A95E1F7DF91CF91089589E994E01C
:104BB0000E94570380917705811109C00E946F29D7
:104BC0000E94CC298091E20084608093E2000895E5
:104BD00085E994E00E94570310927705089581E9D2
:104BE00094E00C9457038DE894E00C94570389E803
:104BF00094E00E9457030C94E523209141052F5F18
:104C0000822F62E30E948C30992319F02093410592
:104C100008951092410580914205882371F1809199
:104C20007805843041F58091E9008F702091EC0087
:104C3000922F917020FD90E8892B93E09093E900EA
:104C40009091EB0090FF14C09091EE0097FF10C080
:104C50009091E80095FF03C01092F100F9CF909178
:104C6000E80090FF05C09091E8009E779093E800DF
:104C70008F708093E90010924205089542E061EC44
:104C800081E00E94E92842E261EC82E00E94E9288A
:104C900042E261EC83E00C94E92880917A0583304C
:104CA00009F460C030F4813071F0823009F499C0A9
:104CB00008958A3009F485C08B3009F46BC08930BF
:104CC00009F0A7C020C080917905813A09F0A1C000
:104CD0008091E800877F8093E80080917D05909126
:104CE0007E05892B21F460E283E495E003C060E057
:104CF00080E090E070E00E9425288091E8008B77AA
:104D00008093E800089580917905813209F081C08F
:104D100080917D0590917E05029708F07AC0809180
:104D2000E800877F8093E8008091E80082FD05C05D
:104D3000809178058111F8CF6CC02091F3008091AB
:104D4000F20090E0922B029729F48091F1008B7F82
:104D5000813021F48091F100809363058091E80017
:104D60008B7753C080917905813A09F052C08091C8
:104D70007D0590917E05892B09F04BC08091E8005C
:104D8000877F8093E8008091E80080FFFCCF8091CE
:104D90008C0336C0809179058132D9F580917D05EB
:104DA00090917E05892BA9F58091E800877F8093FB
:104DB000E8000E941E2980917B0580938C030C944F
:104DC000991B80917905813221F58091E800877FD8
:104DD0008093E8000E941E2980917C0580936405E1
:104DE000089580917905813AA1F48091E800877F48
:104DF0008093E8008091E80080FFFCCF80916405FB
:104E00008093F1008091E8008E778093E8000C9405
:104E10001E29089584B7877F84BF0FB6F894A8959C
:104E200080916000886180936000109260000FBEE6
:104E300090E080E80FB6F894809361009093610051
:104E40000FBE0E948B160E946F290E94CC29809170
:104E5000E20084608093E2008BEB94E20E94FE21EA
:104E600078940E945A2C0E94931682E893E00E9444
:104E7000EB1588E794E00E94570380917805853010
:104E800089F484E794E00E9457030E949B23809159
:104E90007605882391F30E94CD23882371F30E9425
:104EA000C427EBCF0E94C316E8CF0C945727292FB5
:104EB000332723303105C9F064F42130310581F006
:104EC0002230310509F049C08BE590E023EC34E055
:104ED00048C02132310521F12232310571F13DC046
:104EE00082E190E02EE135E03CC0992781309105C8
:104EF00071F02CF4892B89F5EFEBF4E00DC08230D2
:104F0000910541F0039749F5EDE9F4E005C0E3EBC5
:104F1000F4E002C0E3EAF4E0849190E09F0121C054
:104F200063307105D0F4660F771FFB01E75EFB4F1E
:104F30002081318189E090E014C06330710568F40C
:104F4000FB01EE0FFF1FED5EFB4F20813181FB0166
:104F5000E05FFB4F808190E004C080E090E020E0C3
:104F600030E0FA0131832083089580917805843000
:104F700011F081E0089582E0089580916505811126
:104F800002C00C94B527089580E189BD82E189BDF6
:104F900009B400FEFDCF8091D8008F7D8093D800AA
:104FA0008091E00082608093E0008091E00081FDCC
:104FB000FCCF0895CF92DF92EF92FF920F931F9351
:104FC000CF93DF93EC018B016A010E943D2981118F
:104FD00033C0C114D10439F0F60180819181081BDE
:104FE000190BC80FD91FE12CF12C0115110519F16E
:104FF0008091E80085FD16C08091E8008E7780934F
:10500000E800C114D10449F0F60180819181E80ED5
:10501000F91EF182E08285E00FC00E943D298823BD
:1050200021F30AC089918093F10001501109FFEF2B
:10503000EF1AFF0ADACF80E0DF91CF911F910F9135
:10504000FF90EF90DF90CF90089520917F053091F1
:1050500080052617370748F06115710539F420914E
:10506000E8002E772093E80001C0B90140E0611507
:105070007105A9F120917805222309F443C0253058
:1050800009F442C02091E80023FD40C02091E800CF
:1050900022FD32C02091E80020FFE9CF4091F300CB
:1050A0002091F20030E0342BFC01CF016115710535
:1050B00059F02830310540F481918093F10061501E
:1050C00071092F5F3F4FF1CF41E02830310509F0E2
:1050D00040E02091E8002E772093E800C8CF4111EE
:1050E000C9CF0AC080917805882361F0853061F0CE
:1050F0008091E80083FD0AC08091E80082FFF2CF32
:1051000080E0089582E0089583E0089581E00895A5
:1051100020917F05309180052617370748F06115EB
:10512000710539F42091E8002E772093E80001C042
:10513000B901FC0120E06115710591F180917805BC
:10514000882309F440C0853009F43FC08091E8000D
:1051500083FD3DC08091E80082FD2FC08091E80072
:1051600080FFE9CF2091F3008091F20090E0922B34
:105170006115710559F08830910540F42491209310
:10518000F1003196615071090196F2CF21E0089744
:1051900009F020E08091E8008E778093E800CBCF83
:1051A0002111CCCF0AC080917805882361F0853029
:1051B00061F08091E80083FD0AC08091E80082FFE1
:1051C000F2CF80E0089582E0089583E0089581E0C1
:1051D0000895982F973058F59093E900981739F073
:1051E0007091EC002091ED005091F00003C0242F4D
:1051F000762F50E021FF19C03091EB003E7F3093B5
:10520000EB003091ED003D7F3093ED003091EB00ED
:1052100031603093EB007093EC002093ED005093DD
:10522000F0002091EE0027FF07C09F5FD3CF8F7063
:105230008093E90081E0089580E0089580917905E8
:1052400087FF11C08091E80082FD05C0809178053C
:105250008111F8CF11C08091E8008B770BC080914D
:105260007805882349F08091E80080FFF8CF80918D
:10527000E8008E778093E80008952091E400309153
:10528000E50095E64091EC00842F817040FF22C03C
:105290008091E80080FD1CC080917805882391F002
:1052A000853091F08091EB0085FD10C04091E400C5
:1052B0005091E5004217530729F39A01915011F7D5
:1052C00084E0089582E0089583E0089581E00895E0
:1052D00080E008954091E80042FFDECF08950E94EB
:1052E000DD290E94E529E0EEF0E080818160808385
:1052F000E8EDF0E080818F77808319BCA7EDB0E006
:105300008C918E7F8C9380818F7E80831092770525
:1053100008950F931F93CF93DF930E94DD290E947E
:10532000E529C8EDD0E088818F77888388818068FF
:10533000888388818F7D888319BC109278051092AC
:105340007405109276051092750500EE10E0F801D4
:1053500080818B7F808388818160888342E060E0E8
:1053600080E00E94E928E1EEF0E080818E7F80837A
:10537000E2EEF0E0808181608083808188608083BC
:10538000F80180818E7F8083888180618883DF91AE
:10539000CF911F910F910895E8EDF0E080818F7E0D
:1053A0008083E7EDF0E080818160808384E082BFCC
:1053B00081E0809377050C948929E8EDF0E0808105
:1053C0008E7F80831092E20008951092DA0010928E
:1053D000E10008951F920F920FB60F9211242F93A0
:1053E0003F934F935F936F937F938F939F93AF936D
:1053F000BF93EF93FF938091E10082FF0BC08091F8
:10540000E20082FF07C08091E1008B7F8093E10082
:105410000E94FD258091DA0080FF1FC08091D80096
:1054200080FF1BC08091DA008E7F8093DA0080912C
:10543000D90080FF0DC080E189BD82E189BD09B43A
:1054400000FEFDCF81E0809378050E94D62505C03F
:1054500019BC109278050E94E8258091E10080FF38
:1054600019C08091E20080FF15C08091E2008E7F1C
:105470008093E2008091E20080618093E20080915D
:10548000D80080628093D80019BC85E080937805AD
:105490000E94F3258091E10084FF30C08091E200FA
:1054A00084FF2CC080E189BD82E189BD09B400FE82
:1054B000FDCF8091D8008F7D8093D8008091E1004E
:1054C0008F7E8093E1008091E2008F7E8093E200E6
:1054D0008091E20081608093E200809174058823CE
:1054E00011F084E007C08091E30087FD02C081E0F5
:1054F00001C083E0809378050E94F7258091E10048
:1055000083FF29C08091E20083FF25C08091E100E4
:10551000877F8093E10082E0809378051092740584
:105520008091E1008E7F8093E1008091E2008E7F88
:105530008093E2008091E20080618093E20042E08B
:1055400060E080E00E94E9288091F000886080930C
:10555000F0000E94EF25FF91EF91BF91AF919F91D5
:105560008F917F916F915F914F913F912F910F900C
:105570000FBE0F901F9018951F920F920FB60F92AB
:1055800011242F933F934F935F936F937F938F9348
:105590009F93AF93BF93CF93DF93EF93FF93C0910C
:1055A000E900CF708091EC00D82FD17080FDD0E859
:1055B0001092E9008091F000877F8093F00078944A
:1055C0000E94002B1092E9008091F0008860809387
:1055D000F000CD2BCF70C093E900FF91EF91DF91E8
:1055E000CF91BF91AF919F918F917F916F915F917B
:1055F0004F913F912F910F900FBE0F901F901895D4
:105600001F93CF93DF93CDB7DEB7AA970FB6F89469
:10561000DEBF0FBECDBFE9E7F5E088E08E0F9091C9
:10562000F10091938E13FBCF0E944D268091E800EC
:1056300083FF28C18091790590917A05492F50E028
:105640004A30510508F01EC1FA01E458FF4F0C948E
:10565000C030803821F0823809F014C108C0809130
:10566000750590917605992389F082600FC080912D
:105670007D058F70873008F005C18093E900809127
:10568000EB0085FB882780F91092E9009091E800F3
:10569000977F9093E8008093F1001092F100D0C0C2
:1056A000282F2D7F09F0EEC0882319F0823061F099
:1056B000E9C080917B05813009F0E4C0933009F0A6
:1056C00080E0809376052EC080917B0581112AC0F1
:1056D00080917D058F702FEF280F263008F0D2C003
:1056E0008093E9002091EB0020FF1CC0933021F44F
:1056F0008091EB00806214C09091EB0090619093D8
:10570000EB0021E030E0A90102C0440F551F8A954B
:10571000E2F74093EA001092EA008091EB00886083
:105720008093EB001092E9008091E800877F8093DE
:10573000E8000E941E29A6C08111A4C010917B051B
:105740001F778091E3008078812B8093E300809124
:10575000E800877F8093E8000E941E298091E8007E
:1057600080FFFCCF8091E30080688093E3001111FB
:1057700002C082E001C083E08093780583C0805836
:10578000823008F07FC080917B0590917C058C3D34
:1057900053E0950779F583E08A838AE289834FB7DE
:1057A000F894DE01139620E03EE051E2E32FF0E0B2
:1057B00050935700E49120FF03C0E295EF703F5FE4
:1057C000EF708E2F90E0EA3010F0C79601C0C096BF
:1057D0008D939D932F5F243149F74FBF8091E8004F
:1057E000877F8093E8006AE270E0CE0101960E9414
:1057F000252815C060917D0570917E05AE014F5F33
:105800005F4F0E945527BC01892BE1F19091E80080
:10581000977F9093E80089819A810E9488288091DF
:10582000E8008B778093E8002DC0803859F580918F
:10583000E800877F8093E800809174058093F100F1
:105840008091E8008E7773CF81111CC090917B0509
:105850009230C0F48091E800877F8093E8009093B5
:1058600074050E941E2980917405811106C08091E3
:10587000E30087FD02C081E001C084E080937805E9
:105880000E943E268091E80083FF0AC08091E800D4
:10589000877F8093E8008091EB0080628093EB002B
:1058A000AA960FB6F894DEBF0FBECDBFDF91CF91A1
:1058B0001F910895CF93809178058823A1F0C0911E
:1058C000E900CF709091EC00892F817090FD80E805
:1058D000C82B1092E9008091E80083FD0E94002B04
:1058E000CF70C093E900CF9108955058BB27AA27E5
:1058F0000E948D2C0C94692E0E945B2E38F00E9421
:10590000622E20F039F49F3F19F426F40C94582E9F
:105910000EF4E095E7FB0C94442EE92F0E947A2EBA
:1059200058F3BA17620773078407950720F079F4D4
:10593000A6F50C949C2E0EF4E0950B2EBA2FA02DFC
:105940000B01B90190010C01CA01A0011124FF272C
:10595000591B99F0593F50F4503E68F11A16F04027
:10596000A22F232F342F4427585FF3CF4695379526
:105970002795A795F0405395C9F77EF41F16BA0BEB
:10598000620B730B840BBAF09150A1F0FF0FBB1F99
:10599000661F771F881FC2F70EC0BA0F621F731FE2
:1059A000841F48F4879577956795B795F7959E3F3F
:1059B00008F0B0CF9395880F08F09927EE0F9795D0
:1059C000879508950E94202E08F481E008950E9492
:1059D000FB2C0C94692E0E94622E58F00E945B2EC4
:1059E00040F029F45F3F29F00C94442E51110C949F
:1059F0009D2E0C94582E0E947A2E68F39923B1F3B1
:105A0000552391F3951B550BBB27AA2762177307E4
:105A1000840738F09F5F5F4F220F331F441FAA1F78
:105A2000A9F335D00E2E3AF0E0E832D09150504034
:105A3000E695001CCAF72BD0FE2F29D0660F771FE2
:105A4000881FBB1F261737074807AB07B0E809F0C8
:105A5000BB0B802DBF01FF2793585F4F3AF09E3F4D
:105A6000510578F00C94442E0C949D2E5F3FE4F386
:105A7000983ED4F3869577956795B795F7959F5F90
:105A8000C9F7880F911D9695879597F90895E1E0DC
:105A9000660F771F881FBB1F621773078407BA073B
:105AA00020F0621B730B840BBA0BEE1F88F7E09596
:105AB00008950E94602D6894B1110C949D2E089554
:105AC0000E94822E88F09F5798F0B92F9927B751DE
:105AD000B0F0E1F0660F771F881F991F1AF0BA9592
